{
	"MSE804-Blockchain/3_Ballot.sol": {
		"EventOrganizer": {
			"abi": [
				{
					"inputs": [
						{
							"internalType": "uint256",
							"name": "id",
							"type": "uint256"
						},
						{
							"internalType": "uint256",
							"name": "quantity",
							"type": "uint256"
						}
					],
					"name": "ButTicket",
					"outputs": [],
					"stateMutability": "payable",
					"type": "function"
				},
				{
					"inputs": [
						{
							"internalType": "string",
							"name": "name",
							"type": "string"
						},
						{
							"internalType": "uint256",
							"name": "date",
							"type": "uint256"
						},
						{
							"internalType": "uint256",
							"name": "price",
							"type": "uint256"
						},
						{
							"internalType": "uint256",
							"name": "ticketCount",
							"type": "uint256"
						}
					],
					"name": "createEvent",
					"outputs": [],
					"stateMutability": "nonpayable",
					"type": "function"
				},
				{
					"inputs": [
						{
							"internalType": "uint256",
							"name": "",
							"type": "uint256"
						}
					],
					"name": "events",
					"outputs": [
						{
							"internalType": "address",
							"name": "organizar",
							"type": "address"
						},
						{
							"internalType": "string",
							"name": "name",
							"type": "string"
						},
						{
							"internalType": "uint256",
							"name": "date",
							"type": "uint256"
						},
						{
							"internalType": "uint256",
							"name": "price",
							"type": "uint256"
						},
						{
							"internalType": "uint256",
							"name": "ticketCount",
							"type": "uint256"
						},
						{
							"internalType": "uint256",
							"name": "ticketRemain",
							"type": "uint256"
						}
					],
					"stateMutability": "view",
					"type": "function"
				},
				{
					"inputs": [],
					"name": "nextId",
					"outputs": [
						{
							"internalType": "uint256",
							"name": "",
							"type": "uint256"
						}
					],
					"stateMutability": "view",
					"type": "function"
				},
				{
					"inputs": [
						{
							"internalType": "address",
							"name": "",
							"type": "address"
						},
						{
							"internalType": "uint256",
							"name": "",
							"type": "uint256"
						}
					],
					"name": "tickets",
					"outputs": [
						{
							"internalType": "uint256",
							"name": "",
							"type": "uint256"
						}
					],
					"stateMutability": "view",
					"type": "function"
				},
				{
					"inputs": [
						{
							"internalType": "uint256",
							"name": "id",
							"type": "uint256"
						},
						{
							"internalType": "uint256",
							"name": "quantity",
							"type": "uint256"
						},
						{
							"internalType": "address",
							"name": "to",
							"type": "address"
						}
					],
					"name": "transferTicket",
					"outputs": [],
					"stateMutability": "nonpayable",
					"type": "function"
				}
			],
			"devdoc": {
				"kind": "dev",
				"methods": {},
				"version": 1
			},
			"evm": {
				"assembly": "    /* \"MSE804-Blockchain/3_Ballot.sol\":111:1719  contract EventOrganizer{... */\n  mstore(0x40, 0x80)\n  callvalue\n  dup1\n  iszero\n  tag_1\n  jumpi\n  0x00\n  dup1\n  revert\ntag_1:\n  pop\n  dataSize(sub_0)\n  dup1\n  dataOffset(sub_0)\n  0x00\n  codecopy\n  0x00\n  return\nstop\n\nsub_0: assembly {\n        /* \"MSE804-Blockchain/3_Ballot.sol\":111:1719  contract EventOrganizer{... */\n      mstore(0x40, 0x80)\n      jumpi(tag_1, lt(calldatasize, 0x04))\n      shr(0xe0, calldataload(0x00))\n      dup1\n      0x0374ab0b\n      eq\n      tag_2\n      jumpi\n      dup1\n      0x0b791430\n      eq\n      tag_3\n      jumpi\n      dup1\n      0x61b8ce8c\n      eq\n      tag_4\n      jumpi\n      dup1\n      0xdae7a13c\n      eq\n      tag_5\n      jumpi\n      dup1\n      0xef523f71\n      eq\n      tag_6\n      jumpi\n      dup1\n      0xf086a09b\n      eq\n      tag_7\n      jumpi\n    tag_1:\n      0x00\n      dup1\n      revert\n        /* \"MSE804-Blockchain/3_Ballot.sol\":445:826  function createEvent(string memory name,uint date, uint price, uint ticketCount) external {... */\n    tag_2:\n      callvalue\n      dup1\n      iszero\n      tag_8\n      jumpi\n      0x00\n      dup1\n      revert\n    tag_8:\n      pop\n      tag_9\n      0x04\n      dup1\n      calldatasize\n      sub\n      dup2\n      add\n      swap1\n      tag_10\n      swap2\n      swap1\n      tag_11\n      jump\t// in\n    tag_10:\n      tag_12\n      jump\t// in\n    tag_9:\n      stop\n        /* \"MSE804-Blockchain/3_Ballot.sol\":316:351  mapping (uint=>Event) public events */\n    tag_3:\n      callvalue\n      dup1\n      iszero\n      tag_13\n      jumpi\n      0x00\n      dup1\n      revert\n    tag_13:\n      pop\n      tag_14\n      0x04\n      dup1\n      calldatasize\n      sub\n      dup2\n      add\n      swap1\n      tag_15\n      swap2\n      swap1\n      tag_16\n      jump\t// in\n    tag_15:\n      tag_17\n      jump\t// in\n    tag_14:\n      mload(0x40)\n      tag_18\n      swap7\n      swap6\n      swap5\n      swap4\n      swap3\n      swap2\n      swap1\n      tag_19\n      jump\t// in\n    tag_18:\n      mload(0x40)\n      dup1\n      swap2\n      sub\n      swap1\n      return\n        /* \"MSE804-Blockchain/3_Ballot.sol\":417:435  uint public nextId */\n    tag_4:\n      callvalue\n      dup1\n      iszero\n      tag_20\n      jumpi\n      0x00\n      dup1\n      revert\n    tag_20:\n      pop\n      tag_21\n      tag_22\n      jump\t// in\n    tag_21:\n      mload(0x40)\n      tag_23\n      swap2\n      swap1\n      tag_24\n      jump\t// in\n    tag_23:\n      mload(0x40)\n      dup1\n      swap2\n      sub\n      swap1\n      return\n        /* \"MSE804-Blockchain/3_Ballot.sol\":358:410  mapping(address=>mapping(uint=>uint)) public tickets */\n    tag_5:\n      callvalue\n      dup1\n      iszero\n      tag_25\n      jumpi\n      0x00\n      dup1\n      revert\n    tag_25:\n      pop\n      tag_26\n      0x04\n      dup1\n      calldatasize\n      sub\n      dup2\n      add\n      swap1\n      tag_27\n      swap2\n      swap1\n      tag_28\n      jump\t// in\n    tag_27:\n      tag_29\n      jump\t// in\n    tag_26:\n      mload(0x40)\n      tag_30\n      swap2\n      swap1\n      tag_24\n      jump\t// in\n    tag_30:\n      mload(0x40)\n      dup1\n      swap2\n      sub\n      swap1\n      return\n        /* \"MSE804-Blockchain/3_Ballot.sol\":832:1317  function ButTicket(uint id, uint quantity) external payable {... */\n    tag_6:\n      tag_31\n      0x04\n      dup1\n      calldatasize\n      sub\n      dup2\n      add\n      swap1\n      tag_32\n      swap2\n      swap1\n      tag_33\n      jump\t// in\n    tag_32:\n      tag_34\n      jump\t// in\n    tag_31:\n      stop\n        /* \"MSE804-Blockchain/3_Ballot.sol\":1326:1716  function transferTicket(uint id, uint quantity, address to) external {... */\n    tag_7:\n      callvalue\n      dup1\n      iszero\n      tag_35\n      jumpi\n      0x00\n      dup1\n      revert\n    tag_35:\n      pop\n      tag_36\n      0x04\n      dup1\n      calldatasize\n      sub\n      dup2\n      add\n      swap1\n      tag_37\n      swap2\n      swap1\n      tag_38\n      jump\t// in\n    tag_37:\n      tag_39\n      jump\t// in\n    tag_36:\n      stop\n        /* \"MSE804-Blockchain/3_Ballot.sol\":445:826  function createEvent(string memory name,uint date, uint price, uint ticketCount) external {... */\n    tag_12:\n        /* \"MSE804-Blockchain/3_Ballot.sol\":559:574  block.timestamp */\n      timestamp\n        /* \"MSE804-Blockchain/3_Ballot.sol\":554:558  date */\n      dup4\n        /* \"MSE804-Blockchain/3_Ballot.sol\":554:574  date>block.timestamp */\n      gt\n        /* \"MSE804-Blockchain/3_Ballot.sol\":546:616  require(date>block.timestamp,\"You can organize event for future date\") */\n      tag_41\n      jumpi\n      mload(0x40)\n      0x08c379a000000000000000000000000000000000000000000000000000000000\n      dup2\n      mstore\n      0x04\n      add\n      tag_42\n      swap1\n      tag_43\n      jump\t// in\n    tag_42:\n      mload(0x40)\n      dup1\n      swap2\n      sub\n      swap1\n      revert\n    tag_41:\n        /* \"MSE804-Blockchain/3_Ballot.sol\":647:648  0 */\n      0x00\n        /* \"MSE804-Blockchain/3_Ballot.sol\":635:646  ticketCount */\n      dup2\n        /* \"MSE804-Blockchain/3_Ballot.sol\":635:648  ticketCount>0 */\n      gt\n        /* \"MSE804-Blockchain/3_Ballot.sol\":627:713  require(ticketCount>0,\"You can organise event only if you create more than 0 tickets\") */\n      tag_44\n      jumpi\n      mload(0x40)\n      0x08c379a000000000000000000000000000000000000000000000000000000000\n      dup2\n      mstore\n      0x04\n      add\n      tag_45\n      swap1\n      tag_46\n      jump\t// in\n    tag_45:\n      mload(0x40)\n      dup1\n      swap2\n      sub\n      swap1\n      revert\n    tag_44:\n        /* \"MSE804-Blockchain/3_Ballot.sol\":741:799  Event(msg.sender,name,date,price,ticketCount, ticketCount) */\n      mload(0x40)\n      dup1\n      0xc0\n      add\n      0x40\n      mstore\n      dup1\n        /* \"MSE804-Blockchain/3_Ballot.sol\":747:757  msg.sender */\n      caller\n        /* \"MSE804-Blockchain/3_Ballot.sol\":741:799  Event(msg.sender,name,date,price,ticketCount, ticketCount) */\n      0xffffffffffffffffffffffffffffffffffffffff\n      and\n      dup2\n      mstore\n      0x20\n      add\n        /* \"MSE804-Blockchain/3_Ballot.sol\":758:762  name */\n      dup6\n        /* \"MSE804-Blockchain/3_Ballot.sol\":741:799  Event(msg.sender,name,date,price,ticketCount, ticketCount) */\n      dup2\n      mstore\n      0x20\n      add\n        /* \"MSE804-Blockchain/3_Ballot.sol\":763:767  date */\n      dup5\n        /* \"MSE804-Blockchain/3_Ballot.sol\":741:799  Event(msg.sender,name,date,price,ticketCount, ticketCount) */\n      dup2\n      mstore\n      0x20\n      add\n        /* \"MSE804-Blockchain/3_Ballot.sol\":768:773  price */\n      dup4\n        /* \"MSE804-Blockchain/3_Ballot.sol\":741:799  Event(msg.sender,name,date,price,ticketCount, ticketCount) */\n      dup2\n      mstore\n      0x20\n      add\n        /* \"MSE804-Blockchain/3_Ballot.sol\":774:785  ticketCount */\n      dup3\n        /* \"MSE804-Blockchain/3_Ballot.sol\":741:799  Event(msg.sender,name,date,price,ticketCount, ticketCount) */\n      dup2\n      mstore\n      0x20\n      add\n        /* \"MSE804-Blockchain/3_Ballot.sol\":787:798  ticketCount */\n      dup3\n        /* \"MSE804-Blockchain/3_Ballot.sol\":741:799  Event(msg.sender,name,date,price,ticketCount, ticketCount) */\n      dup2\n      mstore\n      pop\n        /* \"MSE804-Blockchain/3_Ballot.sol\":724:730  events */\n      0x00\n        /* \"MSE804-Blockchain/3_Ballot.sol\":724:738  events[nextId] */\n      dup1\n        /* \"MSE804-Blockchain/3_Ballot.sol\":731:737  nextId */\n      sload(0x02)\n        /* \"MSE804-Blockchain/3_Ballot.sol\":724:738  events[nextId] */\n      dup2\n      mstore\n      0x20\n      add\n      swap1\n      dup2\n      mstore\n      0x20\n      add\n      0x00\n      keccak256\n        /* \"MSE804-Blockchain/3_Ballot.sol\":724:799  events[nextId] = Event(msg.sender,name,date,price,ticketCount, ticketCount) */\n      0x00\n      dup3\n      add\n      mload\n      dup2\n      0x00\n      add\n      exp(0x0100, 0x00)\n      dup2\n      sload\n      dup2\n      0xffffffffffffffffffffffffffffffffffffffff\n      mul\n      not\n      and\n      swap1\n      dup4\n      0xffffffffffffffffffffffffffffffffffffffff\n      and\n      mul\n      or\n      swap1\n      sstore\n      pop\n      0x20\n      dup3\n      add\n      mload\n      dup2\n      0x01\n      add\n      swap1\n      dup2\n      tag_47\n      swap2\n      swap1\n      tag_48\n      jump\t// in\n    tag_47:\n      pop\n      0x40\n      dup3\n      add\n      mload\n      dup2\n      0x02\n      add\n      sstore\n      0x60\n      dup3\n      add\n      mload\n      dup2\n      0x03\n      add\n      sstore\n      0x80\n      dup3\n      add\n      mload\n      dup2\n      0x04\n      add\n      sstore\n      0xa0\n      dup3\n      add\n      mload\n      dup2\n      0x05\n      add\n      sstore\n      swap1\n      pop\n      pop\n        /* \"MSE804-Blockchain/3_Ballot.sol\":810:816  nextId */\n      0x02\n      0x00\n        /* \"MSE804-Blockchain/3_Ballot.sol\":810:818  nextId++ */\n      dup2\n      sload\n      dup1\n      swap3\n      swap2\n      swap1\n      tag_49\n      swap1\n      tag_50\n      jump\t// in\n    tag_49:\n      swap2\n      swap1\n      pop\n      sstore\n      pop\n        /* \"MSE804-Blockchain/3_Ballot.sol\":445:826  function createEvent(string memory name,uint date, uint price, uint ticketCount) external {... */\n      pop\n      pop\n      pop\n      pop\n      jump\t// out\n        /* \"MSE804-Blockchain/3_Ballot.sol\":316:351  mapping (uint=>Event) public events */\n    tag_17:\n      mstore(0x20, 0x00)\n      dup1\n      0x00\n      mstore\n      keccak256(0x00, 0x40)\n      0x00\n      swap2\n      pop\n      swap1\n      pop\n      dup1\n      0x00\n      add\n      0x00\n      swap1\n      sload\n      swap1\n      0x0100\n      exp\n      swap1\n      div\n      0xffffffffffffffffffffffffffffffffffffffff\n      and\n      swap1\n      dup1\n      0x01\n      add\n      dup1\n      sload\n      tag_51\n      swap1\n      tag_52\n      jump\t// in\n    tag_51:\n      dup1\n      0x1f\n      add\n      0x20\n      dup1\n      swap2\n      div\n      mul\n      0x20\n      add\n      mload(0x40)\n      swap1\n      dup2\n      add\n      0x40\n      mstore\n      dup1\n      swap3\n      swap2\n      swap1\n      dup2\n      dup2\n      mstore\n      0x20\n      add\n      dup3\n      dup1\n      sload\n      tag_53\n      swap1\n      tag_52\n      jump\t// in\n    tag_53:\n      dup1\n      iszero\n      tag_54\n      jumpi\n      dup1\n      0x1f\n      lt\n      tag_55\n      jumpi\n      0x0100\n      dup1\n      dup4\n      sload\n      div\n      mul\n      dup4\n      mstore\n      swap2\n      0x20\n      add\n      swap2\n      jump(tag_54)\n    tag_55:\n      dup3\n      add\n      swap2\n      swap1\n      0x00\n      mstore\n      keccak256(0x00, 0x20)\n      swap1\n    tag_56:\n      dup2\n      sload\n      dup2\n      mstore\n      swap1\n      0x01\n      add\n      swap1\n      0x20\n      add\n      dup1\n      dup4\n      gt\n      tag_56\n      jumpi\n      dup3\n      swap1\n      sub\n      0x1f\n      and\n      dup3\n      add\n      swap2\n    tag_54:\n      pop\n      pop\n      pop\n      pop\n      pop\n      swap1\n      dup1\n      0x02\n      add\n      sload\n      swap1\n      dup1\n      0x03\n      add\n      sload\n      swap1\n      dup1\n      0x04\n      add\n      sload\n      swap1\n      dup1\n      0x05\n      add\n      sload\n      swap1\n      pop\n      dup7\n      jump\t// out\n        /* \"MSE804-Blockchain/3_Ballot.sol\":417:435  uint public nextId */\n    tag_22:\n      sload(0x02)\n      dup2\n      jump\t// out\n        /* \"MSE804-Blockchain/3_Ballot.sol\":358:410  mapping(address=>mapping(uint=>uint)) public tickets */\n    tag_29:\n      mstore(0x20, 0x01)\n      dup2\n      0x00\n      mstore\n      mstore(0x20, keccak256(0x00, 0x40))\n      dup1\n      0x00\n      mstore\n      keccak256(0x00, 0x40)\n      0x00\n      swap2\n      pop\n      swap2\n      pop\n      pop\n      sload\n      dup2\n      jump\t// out\n        /* \"MSE804-Blockchain/3_Ballot.sol\":832:1317  function ButTicket(uint id, uint quantity) external payable {... */\n    tag_34:\n        /* \"MSE804-Blockchain/3_Ballot.sol\":928:929  0 */\n      0x00\n        /* \"MSE804-Blockchain/3_Ballot.sol\":911:917  events */\n      dup1\n        /* \"MSE804-Blockchain/3_Ballot.sol\":911:921  events[id] */\n      0x00\n        /* \"MSE804-Blockchain/3_Ballot.sol\":918:920  id */\n      dup5\n        /* \"MSE804-Blockchain/3_Ballot.sol\":911:921  events[id] */\n      dup2\n      mstore\n      0x20\n      add\n      swap1\n      dup2\n      mstore\n      0x20\n      add\n      0x00\n      keccak256\n        /* \"MSE804-Blockchain/3_Ballot.sol\":911:926  events[id].date */\n      0x02\n      add\n      sload\n        /* \"MSE804-Blockchain/3_Ballot.sol\":911:929  events[id].date!=0 */\n      sub\n        /* \"MSE804-Blockchain/3_Ballot.sol\":903:954  require(events[id].date!=0, \"Event does not exist\") */\n      tag_58\n      jumpi\n      mload(0x40)\n      0x08c379a000000000000000000000000000000000000000000000000000000000\n      dup2\n      mstore\n      0x04\n      add\n      tag_59\n      swap1\n      tag_60\n      jump\t// in\n    tag_59:\n      mload(0x40)\n      dup1\n      swap2\n      sub\n      swap1\n      revert\n    tag_58:\n        /* \"MSE804-Blockchain/3_Ballot.sol\":989:1004  block.timestamp */\n      timestamp\n        /* \"MSE804-Blockchain/3_Ballot.sol\":973:979  events */\n      0x00\n        /* \"MSE804-Blockchain/3_Ballot.sol\":973:983  events[id] */\n      dup1\n        /* \"MSE804-Blockchain/3_Ballot.sol\":980:982  id */\n      dup5\n        /* \"MSE804-Blockchain/3_Ballot.sol\":973:983  events[id] */\n      dup2\n      mstore\n      0x20\n      add\n      swap1\n      dup2\n      mstore\n      0x20\n      add\n      0x00\n      keccak256\n        /* \"MSE804-Blockchain/3_Ballot.sol\":973:988  events[id].date */\n      0x02\n      add\n      sload\n        /* \"MSE804-Blockchain/3_Ballot.sol\":973:1004  events[id].date>block.timestamp */\n      gt\n        /* \"MSE804-Blockchain/3_Ballot.sol\":965:1033  require(events[id].date>block.timestamp,\"Event has already occured\") */\n      tag_61\n      jumpi\n      mload(0x40)\n      0x08c379a000000000000000000000000000000000000000000000000000000000\n      dup2\n      mstore\n      0x04\n      add\n      tag_62\n      swap1\n      tag_63\n      jump\t// in\n    tag_62:\n      mload(0x40)\n      dup1\n      swap2\n      sub\n      swap1\n      revert\n    tag_61:\n        /* \"MSE804-Blockchain/3_Ballot.sol\":1044:1064  Event storage _event */\n      0x00\n        /* \"MSE804-Blockchain/3_Ballot.sol\":1067:1073  events */\n      dup1\n        /* \"MSE804-Blockchain/3_Ballot.sol\":1067:1077  events[id] */\n      0x00\n        /* \"MSE804-Blockchain/3_Ballot.sol\":1074:1076  id */\n      dup5\n        /* \"MSE804-Blockchain/3_Ballot.sol\":1067:1077  events[id] */\n      dup2\n      mstore\n      0x20\n      add\n      swap1\n      dup2\n      mstore\n      0x20\n      add\n      0x00\n      keccak256\n        /* \"MSE804-Blockchain/3_Ballot.sol\":1044:1077  Event storage _event = events[id] */\n      swap1\n      pop\n        /* \"MSE804-Blockchain/3_Ballot.sol\":1121:1129  quantity */\n      dup2\n        /* \"MSE804-Blockchain/3_Ballot.sol\":1108:1114  _event */\n      dup2\n        /* \"MSE804-Blockchain/3_Ballot.sol\":1108:1120  _event.price */\n      0x03\n      add\n      sload\n        /* \"MSE804-Blockchain/3_Ballot.sol\":1108:1129  _event.price*quantity */\n      tag_64\n      swap2\n      swap1\n      tag_65\n      jump\t// in\n    tag_64:\n        /* \"MSE804-Blockchain/3_Ballot.sol\":1096:1105  msg.value */\n      callvalue\n        /* \"MSE804-Blockchain/3_Ballot.sol\":1096:1130  msg.value==(_event.price*quantity) */\n      eq\n        /* \"MSE804-Blockchain/3_Ballot.sol\":1088:1153  require(msg.value==(_event.price*quantity),\"ether is not enough\") */\n      tag_66\n      jumpi\n      mload(0x40)\n      0x08c379a000000000000000000000000000000000000000000000000000000000\n      dup2\n      mstore\n      0x04\n      add\n      tag_67\n      swap1\n      tag_68\n      jump\t// in\n    tag_67:\n      mload(0x40)\n      dup1\n      swap2\n      sub\n      swap1\n      revert\n    tag_66:\n        /* \"MSE804-Blockchain/3_Ballot.sol\":1193:1201  quantity */\n      dup2\n        /* \"MSE804-Blockchain/3_Ballot.sol\":1172:1178  _event */\n      dup2\n        /* \"MSE804-Blockchain/3_Ballot.sol\":1172:1191  _event.ticketRemain */\n      0x05\n      add\n      sload\n        /* \"MSE804-Blockchain/3_Ballot.sol\":1172:1201  _event.ticketRemain>=quantity */\n      lt\n      iszero\n        /* \"MSE804-Blockchain/3_Ballot.sol\":1164:1223  require(_event.ticketRemain>=quantity,\"Not enough tickets\") */\n      tag_69\n      jumpi\n      mload(0x40)\n      0x08c379a000000000000000000000000000000000000000000000000000000000\n      dup2\n      mstore\n      0x04\n      add\n      tag_70\n      swap1\n      tag_71\n      jump\t// in\n    tag_70:\n      mload(0x40)\n      dup1\n      swap2\n      sub\n      swap1\n      revert\n    tag_69:\n        /* \"MSE804-Blockchain/3_Ballot.sol\":1255:1263  quantity */\n      dup2\n        /* \"MSE804-Blockchain/3_Ballot.sol\":1234:1240  _event */\n      dup2\n        /* \"MSE804-Blockchain/3_Ballot.sol\":1234:1253  _event.ticketRemain */\n      0x05\n      add\n      0x00\n        /* \"MSE804-Blockchain/3_Ballot.sol\":1234:1263  _event.ticketRemain-=quantity */\n      dup3\n      dup3\n      sload\n      tag_72\n      swap2\n      swap1\n      tag_73\n      jump\t// in\n    tag_72:\n      swap3\n      pop\n      pop\n      dup2\n      swap1\n      sstore\n      pop\n        /* \"MSE804-Blockchain/3_Ballot.sol\":1301:1309  quantity */\n      dup2\n        /* \"MSE804-Blockchain/3_Ballot.sol\":1274:1281  tickets */\n      0x01\n        /* \"MSE804-Blockchain/3_Ballot.sol\":1274:1293  tickets[msg.sender] */\n      0x00\n        /* \"MSE804-Blockchain/3_Ballot.sol\":1282:1292  msg.sender */\n      caller\n        /* \"MSE804-Blockchain/3_Ballot.sol\":1274:1293  tickets[msg.sender] */\n      0xffffffffffffffffffffffffffffffffffffffff\n      and\n      0xffffffffffffffffffffffffffffffffffffffff\n      and\n      dup2\n      mstore\n      0x20\n      add\n      swap1\n      dup2\n      mstore\n      0x20\n      add\n      0x00\n      keccak256\n        /* \"MSE804-Blockchain/3_Ballot.sol\":1274:1298  tickets[msg.sender] [id] */\n      0x00\n        /* \"MSE804-Blockchain/3_Ballot.sol\":1295:1297  id */\n      dup6\n        /* \"MSE804-Blockchain/3_Ballot.sol\":1274:1298  tickets[msg.sender] [id] */\n      dup2\n      mstore\n      0x20\n      add\n      swap1\n      dup2\n      mstore\n      0x20\n      add\n      0x00\n      keccak256\n      0x00\n        /* \"MSE804-Blockchain/3_Ballot.sol\":1274:1309  tickets[msg.sender] [id] +=quantity */\n      dup3\n      dup3\n      sload\n      tag_74\n      swap2\n      swap1\n      tag_75\n      jump\t// in\n    tag_74:\n      swap3\n      pop\n      pop\n      dup2\n      swap1\n      sstore\n      pop\n        /* \"MSE804-Blockchain/3_Ballot.sol\":892:1317  {... */\n      pop\n        /* \"MSE804-Blockchain/3_Ballot.sol\":832:1317  function ButTicket(uint id, uint quantity) external payable {... */\n      pop\n      pop\n      jump\t// out\n        /* \"MSE804-Blockchain/3_Ballot.sol\":1326:1716  function transferTicket(uint id, uint quantity, address to) external {... */\n    tag_39:\n        /* \"MSE804-Blockchain/3_Ballot.sol\":1431:1432  0 */\n      0x00\n        /* \"MSE804-Blockchain/3_Ballot.sol\":1414:1420  events */\n      dup1\n        /* \"MSE804-Blockchain/3_Ballot.sol\":1414:1424  events[id] */\n      0x00\n        /* \"MSE804-Blockchain/3_Ballot.sol\":1421:1423  id */\n      dup6\n        /* \"MSE804-Blockchain/3_Ballot.sol\":1414:1424  events[id] */\n      dup2\n      mstore\n      0x20\n      add\n      swap1\n      dup2\n      mstore\n      0x20\n      add\n      0x00\n      keccak256\n        /* \"MSE804-Blockchain/3_Ballot.sol\":1414:1429  events[id].date */\n      0x02\n      add\n      sload\n        /* \"MSE804-Blockchain/3_Ballot.sol\":1414:1432  events[id].date!=0 */\n      sub\n        /* \"MSE804-Blockchain/3_Ballot.sol\":1406:1456  require(events[id].date!=0,\"event does not exist\") */\n      tag_77\n      jumpi\n      mload(0x40)\n      0x08c379a000000000000000000000000000000000000000000000000000000000\n      dup2\n      mstore\n      0x04\n      add\n      tag_78\n      swap1\n      tag_79\n      jump\t// in\n    tag_78:\n      mload(0x40)\n      dup1\n      swap2\n      sub\n      swap1\n      revert\n    tag_77:\n        /* \"MSE804-Blockchain/3_Ballot.sol\":1491:1506  block.timestamp */\n      timestamp\n        /* \"MSE804-Blockchain/3_Ballot.sol\":1475:1481  events */\n      0x00\n        /* \"MSE804-Blockchain/3_Ballot.sol\":1475:1485  events[id] */\n      dup1\n        /* \"MSE804-Blockchain/3_Ballot.sol\":1482:1484  id */\n      dup6\n        /* \"MSE804-Blockchain/3_Ballot.sol\":1475:1485  events[id] */\n      dup2\n      mstore\n      0x20\n      add\n      swap1\n      dup2\n      mstore\n      0x20\n      add\n      0x00\n      keccak256\n        /* \"MSE804-Blockchain/3_Ballot.sol\":1475:1490  events[id].date */\n      0x02\n      add\n      sload\n        /* \"MSE804-Blockchain/3_Ballot.sol\":1475:1506  events[id].date>block.timestamp */\n      gt\n        /* \"MSE804-Blockchain/3_Ballot.sol\":1467:1536  require(events[id].date>block.timestamp, \"event has already occured\") */\n      tag_80\n      jumpi\n      mload(0x40)\n      0x08c379a000000000000000000000000000000000000000000000000000000000\n      dup2\n      mstore\n      0x04\n      add\n      tag_81\n      swap1\n      tag_82\n      jump\t// in\n    tag_81:\n      mload(0x40)\n      dup1\n      swap2\n      sub\n      swap1\n      revert\n    tag_80:\n        /* \"MSE804-Blockchain/3_Ballot.sol\":1582:1590  quantity */\n      dup2\n        /* \"MSE804-Blockchain/3_Ballot.sol\":1555:1562  tickets */\n      0x01\n        /* \"MSE804-Blockchain/3_Ballot.sol\":1555:1574  tickets[msg.sender] */\n      0x00\n        /* \"MSE804-Blockchain/3_Ballot.sol\":1563:1573  msg.sender */\n      caller\n        /* \"MSE804-Blockchain/3_Ballot.sol\":1555:1574  tickets[msg.sender] */\n      0xffffffffffffffffffffffffffffffffffffffff\n      and\n      0xffffffffffffffffffffffffffffffffffffffff\n      and\n      dup2\n      mstore\n      0x20\n      add\n      swap1\n      dup2\n      mstore\n      0x20\n      add\n      0x00\n      keccak256\n        /* \"MSE804-Blockchain/3_Ballot.sol\":1555:1579  tickets[msg.sender] [id] */\n      0x00\n        /* \"MSE804-Blockchain/3_Ballot.sol\":1576:1578  id */\n      dup6\n        /* \"MSE804-Blockchain/3_Ballot.sol\":1555:1579  tickets[msg.sender] [id] */\n      dup2\n      mstore\n      0x20\n      add\n      swap1\n      dup2\n      mstore\n      0x20\n      add\n      0x00\n      keccak256\n      sload\n        /* \"MSE804-Blockchain/3_Ballot.sol\":1555:1590  tickets[msg.sender] [id] >=quantity */\n      lt\n      iszero\n        /* \"MSE804-Blockchain/3_Ballot.sol\":1547:1625  require(tickets[msg.sender] [id] >=quantity, \"you do not have enough tickets\") */\n      tag_83\n      jumpi\n      mload(0x40)\n      0x08c379a000000000000000000000000000000000000000000000000000000000\n      dup2\n      mstore\n      0x04\n      add\n      tag_84\n      swap1\n      tag_85\n      jump\t// in\n    tag_84:\n      mload(0x40)\n      dup1\n      swap2\n      sub\n      swap1\n      revert\n    tag_83:\n        /* \"MSE804-Blockchain/3_Ballot.sol\":1663:1671  quantity */\n      dup2\n        /* \"MSE804-Blockchain/3_Ballot.sol\":1636:1643  tickets */\n      0x01\n        /* \"MSE804-Blockchain/3_Ballot.sol\":1636:1655  tickets[msg.sender] */\n      0x00\n        /* \"MSE804-Blockchain/3_Ballot.sol\":1644:1654  msg.sender */\n      caller\n        /* \"MSE804-Blockchain/3_Ballot.sol\":1636:1655  tickets[msg.sender] */\n      0xffffffffffffffffffffffffffffffffffffffff\n      and\n      0xffffffffffffffffffffffffffffffffffffffff\n      and\n      dup2\n      mstore\n      0x20\n      add\n      swap1\n      dup2\n      mstore\n      0x20\n      add\n      0x00\n      keccak256\n        /* \"MSE804-Blockchain/3_Ballot.sol\":1636:1660  tickets[msg.sender] [id] */\n      0x00\n        /* \"MSE804-Blockchain/3_Ballot.sol\":1657:1659  id */\n      dup6\n        /* \"MSE804-Blockchain/3_Ballot.sol\":1636:1660  tickets[msg.sender] [id] */\n      dup2\n      mstore\n      0x20\n      add\n      swap1\n      dup2\n      mstore\n      0x20\n      add\n      0x00\n      keccak256\n      0x00\n        /* \"MSE804-Blockchain/3_Ballot.sol\":1636:1671  tickets[msg.sender] [id] -=quantity */\n      dup3\n      dup3\n      sload\n      tag_86\n      swap2\n      swap1\n      tag_73\n      jump\t// in\n    tag_86:\n      swap3\n      pop\n      pop\n      dup2\n      swap1\n      sstore\n      pop\n        /* \"MSE804-Blockchain/3_Ballot.sol\":1700:1708  quantity */\n      dup2\n        /* \"MSE804-Blockchain/3_Ballot.sol\":1682:1689  tickets */\n      0x01\n        /* \"MSE804-Blockchain/3_Ballot.sol\":1682:1693  tickets[to] */\n      0x00\n        /* \"MSE804-Blockchain/3_Ballot.sol\":1690:1692  to */\n      dup4\n        /* \"MSE804-Blockchain/3_Ballot.sol\":1682:1693  tickets[to] */\n      0xffffffffffffffffffffffffffffffffffffffff\n      and\n      0xffffffffffffffffffffffffffffffffffffffff\n      and\n      dup2\n      mstore\n      0x20\n      add\n      swap1\n      dup2\n      mstore\n      0x20\n      add\n      0x00\n      keccak256\n        /* \"MSE804-Blockchain/3_Ballot.sol\":1682:1697  tickets[to][id] */\n      0x00\n        /* \"MSE804-Blockchain/3_Ballot.sol\":1694:1696  id */\n      dup6\n        /* \"MSE804-Blockchain/3_Ballot.sol\":1682:1697  tickets[to][id] */\n      dup2\n      mstore\n      0x20\n      add\n      swap1\n      dup2\n      mstore\n      0x20\n      add\n      0x00\n      keccak256\n      0x00\n        /* \"MSE804-Blockchain/3_Ballot.sol\":1682:1708  tickets[to][id] +=quantity */\n      dup3\n      dup3\n      sload\n      tag_87\n      swap2\n      swap1\n      tag_75\n      jump\t// in\n    tag_87:\n      swap3\n      pop\n      pop\n      dup2\n      swap1\n      sstore\n      pop\n        /* \"MSE804-Blockchain/3_Ballot.sol\":1326:1716  function transferTicket(uint id, uint quantity, address to) external {... */\n      pop\n      pop\n      pop\n      jump\t// out\n        /* \"#utility.yul\":7:82   */\n    tag_88:\n        /* \"#utility.yul\":40:46   */\n      0x00\n        /* \"#utility.yul\":73:75   */\n      0x40\n        /* \"#utility.yul\":67:76   */\n      mload\n        /* \"#utility.yul\":57:76   */\n      swap1\n      pop\n        /* \"#utility.yul\":7:82   */\n      swap1\n      jump\t// out\n        /* \"#utility.yul\":88:205   */\n    tag_89:\n        /* \"#utility.yul\":197:198   */\n      0x00\n        /* \"#utility.yul\":194:195   */\n      dup1\n        /* \"#utility.yul\":187:199   */\n      revert\n        /* \"#utility.yul\":211:328   */\n    tag_90:\n        /* \"#utility.yul\":320:321   */\n      0x00\n        /* \"#utility.yul\":317:318   */\n      dup1\n        /* \"#utility.yul\":310:322   */\n      revert\n        /* \"#utility.yul\":334:451   */\n    tag_91:\n        /* \"#utility.yul\":443:444   */\n      0x00\n        /* \"#utility.yul\":440:441   */\n      dup1\n        /* \"#utility.yul\":433:445   */\n      revert\n        /* \"#utility.yul\":457:574   */\n    tag_92:\n        /* \"#utility.yul\":566:567   */\n      0x00\n        /* \"#utility.yul\":563:564   */\n      dup1\n        /* \"#utility.yul\":556:568   */\n      revert\n        /* \"#utility.yul\":580:682   */\n    tag_93:\n        /* \"#utility.yul\":621:627   */\n      0x00\n        /* \"#utility.yul\":672:674   */\n      0x1f\n        /* \"#utility.yul\":668:675   */\n      not\n        /* \"#utility.yul\":663:665   */\n      0x1f\n        /* \"#utility.yul\":656:661   */\n      dup4\n        /* \"#utility.yul\":652:666   */\n      add\n        /* \"#utility.yul\":648:676   */\n      and\n        /* \"#utility.yul\":638:676   */\n      swap1\n      pop\n        /* \"#utility.yul\":580:682   */\n      swap2\n      swap1\n      pop\n      jump\t// out\n        /* \"#utility.yul\":688:868   */\n    tag_94:\n        /* \"#utility.yul\":736:813   */\n      0x4e487b7100000000000000000000000000000000000000000000000000000000\n        /* \"#utility.yul\":733:734   */\n      0x00\n        /* \"#utility.yul\":726:814   */\n      mstore\n        /* \"#utility.yul\":833:837   */\n      0x41\n        /* \"#utility.yul\":830:831   */\n      0x04\n        /* \"#utility.yul\":823:838   */\n      mstore\n        /* \"#utility.yul\":857:861   */\n      0x24\n        /* \"#utility.yul\":854:855   */\n      0x00\n        /* \"#utility.yul\":847:862   */\n      revert\n        /* \"#utility.yul\":874:1155   */\n    tag_95:\n        /* \"#utility.yul\":957:984   */\n      tag_158\n        /* \"#utility.yul\":979:983   */\n      dup3\n        /* \"#utility.yul\":957:984   */\n      tag_93\n      jump\t// in\n    tag_158:\n        /* \"#utility.yul\":949:955   */\n      dup2\n        /* \"#utility.yul\":945:985   */\n      add\n        /* \"#utility.yul\":1087:1093   */\n      dup2\n        /* \"#utility.yul\":1075:1085   */\n      dup2\n        /* \"#utility.yul\":1072:1094   */\n      lt\n        /* \"#utility.yul\":1051:1069   */\n      0xffffffffffffffff\n        /* \"#utility.yul\":1039:1049   */\n      dup3\n        /* \"#utility.yul\":1036:1070   */\n      gt\n        /* \"#utility.yul\":1033:1095   */\n      or\n        /* \"#utility.yul\":1030:1118   */\n      iszero\n      tag_159\n      jumpi\n        /* \"#utility.yul\":1098:1116   */\n      tag_160\n      tag_94\n      jump\t// in\n    tag_160:\n        /* \"#utility.yul\":1030:1118   */\n    tag_159:\n        /* \"#utility.yul\":1138:1148   */\n      dup1\n        /* \"#utility.yul\":1134:1136   */\n      0x40\n        /* \"#utility.yul\":1127:1149   */\n      mstore\n        /* \"#utility.yul\":917:1155   */\n      pop\n        /* \"#utility.yul\":874:1155   */\n      pop\n      pop\n      jump\t// out\n        /* \"#utility.yul\":1161:1290   */\n    tag_96:\n        /* \"#utility.yul\":1195:1201   */\n      0x00\n        /* \"#utility.yul\":1222:1242   */\n      tag_162\n      tag_88\n      jump\t// in\n    tag_162:\n        /* \"#utility.yul\":1212:1242   */\n      swap1\n      pop\n        /* \"#utility.yul\":1251:1284   */\n      tag_163\n        /* \"#utility.yul\":1279:1283   */\n      dup3\n        /* \"#utility.yul\":1271:1277   */\n      dup3\n        /* \"#utility.yul\":1251:1284   */\n      tag_95\n      jump\t// in\n    tag_163:\n        /* \"#utility.yul\":1161:1290   */\n      swap2\n      swap1\n      pop\n      jump\t// out\n        /* \"#utility.yul\":1296:1604   */\n    tag_97:\n        /* \"#utility.yul\":1358:1362   */\n      0x00\n        /* \"#utility.yul\":1448:1466   */\n      0xffffffffffffffff\n        /* \"#utility.yul\":1440:1446   */\n      dup3\n        /* \"#utility.yul\":1437:1467   */\n      gt\n        /* \"#utility.yul\":1434:1490   */\n      iszero\n      tag_165\n      jumpi\n        /* \"#utility.yul\":1470:1488   */\n      tag_166\n      tag_94\n      jump\t// in\n    tag_166:\n        /* \"#utility.yul\":1434:1490   */\n    tag_165:\n        /* \"#utility.yul\":1508:1537   */\n      tag_167\n        /* \"#utility.yul\":1530:1536   */\n      dup3\n        /* \"#utility.yul\":1508:1537   */\n      tag_93\n      jump\t// in\n    tag_167:\n        /* \"#utility.yul\":1500:1537   */\n      swap1\n      pop\n        /* \"#utility.yul\":1592:1596   */\n      0x20\n        /* \"#utility.yul\":1586:1590   */\n      dup2\n        /* \"#utility.yul\":1582:1597   */\n      add\n        /* \"#utility.yul\":1574:1597   */\n      swap1\n      pop\n        /* \"#utility.yul\":1296:1604   */\n      swap2\n      swap1\n      pop\n      jump\t// out\n        /* \"#utility.yul\":1610:1758   */\n    tag_98:\n        /* \"#utility.yul\":1708:1714   */\n      dup3\n        /* \"#utility.yul\":1703:1706   */\n      dup2\n        /* \"#utility.yul\":1698:1701   */\n      dup4\n        /* \"#utility.yul\":1685:1715   */\n      calldatacopy\n        /* \"#utility.yul\":1749:1750   */\n      0x00\n        /* \"#utility.yul\":1740:1746   */\n      dup4\n        /* \"#utility.yul\":1735:1738   */\n      dup4\n        /* \"#utility.yul\":1731:1747   */\n      add\n        /* \"#utility.yul\":1724:1751   */\n      mstore\n        /* \"#utility.yul\":1610:1758   */\n      pop\n      pop\n      pop\n      jump\t// out\n        /* \"#utility.yul\":1764:2189   */\n    tag_99:\n        /* \"#utility.yul\":1842:1847   */\n      0x00\n        /* \"#utility.yul\":1867:1933   */\n      tag_170\n        /* \"#utility.yul\":1883:1932   */\n      tag_171\n        /* \"#utility.yul\":1925:1931   */\n      dup5\n        /* \"#utility.yul\":1883:1932   */\n      tag_97\n      jump\t// in\n    tag_171:\n        /* \"#utility.yul\":1867:1933   */\n      tag_96\n      jump\t// in\n    tag_170:\n        /* \"#utility.yul\":1858:1933   */\n      swap1\n      pop\n        /* \"#utility.yul\":1956:1962   */\n      dup3\n        /* \"#utility.yul\":1949:1954   */\n      dup2\n        /* \"#utility.yul\":1942:1963   */\n      mstore\n        /* \"#utility.yul\":1994:1998   */\n      0x20\n        /* \"#utility.yul\":1987:1992   */\n      dup2\n        /* \"#utility.yul\":1983:1999   */\n      add\n        /* \"#utility.yul\":2032:2035   */\n      dup5\n        /* \"#utility.yul\":2023:2029   */\n      dup5\n        /* \"#utility.yul\":2018:2021   */\n      dup5\n        /* \"#utility.yul\":2014:2030   */\n      add\n        /* \"#utility.yul\":2011:2036   */\n      gt\n        /* \"#utility.yul\":2008:2120   */\n      iszero\n      tag_172\n      jumpi\n        /* \"#utility.yul\":2039:2118   */\n      tag_173\n      tag_92\n      jump\t// in\n    tag_173:\n        /* \"#utility.yul\":2008:2120   */\n    tag_172:\n        /* \"#utility.yul\":2129:2183   */\n      tag_174\n        /* \"#utility.yul\":2176:2182   */\n      dup5\n        /* \"#utility.yul\":2171:2174   */\n      dup3\n        /* \"#utility.yul\":2166:2169   */\n      dup6\n        /* \"#utility.yul\":2129:2183   */\n      tag_98\n      jump\t// in\n    tag_174:\n        /* \"#utility.yul\":1848:2189   */\n      pop\n        /* \"#utility.yul\":1764:2189   */\n      swap4\n      swap3\n      pop\n      pop\n      pop\n      jump\t// out\n        /* \"#utility.yul\":2209:2549   */\n    tag_100:\n        /* \"#utility.yul\":2265:2270   */\n      0x00\n        /* \"#utility.yul\":2314:2317   */\n      dup3\n        /* \"#utility.yul\":2307:2311   */\n      0x1f\n        /* \"#utility.yul\":2299:2305   */\n      dup4\n        /* \"#utility.yul\":2295:2312   */\n      add\n        /* \"#utility.yul\":2291:2318   */\n      slt\n        /* \"#utility.yul\":2281:2403   */\n      tag_176\n      jumpi\n        /* \"#utility.yul\":2322:2401   */\n      tag_177\n      tag_91\n      jump\t// in\n    tag_177:\n        /* \"#utility.yul\":2281:2403   */\n    tag_176:\n        /* \"#utility.yul\":2439:2445   */\n      dup2\n        /* \"#utility.yul\":2426:2446   */\n      calldataload\n        /* \"#utility.yul\":2464:2543   */\n      tag_178\n        /* \"#utility.yul\":2539:2542   */\n      dup5\n        /* \"#utility.yul\":2531:2537   */\n      dup3\n        /* \"#utility.yul\":2524:2528   */\n      0x20\n        /* \"#utility.yul\":2516:2522   */\n      dup7\n        /* \"#utility.yul\":2512:2529   */\n      add\n        /* \"#utility.yul\":2464:2543   */\n      tag_99\n      jump\t// in\n    tag_178:\n        /* \"#utility.yul\":2455:2543   */\n      swap2\n      pop\n        /* \"#utility.yul\":2271:2549   */\n      pop\n        /* \"#utility.yul\":2209:2549   */\n      swap3\n      swap2\n      pop\n      pop\n      jump\t// out\n        /* \"#utility.yul\":2555:2632   */\n    tag_101:\n        /* \"#utility.yul\":2592:2599   */\n      0x00\n        /* \"#utility.yul\":2621:2626   */\n      dup2\n        /* \"#utility.yul\":2610:2626   */\n      swap1\n      pop\n        /* \"#utility.yul\":2555:2632   */\n      swap2\n      swap1\n      pop\n      jump\t// out\n        /* \"#utility.yul\":2638:2760   */\n    tag_102:\n        /* \"#utility.yul\":2711:2735   */\n      tag_181\n        /* \"#utility.yul\":2729:2734   */\n      dup2\n        /* \"#utility.yul\":2711:2735   */\n      tag_101\n      jump\t// in\n    tag_181:\n        /* \"#utility.yul\":2704:2709   */\n      dup2\n        /* \"#utility.yul\":2701:2736   */\n      eq\n        /* \"#utility.yul\":2691:2754   */\n      tag_182\n      jumpi\n        /* \"#utility.yul\":2750:2751   */\n      0x00\n        /* \"#utility.yul\":2747:2748   */\n      dup1\n        /* \"#utility.yul\":2740:2752   */\n      revert\n        /* \"#utility.yul\":2691:2754   */\n    tag_182:\n        /* \"#utility.yul\":2638:2760   */\n      pop\n      jump\t// out\n        /* \"#utility.yul\":2766:2905   */\n    tag_103:\n        /* \"#utility.yul\":2812:2817   */\n      0x00\n        /* \"#utility.yul\":2850:2856   */\n      dup2\n        /* \"#utility.yul\":2837:2857   */\n      calldataload\n        /* \"#utility.yul\":2828:2857   */\n      swap1\n      pop\n        /* \"#utility.yul\":2866:2899   */\n      tag_184\n        /* \"#utility.yul\":2893:2898   */\n      dup2\n        /* \"#utility.yul\":2866:2899   */\n      tag_102\n      jump\t// in\n    tag_184:\n        /* \"#utility.yul\":2766:2905   */\n      swap3\n      swap2\n      pop\n      pop\n      jump\t// out\n        /* \"#utility.yul\":2911:3856   */\n    tag_11:\n        /* \"#utility.yul\":3007:3013   */\n      0x00\n        /* \"#utility.yul\":3015:3021   */\n      dup1\n        /* \"#utility.yul\":3023:3029   */\n      0x00\n        /* \"#utility.yul\":3031:3037   */\n      dup1\n        /* \"#utility.yul\":3080:3083   */\n      0x80\n        /* \"#utility.yul\":3068:3077   */\n      dup6\n        /* \"#utility.yul\":3059:3066   */\n      dup8\n        /* \"#utility.yul\":3055:3078   */\n      sub\n        /* \"#utility.yul\":3051:3084   */\n      slt\n        /* \"#utility.yul\":3048:3168   */\n      iszero\n      tag_186\n      jumpi\n        /* \"#utility.yul\":3087:3166   */\n      tag_187\n      tag_89\n      jump\t// in\n    tag_187:\n        /* \"#utility.yul\":3048:3168   */\n    tag_186:\n        /* \"#utility.yul\":3235:3236   */\n      0x00\n        /* \"#utility.yul\":3224:3233   */\n      dup6\n        /* \"#utility.yul\":3220:3237   */\n      add\n        /* \"#utility.yul\":3207:3238   */\n      calldataload\n        /* \"#utility.yul\":3265:3283   */\n      0xffffffffffffffff\n        /* \"#utility.yul\":3257:3263   */\n      dup2\n        /* \"#utility.yul\":3254:3284   */\n      gt\n        /* \"#utility.yul\":3251:3368   */\n      iszero\n      tag_188\n      jumpi\n        /* \"#utility.yul\":3287:3366   */\n      tag_189\n      tag_90\n      jump\t// in\n    tag_189:\n        /* \"#utility.yul\":3251:3368   */\n    tag_188:\n        /* \"#utility.yul\":3392:3455   */\n      tag_190\n        /* \"#utility.yul\":3447:3454   */\n      dup8\n        /* \"#utility.yul\":3438:3444   */\n      dup3\n        /* \"#utility.yul\":3427:3436   */\n      dup9\n        /* \"#utility.yul\":3423:3445   */\n      add\n        /* \"#utility.yul\":3392:3455   */\n      tag_100\n      jump\t// in\n    tag_190:\n        /* \"#utility.yul\":3382:3455   */\n      swap5\n      pop\n        /* \"#utility.yul\":3178:3465   */\n      pop\n        /* \"#utility.yul\":3504:3506   */\n      0x20\n        /* \"#utility.yul\":3530:3583   */\n      tag_191\n        /* \"#utility.yul\":3575:3582   */\n      dup8\n        /* \"#utility.yul\":3566:3572   */\n      dup3\n        /* \"#utility.yul\":3555:3564   */\n      dup9\n        /* \"#utility.yul\":3551:3573   */\n      add\n        /* \"#utility.yul\":3530:3583   */\n      tag_103\n      jump\t// in\n    tag_191:\n        /* \"#utility.yul\":3520:3583   */\n      swap4\n      pop\n        /* \"#utility.yul\":3475:3593   */\n      pop\n        /* \"#utility.yul\":3632:3634   */\n      0x40\n        /* \"#utility.yul\":3658:3711   */\n      tag_192\n        /* \"#utility.yul\":3703:3710   */\n      dup8\n        /* \"#utility.yul\":3694:3700   */\n      dup3\n        /* \"#utility.yul\":3683:3692   */\n      dup9\n        /* \"#utility.yul\":3679:3701   */\n      add\n        /* \"#utility.yul\":3658:3711   */\n      tag_103\n      jump\t// in\n    tag_192:\n        /* \"#utility.yul\":3648:3711   */\n      swap3\n      pop\n        /* \"#utility.yul\":3603:3721   */\n      pop\n        /* \"#utility.yul\":3760:3762   */\n      0x60\n        /* \"#utility.yul\":3786:3839   */\n      tag_193\n        /* \"#utility.yul\":3831:3838   */\n      dup8\n        /* \"#utility.yul\":3822:3828   */\n      dup3\n        /* \"#utility.yul\":3811:3820   */\n      dup9\n        /* \"#utility.yul\":3807:3829   */\n      add\n        /* \"#utility.yul\":3786:3839   */\n      tag_103\n      jump\t// in\n    tag_193:\n        /* \"#utility.yul\":3776:3839   */\n      swap2\n      pop\n        /* \"#utility.yul\":3731:3849   */\n      pop\n        /* \"#utility.yul\":2911:3856   */\n      swap3\n      swap6\n      swap2\n      swap5\n      pop\n      swap3\n      pop\n      jump\t// out\n        /* \"#utility.yul\":3862:4191   */\n    tag_16:\n        /* \"#utility.yul\":3921:3927   */\n      0x00\n        /* \"#utility.yul\":3970:3972   */\n      0x20\n        /* \"#utility.yul\":3958:3967   */\n      dup3\n        /* \"#utility.yul\":3949:3956   */\n      dup5\n        /* \"#utility.yul\":3945:3968   */\n      sub\n        /* \"#utility.yul\":3941:3973   */\n      slt\n        /* \"#utility.yul\":3938:4057   */\n      iszero\n      tag_195\n      jumpi\n        /* \"#utility.yul\":3976:4055   */\n      tag_196\n      tag_89\n      jump\t// in\n    tag_196:\n        /* \"#utility.yul\":3938:4057   */\n    tag_195:\n        /* \"#utility.yul\":4096:4097   */\n      0x00\n        /* \"#utility.yul\":4121:4174   */\n      tag_197\n        /* \"#utility.yul\":4166:4173   */\n      dup5\n        /* \"#utility.yul\":4157:4163   */\n      dup3\n        /* \"#utility.yul\":4146:4155   */\n      dup6\n        /* \"#utility.yul\":4142:4164   */\n      add\n        /* \"#utility.yul\":4121:4174   */\n      tag_103\n      jump\t// in\n    tag_197:\n        /* \"#utility.yul\":4111:4174   */\n      swap2\n      pop\n        /* \"#utility.yul\":4067:4184   */\n      pop\n        /* \"#utility.yul\":3862:4191   */\n      swap3\n      swap2\n      pop\n      pop\n      jump\t// out\n        /* \"#utility.yul\":4197:4323   */\n    tag_104:\n        /* \"#utility.yul\":4234:4241   */\n      0x00\n        /* \"#utility.yul\":4274:4316   */\n      0xffffffffffffffffffffffffffffffffffffffff\n        /* \"#utility.yul\":4267:4272   */\n      dup3\n        /* \"#utility.yul\":4263:4317   */\n      and\n        /* \"#utility.yul\":4252:4317   */\n      swap1\n      pop\n        /* \"#utility.yul\":4197:4323   */\n      swap2\n      swap1\n      pop\n      jump\t// out\n        /* \"#utility.yul\":4329:4425   */\n    tag_105:\n        /* \"#utility.yul\":4366:4373   */\n      0x00\n        /* \"#utility.yul\":4395:4419   */\n      tag_200\n        /* \"#utility.yul\":4413:4418   */\n      dup3\n        /* \"#utility.yul\":4395:4419   */\n      tag_104\n      jump\t// in\n    tag_200:\n        /* \"#utility.yul\":4384:4419   */\n      swap1\n      pop\n        /* \"#utility.yul\":4329:4425   */\n      swap2\n      swap1\n      pop\n      jump\t// out\n        /* \"#utility.yul\":4431:4549   */\n    tag_106:\n        /* \"#utility.yul\":4518:4542   */\n      tag_202\n        /* \"#utility.yul\":4536:4541   */\n      dup2\n        /* \"#utility.yul\":4518:4542   */\n      tag_105\n      jump\t// in\n    tag_202:\n        /* \"#utility.yul\":4513:4516   */\n      dup3\n        /* \"#utility.yul\":4506:4543   */\n      mstore\n        /* \"#utility.yul\":4431:4549   */\n      pop\n      pop\n      jump\t// out\n        /* \"#utility.yul\":4555:4654   */\n    tag_107:\n        /* \"#utility.yul\":4607:4613   */\n      0x00\n        /* \"#utility.yul\":4641:4646   */\n      dup2\n        /* \"#utility.yul\":4635:4647   */\n      mload\n        /* \"#utility.yul\":4625:4647   */\n      swap1\n      pop\n        /* \"#utility.yul\":4555:4654   */\n      swap2\n      swap1\n      pop\n      jump\t// out\n        /* \"#utility.yul\":4660:4829   */\n    tag_108:\n        /* \"#utility.yul\":4744:4755   */\n      0x00\n        /* \"#utility.yul\":4778:4784   */\n      dup3\n        /* \"#utility.yul\":4773:4776   */\n      dup3\n        /* \"#utility.yul\":4766:4785   */\n      mstore\n        /* \"#utility.yul\":4818:4822   */\n      0x20\n        /* \"#utility.yul\":4813:4816   */\n      dup3\n        /* \"#utility.yul\":4809:4823   */\n      add\n        /* \"#utility.yul\":4794:4823   */\n      swap1\n      pop\n        /* \"#utility.yul\":4660:4829   */\n      swap3\n      swap2\n      pop\n      pop\n      jump\t// out\n        /* \"#utility.yul\":4835:4974   */\n    tag_109:\n        /* \"#utility.yul\":4924:4930   */\n      dup3\n        /* \"#utility.yul\":4919:4922   */\n      dup2\n        /* \"#utility.yul\":4914:4917   */\n      dup4\n        /* \"#utility.yul\":4908:4931   */\n      mcopy\n        /* \"#utility.yul\":4965:4966   */\n      0x00\n        /* \"#utility.yul\":4956:4962   */\n      dup4\n        /* \"#utility.yul\":4951:4954   */\n      dup4\n        /* \"#utility.yul\":4947:4963   */\n      add\n        /* \"#utility.yul\":4940:4967   */\n      mstore\n        /* \"#utility.yul\":4835:4974   */\n      pop\n      pop\n      pop\n      jump\t// out\n        /* \"#utility.yul\":4980:5357   */\n    tag_110:\n        /* \"#utility.yul\":5068:5071   */\n      0x00\n        /* \"#utility.yul\":5096:5135   */\n      tag_207\n        /* \"#utility.yul\":5129:5134   */\n      dup3\n        /* \"#utility.yul\":5096:5135   */\n      tag_107\n      jump\t// in\n    tag_207:\n        /* \"#utility.yul\":5151:5222   */\n      tag_208\n        /* \"#utility.yul\":5215:5221   */\n      dup2\n        /* \"#utility.yul\":5210:5213   */\n      dup6\n        /* \"#utility.yul\":5151:5222   */\n      tag_108\n      jump\t// in\n    tag_208:\n        /* \"#utility.yul\":5144:5222   */\n      swap4\n      pop\n        /* \"#utility.yul\":5231:5296   */\n      tag_209\n        /* \"#utility.yul\":5289:5295   */\n      dup2\n        /* \"#utility.yul\":5284:5287   */\n      dup6\n        /* \"#utility.yul\":5277:5281   */\n      0x20\n        /* \"#utility.yul\":5270:5275   */\n      dup7\n        /* \"#utility.yul\":5266:5282   */\n      add\n        /* \"#utility.yul\":5231:5296   */\n      tag_109\n      jump\t// in\n    tag_209:\n        /* \"#utility.yul\":5321:5350   */\n      tag_210\n        /* \"#utility.yul\":5343:5349   */\n      dup2\n        /* \"#utility.yul\":5321:5350   */\n      tag_93\n      jump\t// in\n    tag_210:\n        /* \"#utility.yul\":5316:5319   */\n      dup5\n        /* \"#utility.yul\":5312:5351   */\n      add\n        /* \"#utility.yul\":5305:5351   */\n      swap2\n      pop\n        /* \"#utility.yul\":5072:5357   */\n      pop\n        /* \"#utility.yul\":4980:5357   */\n      swap3\n      swap2\n      pop\n      pop\n      jump\t// out\n        /* \"#utility.yul\":5363:5481   */\n    tag_111:\n        /* \"#utility.yul\":5450:5474   */\n      tag_212\n        /* \"#utility.yul\":5468:5473   */\n      dup2\n        /* \"#utility.yul\":5450:5474   */\n      tag_101\n      jump\t// in\n    tag_212:\n        /* \"#utility.yul\":5445:5448   */\n      dup3\n        /* \"#utility.yul\":5438:5475   */\n      mstore\n        /* \"#utility.yul\":5363:5481   */\n      pop\n      pop\n      jump\t// out\n        /* \"#utility.yul\":5487:6353   */\n    tag_19:\n        /* \"#utility.yul\":5740:5744   */\n      0x00\n        /* \"#utility.yul\":5778:5781   */\n      0xc0\n        /* \"#utility.yul\":5767:5776   */\n      dup3\n        /* \"#utility.yul\":5763:5782   */\n      add\n        /* \"#utility.yul\":5755:5782   */\n      swap1\n      pop\n        /* \"#utility.yul\":5792:5863   */\n      tag_214\n        /* \"#utility.yul\":5860:5861   */\n      0x00\n        /* \"#utility.yul\":5849:5858   */\n      dup4\n        /* \"#utility.yul\":5845:5862   */\n      add\n        /* \"#utility.yul\":5836:5842   */\n      dup10\n        /* \"#utility.yul\":5792:5863   */\n      tag_106\n      jump\t// in\n    tag_214:\n        /* \"#utility.yul\":5910:5919   */\n      dup2\n        /* \"#utility.yul\":5904:5908   */\n      dup2\n        /* \"#utility.yul\":5900:5920   */\n      sub\n        /* \"#utility.yul\":5895:5897   */\n      0x20\n        /* \"#utility.yul\":5884:5893   */\n      dup4\n        /* \"#utility.yul\":5880:5898   */\n      add\n        /* \"#utility.yul\":5873:5921   */\n      mstore\n        /* \"#utility.yul\":5938:6016   */\n      tag_215\n        /* \"#utility.yul\":6011:6015   */\n      dup2\n        /* \"#utility.yul\":6002:6008   */\n      dup9\n        /* \"#utility.yul\":5938:6016   */\n      tag_110\n      jump\t// in\n    tag_215:\n        /* \"#utility.yul\":5930:6016   */\n      swap1\n      pop\n        /* \"#utility.yul\":6026:6098   */\n      tag_216\n        /* \"#utility.yul\":6094:6096   */\n      0x40\n        /* \"#utility.yul\":6083:6092   */\n      dup4\n        /* \"#utility.yul\":6079:6097   */\n      add\n        /* \"#utility.yul\":6070:6076   */\n      dup8\n        /* \"#utility.yul\":6026:6098   */\n      tag_111\n      jump\t// in\n    tag_216:\n        /* \"#utility.yul\":6108:6180   */\n      tag_217\n        /* \"#utility.yul\":6176:6178   */\n      0x60\n        /* \"#utility.yul\":6165:6174   */\n      dup4\n        /* \"#utility.yul\":6161:6179   */\n      add\n        /* \"#utility.yul\":6152:6158   */\n      dup7\n        /* \"#utility.yul\":6108:6180   */\n      tag_111\n      jump\t// in\n    tag_217:\n        /* \"#utility.yul\":6190:6263   */\n      tag_218\n        /* \"#utility.yul\":6258:6261   */\n      0x80\n        /* \"#utility.yul\":6247:6256   */\n      dup4\n        /* \"#utility.yul\":6243:6262   */\n      add\n        /* \"#utility.yul\":6234:6240   */\n      dup6\n        /* \"#utility.yul\":6190:6263   */\n      tag_111\n      jump\t// in\n    tag_218:\n        /* \"#utility.yul\":6273:6346   */\n      tag_219\n        /* \"#utility.yul\":6341:6344   */\n      0xa0\n        /* \"#utility.yul\":6330:6339   */\n      dup4\n        /* \"#utility.yul\":6326:6345   */\n      add\n        /* \"#utility.yul\":6317:6323   */\n      dup5\n        /* \"#utility.yul\":6273:6346   */\n      tag_111\n      jump\t// in\n    tag_219:\n        /* \"#utility.yul\":5487:6353   */\n      swap8\n      swap7\n      pop\n      pop\n      pop\n      pop\n      pop\n      pop\n      pop\n      jump\t// out\n        /* \"#utility.yul\":6359:6581   */\n    tag_24:\n        /* \"#utility.yul\":6452:6456   */\n      0x00\n        /* \"#utility.yul\":6490:6492   */\n      0x20\n        /* \"#utility.yul\":6479:6488   */\n      dup3\n        /* \"#utility.yul\":6475:6493   */\n      add\n        /* \"#utility.yul\":6467:6493   */\n      swap1\n      pop\n        /* \"#utility.yul\":6503:6574   */\n      tag_221\n        /* \"#utility.yul\":6571:6572   */\n      0x00\n        /* \"#utility.yul\":6560:6569   */\n      dup4\n        /* \"#utility.yul\":6556:6573   */\n      add\n        /* \"#utility.yul\":6547:6553   */\n      dup5\n        /* \"#utility.yul\":6503:6574   */\n      tag_111\n      jump\t// in\n    tag_221:\n        /* \"#utility.yul\":6359:6581   */\n      swap3\n      swap2\n      pop\n      pop\n      jump\t// out\n        /* \"#utility.yul\":6587:6709   */\n    tag_112:\n        /* \"#utility.yul\":6660:6684   */\n      tag_223\n        /* \"#utility.yul\":6678:6683   */\n      dup2\n        /* \"#utility.yul\":6660:6684   */\n      tag_105\n      jump\t// in\n    tag_223:\n        /* \"#utility.yul\":6653:6658   */\n      dup2\n        /* \"#utility.yul\":6650:6685   */\n      eq\n        /* \"#utility.yul\":6640:6703   */\n      tag_224\n      jumpi\n        /* \"#utility.yul\":6699:6700   */\n      0x00\n        /* \"#utility.yul\":6696:6697   */\n      dup1\n        /* \"#utility.yul\":6689:6701   */\n      revert\n        /* \"#utility.yul\":6640:6703   */\n    tag_224:\n        /* \"#utility.yul\":6587:6709   */\n      pop\n      jump\t// out\n        /* \"#utility.yul\":6715:6854   */\n    tag_113:\n        /* \"#utility.yul\":6761:6766   */\n      0x00\n        /* \"#utility.yul\":6799:6805   */\n      dup2\n        /* \"#utility.yul\":6786:6806   */\n      calldataload\n        /* \"#utility.yul\":6777:6806   */\n      swap1\n      pop\n        /* \"#utility.yul\":6815:6848   */\n      tag_226\n        /* \"#utility.yul\":6842:6847   */\n      dup2\n        /* \"#utility.yul\":6815:6848   */\n      tag_112\n      jump\t// in\n    tag_226:\n        /* \"#utility.yul\":6715:6854   */\n      swap3\n      swap2\n      pop\n      pop\n      jump\t// out\n        /* \"#utility.yul\":6860:7334   */\n    tag_28:\n        /* \"#utility.yul\":6928:6934   */\n      0x00\n        /* \"#utility.yul\":6936:6942   */\n      dup1\n        /* \"#utility.yul\":6985:6987   */\n      0x40\n        /* \"#utility.yul\":6973:6982   */\n      dup4\n        /* \"#utility.yul\":6964:6971   */\n      dup6\n        /* \"#utility.yul\":6960:6983   */\n      sub\n        /* \"#utility.yul\":6956:6988   */\n      slt\n        /* \"#utility.yul\":6953:7072   */\n      iszero\n      tag_228\n      jumpi\n        /* \"#utility.yul\":6991:7070   */\n      tag_229\n      tag_89\n      jump\t// in\n    tag_229:\n        /* \"#utility.yul\":6953:7072   */\n    tag_228:\n        /* \"#utility.yul\":7111:7112   */\n      0x00\n        /* \"#utility.yul\":7136:7189   */\n      tag_230\n        /* \"#utility.yul\":7181:7188   */\n      dup6\n        /* \"#utility.yul\":7172:7178   */\n      dup3\n        /* \"#utility.yul\":7161:7170   */\n      dup7\n        /* \"#utility.yul\":7157:7179   */\n      add\n        /* \"#utility.yul\":7136:7189   */\n      tag_113\n      jump\t// in\n    tag_230:\n        /* \"#utility.yul\":7126:7189   */\n      swap3\n      pop\n        /* \"#utility.yul\":7082:7199   */\n      pop\n        /* \"#utility.yul\":7238:7240   */\n      0x20\n        /* \"#utility.yul\":7264:7317   */\n      tag_231\n        /* \"#utility.yul\":7309:7316   */\n      dup6\n        /* \"#utility.yul\":7300:7306   */\n      dup3\n        /* \"#utility.yul\":7289:7298   */\n      dup7\n        /* \"#utility.yul\":7285:7307   */\n      add\n        /* \"#utility.yul\":7264:7317   */\n      tag_103\n      jump\t// in\n    tag_231:\n        /* \"#utility.yul\":7254:7317   */\n      swap2\n      pop\n        /* \"#utility.yul\":7209:7327   */\n      pop\n        /* \"#utility.yul\":6860:7334   */\n      swap3\n      pop\n      swap3\n      swap1\n      pop\n      jump\t// out\n        /* \"#utility.yul\":7340:7814   */\n    tag_33:\n        /* \"#utility.yul\":7408:7414   */\n      0x00\n        /* \"#utility.yul\":7416:7422   */\n      dup1\n        /* \"#utility.yul\":7465:7467   */\n      0x40\n        /* \"#utility.yul\":7453:7462   */\n      dup4\n        /* \"#utility.yul\":7444:7451   */\n      dup6\n        /* \"#utility.yul\":7440:7463   */\n      sub\n        /* \"#utility.yul\":7436:7468   */\n      slt\n        /* \"#utility.yul\":7433:7552   */\n      iszero\n      tag_233\n      jumpi\n        /* \"#utility.yul\":7471:7550   */\n      tag_234\n      tag_89\n      jump\t// in\n    tag_234:\n        /* \"#utility.yul\":7433:7552   */\n    tag_233:\n        /* \"#utility.yul\":7591:7592   */\n      0x00\n        /* \"#utility.yul\":7616:7669   */\n      tag_235\n        /* \"#utility.yul\":7661:7668   */\n      dup6\n        /* \"#utility.yul\":7652:7658   */\n      dup3\n        /* \"#utility.yul\":7641:7650   */\n      dup7\n        /* \"#utility.yul\":7637:7659   */\n      add\n        /* \"#utility.yul\":7616:7669   */\n      tag_103\n      jump\t// in\n    tag_235:\n        /* \"#utility.yul\":7606:7669   */\n      swap3\n      pop\n        /* \"#utility.yul\":7562:7679   */\n      pop\n        /* \"#utility.yul\":7718:7720   */\n      0x20\n        /* \"#utility.yul\":7744:7797   */\n      tag_236\n        /* \"#utility.yul\":7789:7796   */\n      dup6\n        /* \"#utility.yul\":7780:7786   */\n      dup3\n        /* \"#utility.yul\":7769:7778   */\n      dup7\n        /* \"#utility.yul\":7765:7787   */\n      add\n        /* \"#utility.yul\":7744:7797   */\n      tag_103\n      jump\t// in\n    tag_236:\n        /* \"#utility.yul\":7734:7797   */\n      swap2\n      pop\n        /* \"#utility.yul\":7689:7807   */\n      pop\n        /* \"#utility.yul\":7340:7814   */\n      swap3\n      pop\n      swap3\n      swap1\n      pop\n      jump\t// out\n        /* \"#utility.yul\":7820:8439   */\n    tag_38:\n        /* \"#utility.yul\":7897:7903   */\n      0x00\n        /* \"#utility.yul\":7905:7911   */\n      dup1\n        /* \"#utility.yul\":7913:7919   */\n      0x00\n        /* \"#utility.yul\":7962:7964   */\n      0x60\n        /* \"#utility.yul\":7950:7959   */\n      dup5\n        /* \"#utility.yul\":7941:7948   */\n      dup7\n        /* \"#utility.yul\":7937:7960   */\n      sub\n        /* \"#utility.yul\":7933:7965   */\n      slt\n        /* \"#utility.yul\":7930:8049   */\n      iszero\n      tag_238\n      jumpi\n        /* \"#utility.yul\":7968:8047   */\n      tag_239\n      tag_89\n      jump\t// in\n    tag_239:\n        /* \"#utility.yul\":7930:8049   */\n    tag_238:\n        /* \"#utility.yul\":8088:8089   */\n      0x00\n        /* \"#utility.yul\":8113:8166   */\n      tag_240\n        /* \"#utility.yul\":8158:8165   */\n      dup7\n        /* \"#utility.yul\":8149:8155   */\n      dup3\n        /* \"#utility.yul\":8138:8147   */\n      dup8\n        /* \"#utility.yul\":8134:8156   */\n      add\n        /* \"#utility.yul\":8113:8166   */\n      tag_103\n      jump\t// in\n    tag_240:\n        /* \"#utility.yul\":8103:8166   */\n      swap4\n      pop\n        /* \"#utility.yul\":8059:8176   */\n      pop\n        /* \"#utility.yul\":8215:8217   */\n      0x20\n        /* \"#utility.yul\":8241:8294   */\n      tag_241\n        /* \"#utility.yul\":8286:8293   */\n      dup7\n        /* \"#utility.yul\":8277:8283   */\n      dup3\n        /* \"#utility.yul\":8266:8275   */\n      dup8\n        /* \"#utility.yul\":8262:8284   */\n      add\n        /* \"#utility.yul\":8241:8294   */\n      tag_103\n      jump\t// in\n    tag_241:\n        /* \"#utility.yul\":8231:8294   */\n      swap3\n      pop\n        /* \"#utility.yul\":8186:8304   */\n      pop\n        /* \"#utility.yul\":8343:8345   */\n      0x40\n        /* \"#utility.yul\":8369:8422   */\n      tag_242\n        /* \"#utility.yul\":8414:8421   */\n      dup7\n        /* \"#utility.yul\":8405:8411   */\n      dup3\n        /* \"#utility.yul\":8394:8403   */\n      dup8\n        /* \"#utility.yul\":8390:8412   */\n      add\n        /* \"#utility.yul\":8369:8422   */\n      tag_113\n      jump\t// in\n    tag_242:\n        /* \"#utility.yul\":8359:8422   */\n      swap2\n      pop\n        /* \"#utility.yul\":8314:8432   */\n      pop\n        /* \"#utility.yul\":7820:8439   */\n      swap3\n      pop\n      swap3\n      pop\n      swap3\n      jump\t// out\n        /* \"#utility.yul\":8445:8670   */\n    tag_114:\n        /* \"#utility.yul\":8585:8619   */\n      0x596f752063616e206f7267616e697a65206576656e7420666f72206675747572\n        /* \"#utility.yul\":8581:8582   */\n      0x00\n        /* \"#utility.yul\":8573:8579   */\n      dup3\n        /* \"#utility.yul\":8569:8583   */\n      add\n        /* \"#utility.yul\":8562:8620   */\n      mstore\n        /* \"#utility.yul\":8654:8662   */\n      0x6520646174650000000000000000000000000000000000000000000000000000\n        /* \"#utility.yul\":8649:8651   */\n      0x20\n        /* \"#utility.yul\":8641:8647   */\n      dup3\n        /* \"#utility.yul\":8637:8652   */\n      add\n        /* \"#utility.yul\":8630:8663   */\n      mstore\n        /* \"#utility.yul\":8445:8670   */\n      pop\n      jump\t// out\n        /* \"#utility.yul\":8676:9042   */\n    tag_115:\n        /* \"#utility.yul\":8818:8821   */\n      0x00\n        /* \"#utility.yul\":8839:8906   */\n      tag_245\n        /* \"#utility.yul\":8903:8905   */\n      0x26\n        /* \"#utility.yul\":8898:8901   */\n      dup4\n        /* \"#utility.yul\":8839:8906   */\n      tag_108\n      jump\t// in\n    tag_245:\n        /* \"#utility.yul\":8832:8906   */\n      swap2\n      pop\n        /* \"#utility.yul\":8915:9008   */\n      tag_246\n        /* \"#utility.yul\":9004:9007   */\n      dup3\n        /* \"#utility.yul\":8915:9008   */\n      tag_114\n      jump\t// in\n    tag_246:\n        /* \"#utility.yul\":9033:9035   */\n      0x40\n        /* \"#utility.yul\":9028:9031   */\n      dup3\n        /* \"#utility.yul\":9024:9036   */\n      add\n        /* \"#utility.yul\":9017:9036   */\n      swap1\n      pop\n        /* \"#utility.yul\":8676:9042   */\n      swap2\n      swap1\n      pop\n      jump\t// out\n        /* \"#utility.yul\":9048:9467   */\n    tag_43:\n        /* \"#utility.yul\":9214:9218   */\n      0x00\n        /* \"#utility.yul\":9252:9254   */\n      0x20\n        /* \"#utility.yul\":9241:9250   */\n      dup3\n        /* \"#utility.yul\":9237:9255   */\n      add\n        /* \"#utility.yul\":9229:9255   */\n      swap1\n      pop\n        /* \"#utility.yul\":9301:9310   */\n      dup2\n        /* \"#utility.yul\":9295:9299   */\n      dup2\n        /* \"#utility.yul\":9291:9311   */\n      sub\n        /* \"#utility.yul\":9287:9288   */\n      0x00\n        /* \"#utility.yul\":9276:9285   */\n      dup4\n        /* \"#utility.yul\":9272:9289   */\n      add\n        /* \"#utility.yul\":9265:9312   */\n      mstore\n        /* \"#utility.yul\":9329:9460   */\n      tag_248\n        /* \"#utility.yul\":9455:9459   */\n      dup2\n        /* \"#utility.yul\":9329:9460   */\n      tag_115\n      jump\t// in\n    tag_248:\n        /* \"#utility.yul\":9321:9460   */\n      swap1\n      pop\n        /* \"#utility.yul\":9048:9467   */\n      swap2\n      swap1\n      pop\n      jump\t// out\n        /* \"#utility.yul\":9473:9721   */\n    tag_116:\n        /* \"#utility.yul\":9613:9647   */\n      0x596f752063616e206f7267616e697365206576656e74206f6e6c792069662079\n        /* \"#utility.yul\":9609:9610   */\n      0x00\n        /* \"#utility.yul\":9601:9607   */\n      dup3\n        /* \"#utility.yul\":9597:9611   */\n      add\n        /* \"#utility.yul\":9590:9648   */\n      mstore\n        /* \"#utility.yul\":9682:9713   */\n      0x6f7520637265617465206d6f7265207468616e2030207469636b657473000000\n        /* \"#utility.yul\":9677:9679   */\n      0x20\n        /* \"#utility.yul\":9669:9675   */\n      dup3\n        /* \"#utility.yul\":9665:9680   */\n      add\n        /* \"#utility.yul\":9658:9714   */\n      mstore\n        /* \"#utility.yul\":9473:9721   */\n      pop\n      jump\t// out\n        /* \"#utility.yul\":9727:10093   */\n    tag_117:\n        /* \"#utility.yul\":9869:9872   */\n      0x00\n        /* \"#utility.yul\":9890:9957   */\n      tag_251\n        /* \"#utility.yul\":9954:9956   */\n      0x3d\n        /* \"#utility.yul\":9949:9952   */\n      dup4\n        /* \"#utility.yul\":9890:9957   */\n      tag_108\n      jump\t// in\n    tag_251:\n        /* \"#utility.yul\":9883:9957   */\n      swap2\n      pop\n        /* \"#utility.yul\":9966:10059   */\n      tag_252\n        /* \"#utility.yul\":10055:10058   */\n      dup3\n        /* \"#utility.yul\":9966:10059   */\n      tag_116\n      jump\t// in\n    tag_252:\n        /* \"#utility.yul\":10084:10086   */\n      0x40\n        /* \"#utility.yul\":10079:10082   */\n      dup3\n        /* \"#utility.yul\":10075:10087   */\n      add\n        /* \"#utility.yul\":10068:10087   */\n      swap1\n      pop\n        /* \"#utility.yul\":9727:10093   */\n      swap2\n      swap1\n      pop\n      jump\t// out\n        /* \"#utility.yul\":10099:10518   */\n    tag_46:\n        /* \"#utility.yul\":10265:10269   */\n      0x00\n        /* \"#utility.yul\":10303:10305   */\n      0x20\n        /* \"#utility.yul\":10292:10301   */\n      dup3\n        /* \"#utility.yul\":10288:10306   */\n      add\n        /* \"#utility.yul\":10280:10306   */\n      swap1\n      pop\n        /* \"#utility.yul\":10352:10361   */\n      dup2\n        /* \"#utility.yul\":10346:10350   */\n      dup2\n        /* \"#utility.yul\":10342:10362   */\n      sub\n        /* \"#utility.yul\":10338:10339   */\n      0x00\n        /* \"#utility.yul\":10327:10336   */\n      dup4\n        /* \"#utility.yul\":10323:10340   */\n      add\n        /* \"#utility.yul\":10316:10363   */\n      mstore\n        /* \"#utility.yul\":10380:10511   */\n      tag_254\n        /* \"#utility.yul\":10506:10510   */\n      dup2\n        /* \"#utility.yul\":10380:10511   */\n      tag_117\n      jump\t// in\n    tag_254:\n        /* \"#utility.yul\":10372:10511   */\n      swap1\n      pop\n        /* \"#utility.yul\":10099:10518   */\n      swap2\n      swap1\n      pop\n      jump\t// out\n        /* \"#utility.yul\":10524:10704   */\n    tag_118:\n        /* \"#utility.yul\":10572:10649   */\n      0x4e487b7100000000000000000000000000000000000000000000000000000000\n        /* \"#utility.yul\":10569:10570   */\n      0x00\n        /* \"#utility.yul\":10562:10650   */\n      mstore\n        /* \"#utility.yul\":10669:10673   */\n      0x22\n        /* \"#utility.yul\":10666:10667   */\n      0x04\n        /* \"#utility.yul\":10659:10674   */\n      mstore\n        /* \"#utility.yul\":10693:10697   */\n      0x24\n        /* \"#utility.yul\":10690:10691   */\n      0x00\n        /* \"#utility.yul\":10683:10698   */\n      revert\n        /* \"#utility.yul\":10710:11030   */\n    tag_52:\n        /* \"#utility.yul\":10754:10760   */\n      0x00\n        /* \"#utility.yul\":10791:10792   */\n      0x02\n        /* \"#utility.yul\":10785:10789   */\n      dup3\n        /* \"#utility.yul\":10781:10793   */\n      div\n        /* \"#utility.yul\":10771:10793   */\n      swap1\n      pop\n        /* \"#utility.yul\":10838:10839   */\n      0x01\n        /* \"#utility.yul\":10832:10836   */\n      dup3\n        /* \"#utility.yul\":10828:10840   */\n      and\n        /* \"#utility.yul\":10859:10877   */\n      dup1\n        /* \"#utility.yul\":10849:10930   */\n      tag_257\n      jumpi\n        /* \"#utility.yul\":10915:10919   */\n      0x7f\n        /* \"#utility.yul\":10907:10913   */\n      dup3\n        /* \"#utility.yul\":10903:10920   */\n      and\n        /* \"#utility.yul\":10893:10920   */\n      swap2\n      pop\n        /* \"#utility.yul\":10849:10930   */\n    tag_257:\n        /* \"#utility.yul\":10977:10979   */\n      0x20\n        /* \"#utility.yul\":10969:10975   */\n      dup3\n        /* \"#utility.yul\":10966:10980   */\n      lt\n        /* \"#utility.yul\":10946:10964   */\n      dup2\n        /* \"#utility.yul\":10943:10981   */\n      sub\n        /* \"#utility.yul\":10940:11024   */\n      tag_258\n      jumpi\n        /* \"#utility.yul\":10996:11014   */\n      tag_259\n      tag_118\n      jump\t// in\n    tag_259:\n        /* \"#utility.yul\":10940:11024   */\n    tag_258:\n        /* \"#utility.yul\":10761:11030   */\n      pop\n        /* \"#utility.yul\":10710:11030   */\n      swap2\n      swap1\n      pop\n      jump\t// out\n        /* \"#utility.yul\":11036:11177   */\n    tag_119:\n        /* \"#utility.yul\":11085:11089   */\n      0x00\n        /* \"#utility.yul\":11108:11111   */\n      dup2\n        /* \"#utility.yul\":11100:11111   */\n      swap1\n      pop\n        /* \"#utility.yul\":11131:11134   */\n      dup2\n        /* \"#utility.yul\":11128:11129   */\n      0x00\n        /* \"#utility.yul\":11121:11135   */\n      mstore\n        /* \"#utility.yul\":11165:11169   */\n      0x20\n        /* \"#utility.yul\":11162:11163   */\n      0x00\n        /* \"#utility.yul\":11152:11170   */\n      keccak256\n        /* \"#utility.yul\":11144:11170   */\n      swap1\n      pop\n        /* \"#utility.yul\":11036:11177   */\n      swap2\n      swap1\n      pop\n      jump\t// out\n        /* \"#utility.yul\":11183:11276   */\n    tag_120:\n        /* \"#utility.yul\":11220:11226   */\n      0x00\n        /* \"#utility.yul\":11267:11269   */\n      0x20\n        /* \"#utility.yul\":11262:11264   */\n      0x1f\n        /* \"#utility.yul\":11255:11260   */\n      dup4\n        /* \"#utility.yul\":11251:11265   */\n      add\n        /* \"#utility.yul\":11247:11270   */\n      div\n        /* \"#utility.yul\":11237:11270   */\n      swap1\n      pop\n        /* \"#utility.yul\":11183:11276   */\n      swap2\n      swap1\n      pop\n      jump\t// out\n        /* \"#utility.yul\":11282:11389   */\n    tag_121:\n        /* \"#utility.yul\":11326:11334   */\n      0x00\n        /* \"#utility.yul\":11376:11381   */\n      dup3\n        /* \"#utility.yul\":11370:11374   */\n      dup3\n        /* \"#utility.yul\":11366:11382   */\n      shl\n        /* \"#utility.yul\":11345:11382   */\n      swap1\n      pop\n        /* \"#utility.yul\":11282:11389   */\n      swap3\n      swap2\n      pop\n      pop\n      jump\t// out\n        /* \"#utility.yul\":11395:11788   */\n    tag_122:\n        /* \"#utility.yul\":11464:11470   */\n      0x00\n        /* \"#utility.yul\":11514:11515   */\n      0x08\n        /* \"#utility.yul\":11502:11512   */\n      dup4\n        /* \"#utility.yul\":11498:11516   */\n      mul\n        /* \"#utility.yul\":11537:11634   */\n      tag_264\n        /* \"#utility.yul\":11567:11633   */\n      0xffffffffffffffffffffffffffffffffffffffffffffffffffffffffffffffff\n        /* \"#utility.yul\":11556:11565   */\n      dup3\n        /* \"#utility.yul\":11537:11634   */\n      tag_121\n      jump\t// in\n    tag_264:\n        /* \"#utility.yul\":11655:11694   */\n      tag_265\n        /* \"#utility.yul\":11685:11693   */\n      dup7\n        /* \"#utility.yul\":11674:11683   */\n      dup4\n        /* \"#utility.yul\":11655:11694   */\n      tag_121\n      jump\t// in\n    tag_265:\n        /* \"#utility.yul\":11643:11694   */\n      swap6\n      pop\n        /* \"#utility.yul\":11727:11731   */\n      dup1\n        /* \"#utility.yul\":11723:11732   */\n      not\n        /* \"#utility.yul\":11716:11721   */\n      dup5\n        /* \"#utility.yul\":11712:11733   */\n      and\n        /* \"#utility.yul\":11703:11733   */\n      swap4\n      pop\n        /* \"#utility.yul\":11776:11780   */\n      dup1\n        /* \"#utility.yul\":11766:11774   */\n      dup7\n        /* \"#utility.yul\":11762:11781   */\n      and\n        /* \"#utility.yul\":11755:11760   */\n      dup5\n        /* \"#utility.yul\":11752:11782   */\n      or\n        /* \"#utility.yul\":11742:11782   */\n      swap3\n      pop\n        /* \"#utility.yul\":11471:11788   */\n      pop\n      pop\n        /* \"#utility.yul\":11395:11788   */\n      swap4\n      swap3\n      pop\n      pop\n      pop\n      jump\t// out\n        /* \"#utility.yul\":11794:11854   */\n    tag_123:\n        /* \"#utility.yul\":11822:11825   */\n      0x00\n        /* \"#utility.yul\":11843:11848   */\n      dup2\n        /* \"#utility.yul\":11836:11848   */\n      swap1\n      pop\n        /* \"#utility.yul\":11794:11854   */\n      swap2\n      swap1\n      pop\n      jump\t// out\n        /* \"#utility.yul\":11860:12002   */\n    tag_124:\n        /* \"#utility.yul\":11910:11919   */\n      0x00\n        /* \"#utility.yul\":11943:11996   */\n      tag_268\n        /* \"#utility.yul\":11961:11995   */\n      tag_269\n        /* \"#utility.yul\":11970:11994   */\n      tag_270\n        /* \"#utility.yul\":11988:11993   */\n      dup5\n        /* \"#utility.yul\":11970:11994   */\n      tag_101\n      jump\t// in\n    tag_270:\n        /* \"#utility.yul\":11961:11995   */\n      tag_123\n      jump\t// in\n    tag_269:\n        /* \"#utility.yul\":11943:11996   */\n      tag_101\n      jump\t// in\n    tag_268:\n        /* \"#utility.yul\":11930:11996   */\n      swap1\n      pop\n        /* \"#utility.yul\":11860:12002   */\n      swap2\n      swap1\n      pop\n      jump\t// out\n        /* \"#utility.yul\":12008:12083   */\n    tag_125:\n        /* \"#utility.yul\":12051:12054   */\n      0x00\n        /* \"#utility.yul\":12072:12077   */\n      dup2\n        /* \"#utility.yul\":12065:12077   */\n      swap1\n      pop\n        /* \"#utility.yul\":12008:12083   */\n      swap2\n      swap1\n      pop\n      jump\t// out\n        /* \"#utility.yul\":12089:12358   */\n    tag_126:\n        /* \"#utility.yul\":12199:12238   */\n      tag_273\n        /* \"#utility.yul\":12230:12237   */\n      dup4\n        /* \"#utility.yul\":12199:12238   */\n      tag_124\n      jump\t// in\n    tag_273:\n        /* \"#utility.yul\":12260:12351   */\n      tag_274\n        /* \"#utility.yul\":12309:12350   */\n      tag_275\n        /* \"#utility.yul\":12333:12349   */\n      dup3\n        /* \"#utility.yul\":12309:12350   */\n      tag_125\n      jump\t// in\n    tag_275:\n        /* \"#utility.yul\":12301:12307   */\n      dup5\n        /* \"#utility.yul\":12294:12298   */\n      dup5\n        /* \"#utility.yul\":12288:12299   */\n      sload\n        /* \"#utility.yul\":12260:12351   */\n      tag_122\n      jump\t// in\n    tag_274:\n        /* \"#utility.yul\":12254:12258   */\n      dup3\n        /* \"#utility.yul\":12247:12352   */\n      sstore\n        /* \"#utility.yul\":12165:12358   */\n      pop\n        /* \"#utility.yul\":12089:12358   */\n      pop\n      pop\n      pop\n      jump\t// out\n        /* \"#utility.yul\":12364:12437   */\n    tag_127:\n        /* \"#utility.yul\":12409:12412   */\n      0x00\n        /* \"#utility.yul\":12364:12437   */\n      swap1\n      jump\t// out\n        /* \"#utility.yul\":12443:12632   */\n    tag_128:\n        /* \"#utility.yul\":12520:12552   */\n      tag_278\n      tag_127\n      jump\t// in\n    tag_278:\n        /* \"#utility.yul\":12561:12626   */\n      tag_279\n        /* \"#utility.yul\":12619:12625   */\n      dup2\n        /* \"#utility.yul\":12611:12617   */\n      dup5\n        /* \"#utility.yul\":12605:12609   */\n      dup5\n        /* \"#utility.yul\":12561:12626   */\n      tag_126\n      jump\t// in\n    tag_279:\n        /* \"#utility.yul\":12496:12632   */\n      pop\n        /* \"#utility.yul\":12443:12632   */\n      pop\n      pop\n      jump\t// out\n        /* \"#utility.yul\":12638:12824   */\n    tag_129:\n        /* \"#utility.yul\":12698:12818   */\n    tag_281:\n        /* \"#utility.yul\":12715:12718   */\n      dup2\n        /* \"#utility.yul\":12708:12713   */\n      dup2\n        /* \"#utility.yul\":12705:12719   */\n      lt\n        /* \"#utility.yul\":12698:12818   */\n      iszero\n      tag_283\n      jumpi\n        /* \"#utility.yul\":12769:12808   */\n      tag_284\n        /* \"#utility.yul\":12806:12807   */\n      0x00\n        /* \"#utility.yul\":12799:12804   */\n      dup3\n        /* \"#utility.yul\":12769:12808   */\n      tag_128\n      jump\t// in\n    tag_284:\n        /* \"#utility.yul\":12742:12743   */\n      0x01\n        /* \"#utility.yul\":12735:12740   */\n      dup2\n        /* \"#utility.yul\":12731:12744   */\n      add\n        /* \"#utility.yul\":12722:12744   */\n      swap1\n      pop\n        /* \"#utility.yul\":12698:12818   */\n      jump(tag_281)\n    tag_283:\n        /* \"#utility.yul\":12638:12824   */\n      pop\n      pop\n      jump\t// out\n        /* \"#utility.yul\":12830:13373   */\n    tag_130:\n        /* \"#utility.yul\":12931:12933   */\n      0x1f\n        /* \"#utility.yul\":12926:12929   */\n      dup3\n        /* \"#utility.yul\":12923:12934   */\n      gt\n        /* \"#utility.yul\":12920:13366   */\n      iszero\n      tag_286\n      jumpi\n        /* \"#utility.yul\":12965:13003   */\n      tag_287\n        /* \"#utility.yul\":12997:13002   */\n      dup2\n        /* \"#utility.yul\":12965:13003   */\n      tag_119\n      jump\t// in\n    tag_287:\n        /* \"#utility.yul\":13049:13078   */\n      tag_288\n        /* \"#utility.yul\":13067:13077   */\n      dup5\n        /* \"#utility.yul\":13049:13078   */\n      tag_120\n      jump\t// in\n    tag_288:\n        /* \"#utility.yul\":13039:13047   */\n      dup2\n        /* \"#utility.yul\":13035:13079   */\n      add\n        /* \"#utility.yul\":13232:13234   */\n      0x20\n        /* \"#utility.yul\":13220:13230   */\n      dup6\n        /* \"#utility.yul\":13217:13235   */\n      lt\n        /* \"#utility.yul\":13214:13263   */\n      iszero\n      tag_289\n      jumpi\n        /* \"#utility.yul\":13253:13261   */\n      dup2\n        /* \"#utility.yul\":13238:13261   */\n      swap1\n      pop\n        /* \"#utility.yul\":13214:13263   */\n    tag_289:\n        /* \"#utility.yul\":13276:13356   */\n      tag_290\n        /* \"#utility.yul\":13332:13354   */\n      tag_291\n        /* \"#utility.yul\":13350:13353   */\n      dup6\n        /* \"#utility.yul\":13332:13354   */\n      tag_120\n      jump\t// in\n    tag_291:\n        /* \"#utility.yul\":13322:13330   */\n      dup4\n        /* \"#utility.yul\":13318:13355   */\n      add\n        /* \"#utility.yul\":13305:13316   */\n      dup3\n        /* \"#utility.yul\":13276:13356   */\n      tag_129\n      jump\t// in\n    tag_290:\n        /* \"#utility.yul\":12935:13366   */\n      pop\n      pop\n        /* \"#utility.yul\":12920:13366   */\n    tag_286:\n        /* \"#utility.yul\":12830:13373   */\n      pop\n      pop\n      pop\n      jump\t// out\n        /* \"#utility.yul\":13379:13496   */\n    tag_131:\n        /* \"#utility.yul\":13433:13441   */\n      0x00\n        /* \"#utility.yul\":13483:13488   */\n      dup3\n        /* \"#utility.yul\":13477:13481   */\n      dup3\n        /* \"#utility.yul\":13473:13489   */\n      shr\n        /* \"#utility.yul\":13452:13489   */\n      swap1\n      pop\n        /* \"#utility.yul\":13379:13496   */\n      swap3\n      swap2\n      pop\n      pop\n      jump\t// out\n        /* \"#utility.yul\":13502:13671   */\n    tag_132:\n        /* \"#utility.yul\":13546:13552   */\n      0x00\n        /* \"#utility.yul\":13579:13630   */\n      tag_294\n        /* \"#utility.yul\":13627:13628   */\n      0x00\n        /* \"#utility.yul\":13623:13629   */\n      not\n        /* \"#utility.yul\":13615:13620   */\n      dup5\n        /* \"#utility.yul\":13612:13613   */\n      0x08\n        /* \"#utility.yul\":13608:13621   */\n      mul\n        /* \"#utility.yul\":13579:13630   */\n      tag_131\n      jump\t// in\n    tag_294:\n        /* \"#utility.yul\":13575:13631   */\n      not\n        /* \"#utility.yul\":13660:13664   */\n      dup1\n        /* \"#utility.yul\":13654:13658   */\n      dup4\n        /* \"#utility.yul\":13650:13665   */\n      and\n        /* \"#utility.yul\":13640:13665   */\n      swap2\n      pop\n        /* \"#utility.yul\":13553:13671   */\n      pop\n        /* \"#utility.yul\":13502:13671   */\n      swap3\n      swap2\n      pop\n      pop\n      jump\t// out\n        /* \"#utility.yul\":13676:13971   */\n    tag_133:\n        /* \"#utility.yul\":13752:13756   */\n      0x00\n        /* \"#utility.yul\":13898:13927   */\n      tag_296\n        /* \"#utility.yul\":13923:13926   */\n      dup4\n        /* \"#utility.yul\":13917:13921   */\n      dup4\n        /* \"#utility.yul\":13898:13927   */\n      tag_132\n      jump\t// in\n    tag_296:\n        /* \"#utility.yul\":13890:13927   */\n      swap2\n      pop\n        /* \"#utility.yul\":13960:13963   */\n      dup3\n        /* \"#utility.yul\":13957:13958   */\n      0x02\n        /* \"#utility.yul\":13953:13964   */\n      mul\n        /* \"#utility.yul\":13947:13951   */\n      dup3\n        /* \"#utility.yul\":13944:13965   */\n      or\n        /* \"#utility.yul\":13936:13965   */\n      swap1\n      pop\n        /* \"#utility.yul\":13676:13971   */\n      swap3\n      swap2\n      pop\n      pop\n      jump\t// out\n        /* \"#utility.yul\":13976:15371   */\n    tag_48:\n        /* \"#utility.yul\":14093:14130   */\n      tag_298\n        /* \"#utility.yul\":14126:14129   */\n      dup3\n        /* \"#utility.yul\":14093:14130   */\n      tag_107\n      jump\t// in\n    tag_298:\n        /* \"#utility.yul\":14195:14213   */\n      0xffffffffffffffff\n        /* \"#utility.yul\":14187:14193   */\n      dup2\n        /* \"#utility.yul\":14184:14214   */\n      gt\n        /* \"#utility.yul\":14181:14237   */\n      iszero\n      tag_299\n      jumpi\n        /* \"#utility.yul\":14217:14235   */\n      tag_300\n      tag_94\n      jump\t// in\n    tag_300:\n        /* \"#utility.yul\":14181:14237   */\n    tag_299:\n        /* \"#utility.yul\":14261:14299   */\n      tag_301\n        /* \"#utility.yul\":14293:14297   */\n      dup3\n        /* \"#utility.yul\":14287:14298   */\n      sload\n        /* \"#utility.yul\":14261:14299   */\n      tag_52\n      jump\t// in\n    tag_301:\n        /* \"#utility.yul\":14346:14413   */\n      tag_302\n        /* \"#utility.yul\":14406:14412   */\n      dup3\n        /* \"#utility.yul\":14398:14404   */\n      dup3\n        /* \"#utility.yul\":14392:14396   */\n      dup6\n        /* \"#utility.yul\":14346:14413   */\n      tag_130\n      jump\t// in\n    tag_302:\n        /* \"#utility.yul\":14440:14441   */\n      0x00\n        /* \"#utility.yul\":14464:14468   */\n      0x20\n        /* \"#utility.yul\":14451:14468   */\n      swap1\n      pop\n        /* \"#utility.yul\":14496:14498   */\n      0x1f\n        /* \"#utility.yul\":14488:14494   */\n      dup4\n        /* \"#utility.yul\":14485:14499   */\n      gt\n        /* \"#utility.yul\":14513:14514   */\n      0x01\n        /* \"#utility.yul\":14508:15126   */\n      dup2\n      eq\n      tag_304\n      jumpi\n        /* \"#utility.yul\":15170:15171   */\n      0x00\n        /* \"#utility.yul\":15187:15193   */\n      dup5\n        /* \"#utility.yul\":15184:15261   */\n      iszero\n      tag_305\n      jumpi\n        /* \"#utility.yul\":15236:15245   */\n      dup3\n        /* \"#utility.yul\":15231:15234   */\n      dup8\n        /* \"#utility.yul\":15227:15246   */\n      add\n        /* \"#utility.yul\":15221:15247   */\n      mload\n        /* \"#utility.yul\":15212:15247   */\n      swap1\n      pop\n        /* \"#utility.yul\":15184:15261   */\n    tag_305:\n        /* \"#utility.yul\":15287:15354   */\n      tag_306\n        /* \"#utility.yul\":15347:15353   */\n      dup6\n        /* \"#utility.yul\":15340:15345   */\n      dup3\n        /* \"#utility.yul\":15287:15354   */\n      tag_133\n      jump\t// in\n    tag_306:\n        /* \"#utility.yul\":15281:15285   */\n      dup7\n        /* \"#utility.yul\":15274:15355   */\n      sstore\n        /* \"#utility.yul\":15143:15365   */\n      pop\n        /* \"#utility.yul\":14478:15365   */\n      jump(tag_303)\n        /* \"#utility.yul\":14508:15126   */\n    tag_304:\n        /* \"#utility.yul\":14560:14564   */\n      0x1f\n        /* \"#utility.yul\":14556:14565   */\n      not\n        /* \"#utility.yul\":14548:14554   */\n      dup5\n        /* \"#utility.yul\":14544:14566   */\n      and\n        /* \"#utility.yul\":14594:14631   */\n      tag_307\n        /* \"#utility.yul\":14626:14630   */\n      dup7\n        /* \"#utility.yul\":14594:14631   */\n      tag_119\n      jump\t// in\n    tag_307:\n        /* \"#utility.yul\":14653:14654   */\n      0x00\n        /* \"#utility.yul\":14667:14875   */\n    tag_308:\n        /* \"#utility.yul\":14681:14688   */\n      dup3\n        /* \"#utility.yul\":14678:14679   */\n      dup2\n        /* \"#utility.yul\":14675:14689   */\n      lt\n        /* \"#utility.yul\":14667:14875   */\n      iszero\n      tag_310\n      jumpi\n        /* \"#utility.yul\":14760:14769   */\n      dup5\n        /* \"#utility.yul\":14755:14758   */\n      dup10\n        /* \"#utility.yul\":14751:14770   */\n      add\n        /* \"#utility.yul\":14745:14771   */\n      mload\n        /* \"#utility.yul\":14737:14743   */\n      dup3\n        /* \"#utility.yul\":14730:14772   */\n      sstore\n        /* \"#utility.yul\":14811:14812   */\n      0x01\n        /* \"#utility.yul\":14803:14809   */\n      dup3\n        /* \"#utility.yul\":14799:14813   */\n      add\n        /* \"#utility.yul\":14789:14813   */\n      swap2\n      pop\n        /* \"#utility.yul\":14858:14860   */\n      0x20\n        /* \"#utility.yul\":14847:14856   */\n      dup6\n        /* \"#utility.yul\":14843:14861   */\n      add\n        /* \"#utility.yul\":14830:14861   */\n      swap5\n      pop\n        /* \"#utility.yul\":14704:14708   */\n      0x20\n        /* \"#utility.yul\":14701:14702   */\n      dup2\n        /* \"#utility.yul\":14697:14709   */\n      add\n        /* \"#utility.yul\":14692:14709   */\n      swap1\n      pop\n        /* \"#utility.yul\":14667:14875   */\n      jump(tag_308)\n    tag_310:\n        /* \"#utility.yul\":14903:14909   */\n      dup7\n        /* \"#utility.yul\":14894:14901   */\n      dup4\n        /* \"#utility.yul\":14891:14910   */\n      lt\n        /* \"#utility.yul\":14888:15067   */\n      iszero\n      tag_311\n      jumpi\n        /* \"#utility.yul\":14961:14970   */\n      dup5\n        /* \"#utility.yul\":14956:14959   */\n      dup10\n        /* \"#utility.yul\":14952:14971   */\n      add\n        /* \"#utility.yul\":14946:14972   */\n      mload\n        /* \"#utility.yul\":15004:15052   */\n      tag_312\n        /* \"#utility.yul\":15046:15050   */\n      0x1f\n        /* \"#utility.yul\":15038:15044   */\n      dup10\n        /* \"#utility.yul\":15034:15051   */\n      and\n        /* \"#utility.yul\":15023:15032   */\n      dup3\n        /* \"#utility.yul\":15004:15052   */\n      tag_132\n      jump\t// in\n    tag_312:\n        /* \"#utility.yul\":14996:15002   */\n      dup4\n        /* \"#utility.yul\":14989:15053   */\n      sstore\n        /* \"#utility.yul\":14911:15067   */\n      pop\n        /* \"#utility.yul\":14888:15067   */\n    tag_311:\n        /* \"#utility.yul\":15113:15114   */\n      0x01\n        /* \"#utility.yul\":15109:15110   */\n      0x02\n        /* \"#utility.yul\":15101:15107   */\n      dup9\n        /* \"#utility.yul\":15097:15111   */\n      mul\n        /* \"#utility.yul\":15093:15115   */\n      add\n        /* \"#utility.yul\":15087:15091   */\n      dup9\n        /* \"#utility.yul\":15080:15116   */\n      sstore\n        /* \"#utility.yul\":14515:15126   */\n      pop\n      pop\n      pop\n        /* \"#utility.yul\":14478:15365   */\n    tag_303:\n      pop\n        /* \"#utility.yul\":14068:15371   */\n      pop\n      pop\n      pop\n        /* \"#utility.yul\":13976:15371   */\n      pop\n      pop\n      jump\t// out\n        /* \"#utility.yul\":15377:15557   */\n    tag_134:\n        /* \"#utility.yul\":15425:15502   */\n      0x4e487b7100000000000000000000000000000000000000000000000000000000\n        /* \"#utility.yul\":15422:15423   */\n      0x00\n        /* \"#utility.yul\":15415:15503   */\n      mstore\n        /* \"#utility.yul\":15522:15526   */\n      0x11\n        /* \"#utility.yul\":15519:15520   */\n      0x04\n        /* \"#utility.yul\":15512:15527   */\n      mstore\n        /* \"#utility.yul\":15546:15550   */\n      0x24\n        /* \"#utility.yul\":15543:15544   */\n      0x00\n        /* \"#utility.yul\":15536:15551   */\n      revert\n        /* \"#utility.yul\":15563:15796   */\n    tag_50:\n        /* \"#utility.yul\":15602:15605   */\n      0x00\n        /* \"#utility.yul\":15625:15649   */\n      tag_315\n        /* \"#utility.yul\":15643:15648   */\n      dup3\n        /* \"#utility.yul\":15625:15649   */\n      tag_101\n      jump\t// in\n    tag_315:\n        /* \"#utility.yul\":15616:15649   */\n      swap2\n      pop\n        /* \"#utility.yul\":15671:15737   */\n      0xffffffffffffffffffffffffffffffffffffffffffffffffffffffffffffffff\n        /* \"#utility.yul\":15664:15669   */\n      dup3\n        /* \"#utility.yul\":15661:15738   */\n      sub\n        /* \"#utility.yul\":15658:15761   */\n      tag_316\n      jumpi\n        /* \"#utility.yul\":15741:15759   */\n      tag_317\n      tag_134\n      jump\t// in\n    tag_317:\n        /* \"#utility.yul\":15658:15761   */\n    tag_316:\n        /* \"#utility.yul\":15788:15789   */\n      0x01\n        /* \"#utility.yul\":15781:15786   */\n      dup3\n        /* \"#utility.yul\":15777:15790   */\n      add\n        /* \"#utility.yul\":15770:15790   */\n      swap1\n      pop\n        /* \"#utility.yul\":15563:15796   */\n      swap2\n      swap1\n      pop\n      jump\t// out\n        /* \"#utility.yul\":15802:15972   */\n    tag_135:\n        /* \"#utility.yul\":15942:15964   */\n      0x4576656e7420646f6573206e6f74206578697374000000000000000000000000\n        /* \"#utility.yul\":15938:15939   */\n      0x00\n        /* \"#utility.yul\":15930:15936   */\n      dup3\n        /* \"#utility.yul\":15926:15940   */\n      add\n        /* \"#utility.yul\":15919:15965   */\n      mstore\n        /* \"#utility.yul\":15802:15972   */\n      pop\n      jump\t// out\n        /* \"#utility.yul\":15978:16344   */\n    tag_136:\n        /* \"#utility.yul\":16120:16123   */\n      0x00\n        /* \"#utility.yul\":16141:16208   */\n      tag_320\n        /* \"#utility.yul\":16205:16207   */\n      0x14\n        /* \"#utility.yul\":16200:16203   */\n      dup4\n        /* \"#utility.yul\":16141:16208   */\n      tag_108\n      jump\t// in\n    tag_320:\n        /* \"#utility.yul\":16134:16208   */\n      swap2\n      pop\n        /* \"#utility.yul\":16217:16310   */\n      tag_321\n        /* \"#utility.yul\":16306:16309   */\n      dup3\n        /* \"#utility.yul\":16217:16310   */\n      tag_135\n      jump\t// in\n    tag_321:\n        /* \"#utility.yul\":16335:16337   */\n      0x20\n        /* \"#utility.yul\":16330:16333   */\n      dup3\n        /* \"#utility.yul\":16326:16338   */\n      add\n        /* \"#utility.yul\":16319:16338   */\n      swap1\n      pop\n        /* \"#utility.yul\":15978:16344   */\n      swap2\n      swap1\n      pop\n      jump\t// out\n        /* \"#utility.yul\":16350:16769   */\n    tag_60:\n        /* \"#utility.yul\":16516:16520   */\n      0x00\n        /* \"#utility.yul\":16554:16556   */\n      0x20\n        /* \"#utility.yul\":16543:16552   */\n      dup3\n        /* \"#utility.yul\":16539:16557   */\n      add\n        /* \"#utility.yul\":16531:16557   */\n      swap1\n      pop\n        /* \"#utility.yul\":16603:16612   */\n      dup2\n        /* \"#utility.yul\":16597:16601   */\n      dup2\n        /* \"#utility.yul\":16593:16613   */\n      sub\n        /* \"#utility.yul\":16589:16590   */\n      0x00\n        /* \"#utility.yul\":16578:16587   */\n      dup4\n        /* \"#utility.yul\":16574:16591   */\n      add\n        /* \"#utility.yul\":16567:16614   */\n      mstore\n        /* \"#utility.yul\":16631:16762   */\n      tag_323\n        /* \"#utility.yul\":16757:16761   */\n      dup2\n        /* \"#utility.yul\":16631:16762   */\n      tag_136\n      jump\t// in\n    tag_323:\n        /* \"#utility.yul\":16623:16762   */\n      swap1\n      pop\n        /* \"#utility.yul\":16350:16769   */\n      swap2\n      swap1\n      pop\n      jump\t// out\n        /* \"#utility.yul\":16775:16950   */\n    tag_137:\n        /* \"#utility.yul\":16915:16942   */\n      0x4576656e742068617320616c7265616479206f63637572656400000000000000\n        /* \"#utility.yul\":16911:16912   */\n      0x00\n        /* \"#utility.yul\":16903:16909   */\n      dup3\n        /* \"#utility.yul\":16899:16913   */\n      add\n        /* \"#utility.yul\":16892:16943   */\n      mstore\n        /* \"#utility.yul\":16775:16950   */\n      pop\n      jump\t// out\n        /* \"#utility.yul\":16956:17322   */\n    tag_138:\n        /* \"#utility.yul\":17098:17101   */\n      0x00\n        /* \"#utility.yul\":17119:17186   */\n      tag_326\n        /* \"#utility.yul\":17183:17185   */\n      0x19\n        /* \"#utility.yul\":17178:17181   */\n      dup4\n        /* \"#utility.yul\":17119:17186   */\n      tag_108\n      jump\t// in\n    tag_326:\n        /* \"#utility.yul\":17112:17186   */\n      swap2\n      pop\n        /* \"#utility.yul\":17195:17288   */\n      tag_327\n        /* \"#utility.yul\":17284:17287   */\n      dup3\n        /* \"#utility.yul\":17195:17288   */\n      tag_137\n      jump\t// in\n    tag_327:\n        /* \"#utility.yul\":17313:17315   */\n      0x20\n        /* \"#utility.yul\":17308:17311   */\n      dup3\n        /* \"#utility.yul\":17304:17316   */\n      add\n        /* \"#utility.yul\":17297:17316   */\n      swap1\n      pop\n        /* \"#utility.yul\":16956:17322   */\n      swap2\n      swap1\n      pop\n      jump\t// out\n        /* \"#utility.yul\":17328:17747   */\n    tag_63:\n        /* \"#utility.yul\":17494:17498   */\n      0x00\n        /* \"#utility.yul\":17532:17534   */\n      0x20\n        /* \"#utility.yul\":17521:17530   */\n      dup3\n        /* \"#utility.yul\":17517:17535   */\n      add\n        /* \"#utility.yul\":17509:17535   */\n      swap1\n      pop\n        /* \"#utility.yul\":17581:17590   */\n      dup2\n        /* \"#utility.yul\":17575:17579   */\n      dup2\n        /* \"#utility.yul\":17571:17591   */\n      sub\n        /* \"#utility.yul\":17567:17568   */\n      0x00\n        /* \"#utility.yul\":17556:17565   */\n      dup4\n        /* \"#utility.yul\":17552:17569   */\n      add\n        /* \"#utility.yul\":17545:17592   */\n      mstore\n        /* \"#utility.yul\":17609:17740   */\n      tag_329\n        /* \"#utility.yul\":17735:17739   */\n      dup2\n        /* \"#utility.yul\":17609:17740   */\n      tag_138\n      jump\t// in\n    tag_329:\n        /* \"#utility.yul\":17601:17740   */\n      swap1\n      pop\n        /* \"#utility.yul\":17328:17747   */\n      swap2\n      swap1\n      pop\n      jump\t// out\n        /* \"#utility.yul\":17753:18163   */\n    tag_65:\n        /* \"#utility.yul\":17793:17800   */\n      0x00\n        /* \"#utility.yul\":17816:17836   */\n      tag_331\n        /* \"#utility.yul\":17834:17835   */\n      dup3\n        /* \"#utility.yul\":17816:17836   */\n      tag_101\n      jump\t// in\n    tag_331:\n        /* \"#utility.yul\":17811:17836   */\n      swap2\n      pop\n        /* \"#utility.yul\":17850:17870   */\n      tag_332\n        /* \"#utility.yul\":17868:17869   */\n      dup4\n        /* \"#utility.yul\":17850:17870   */\n      tag_101\n      jump\t// in\n    tag_332:\n        /* \"#utility.yul\":17845:17870   */\n      swap3\n      pop\n        /* \"#utility.yul\":17905:17906   */\n      dup3\n        /* \"#utility.yul\":17902:17903   */\n      dup3\n        /* \"#utility.yul\":17898:17907   */\n      mul\n        /* \"#utility.yul\":17927:17957   */\n      tag_333\n        /* \"#utility.yul\":17945:17956   */\n      dup2\n        /* \"#utility.yul\":17927:17957   */\n      tag_101\n      jump\t// in\n    tag_333:\n        /* \"#utility.yul\":17916:17957   */\n      swap2\n      pop\n        /* \"#utility.yul\":18106:18107   */\n      dup3\n        /* \"#utility.yul\":18097:18104   */\n      dup3\n        /* \"#utility.yul\":18093:18108   */\n      div\n        /* \"#utility.yul\":18090:18091   */\n      dup5\n        /* \"#utility.yul\":18087:18109   */\n      eq\n        /* \"#utility.yul\":18067:18068   */\n      dup4\n        /* \"#utility.yul\":18060:18069   */\n      iszero\n        /* \"#utility.yul\":18040:18123   */\n      or\n        /* \"#utility.yul\":18017:18156   */\n      tag_334\n      jumpi\n        /* \"#utility.yul\":18136:18154   */\n      tag_335\n      tag_134\n      jump\t// in\n    tag_335:\n        /* \"#utility.yul\":18017:18156   */\n    tag_334:\n        /* \"#utility.yul\":17801:18163   */\n      pop\n        /* \"#utility.yul\":17753:18163   */\n      swap3\n      swap2\n      pop\n      pop\n      jump\t// out\n        /* \"#utility.yul\":18169:18338   */\n    tag_139:\n        /* \"#utility.yul\":18309:18330   */\n      0x6574686572206973206e6f7420656e6f75676800000000000000000000000000\n        /* \"#utility.yul\":18305:18306   */\n      0x00\n        /* \"#utility.yul\":18297:18303   */\n      dup3\n        /* \"#utility.yul\":18293:18307   */\n      add\n        /* \"#utility.yul\":18286:18331   */\n      mstore\n        /* \"#utility.yul\":18169:18338   */\n      pop\n      jump\t// out\n        /* \"#utility.yul\":18344:18710   */\n    tag_140:\n        /* \"#utility.yul\":18486:18489   */\n      0x00\n        /* \"#utility.yul\":18507:18574   */\n      tag_338\n        /* \"#utility.yul\":18571:18573   */\n      0x13\n        /* \"#utility.yul\":18566:18569   */\n      dup4\n        /* \"#utility.yul\":18507:18574   */\n      tag_108\n      jump\t// in\n    tag_338:\n        /* \"#utility.yul\":18500:18574   */\n      swap2\n      pop\n        /* \"#utility.yul\":18583:18676   */\n      tag_339\n        /* \"#utility.yul\":18672:18675   */\n      dup3\n        /* \"#utility.yul\":18583:18676   */\n      tag_139\n      jump\t// in\n    tag_339:\n        /* \"#utility.yul\":18701:18703   */\n      0x20\n        /* \"#utility.yul\":18696:18699   */\n      dup3\n        /* \"#utility.yul\":18692:18704   */\n      add\n        /* \"#utility.yul\":18685:18704   */\n      swap1\n      pop\n        /* \"#utility.yul\":18344:18710   */\n      swap2\n      swap1\n      pop\n      jump\t// out\n        /* \"#utility.yul\":18716:19135   */\n    tag_68:\n        /* \"#utility.yul\":18882:18886   */\n      0x00\n        /* \"#utility.yul\":18920:18922   */\n      0x20\n        /* \"#utility.yul\":18909:18918   */\n      dup3\n        /* \"#utility.yul\":18905:18923   */\n      add\n        /* \"#utility.yul\":18897:18923   */\n      swap1\n      pop\n        /* \"#utility.yul\":18969:18978   */\n      dup2\n        /* \"#utility.yul\":18963:18967   */\n      dup2\n        /* \"#utility.yul\":18959:18979   */\n      sub\n        /* \"#utility.yul\":18955:18956   */\n      0x00\n        /* \"#utility.yul\":18944:18953   */\n      dup4\n        /* \"#utility.yul\":18940:18957   */\n      add\n        /* \"#utility.yul\":18933:18980   */\n      mstore\n        /* \"#utility.yul\":18997:19128   */\n      tag_341\n        /* \"#utility.yul\":19123:19127   */\n      dup2\n        /* \"#utility.yul\":18997:19128   */\n      tag_140\n      jump\t// in\n    tag_341:\n        /* \"#utility.yul\":18989:19128   */\n      swap1\n      pop\n        /* \"#utility.yul\":18716:19135   */\n      swap2\n      swap1\n      pop\n      jump\t// out\n        /* \"#utility.yul\":19141:19309   */\n    tag_141:\n        /* \"#utility.yul\":19281:19301   */\n      0x4e6f7420656e6f756768207469636b6574730000000000000000000000000000\n        /* \"#utility.yul\":19277:19278   */\n      0x00\n        /* \"#utility.yul\":19269:19275   */\n      dup3\n        /* \"#utility.yul\":19265:19279   */\n      add\n        /* \"#utility.yul\":19258:19302   */\n      mstore\n        /* \"#utility.yul\":19141:19309   */\n      pop\n      jump\t// out\n        /* \"#utility.yul\":19315:19681   */\n    tag_142:\n        /* \"#utility.yul\":19457:19460   */\n      0x00\n        /* \"#utility.yul\":19478:19545   */\n      tag_344\n        /* \"#utility.yul\":19542:19544   */\n      0x12\n        /* \"#utility.yul\":19537:19540   */\n      dup4\n        /* \"#utility.yul\":19478:19545   */\n      tag_108\n      jump\t// in\n    tag_344:\n        /* \"#utility.yul\":19471:19545   */\n      swap2\n      pop\n        /* \"#utility.yul\":19554:19647   */\n      tag_345\n        /* \"#utility.yul\":19643:19646   */\n      dup3\n        /* \"#utility.yul\":19554:19647   */\n      tag_141\n      jump\t// in\n    tag_345:\n        /* \"#utility.yul\":19672:19674   */\n      0x20\n        /* \"#utility.yul\":19667:19670   */\n      dup3\n        /* \"#utility.yul\":19663:19675   */\n      add\n        /* \"#utility.yul\":19656:19675   */\n      swap1\n      pop\n        /* \"#utility.yul\":19315:19681   */\n      swap2\n      swap1\n      pop\n      jump\t// out\n        /* \"#utility.yul\":19687:20106   */\n    tag_71:\n        /* \"#utility.yul\":19853:19857   */\n      0x00\n        /* \"#utility.yul\":19891:19893   */\n      0x20\n        /* \"#utility.yul\":19880:19889   */\n      dup3\n        /* \"#utility.yul\":19876:19894   */\n      add\n        /* \"#utility.yul\":19868:19894   */\n      swap1\n      pop\n        /* \"#utility.yul\":19940:19949   */\n      dup2\n        /* \"#utility.yul\":19934:19938   */\n      dup2\n        /* \"#utility.yul\":19930:19950   */\n      sub\n        /* \"#utility.yul\":19926:19927   */\n      0x00\n        /* \"#utility.yul\":19915:19924   */\n      dup4\n        /* \"#utility.yul\":19911:19928   */\n      add\n        /* \"#utility.yul\":19904:19951   */\n      mstore\n        /* \"#utility.yul\":19968:20099   */\n      tag_347\n        /* \"#utility.yul\":20094:20098   */\n      dup2\n        /* \"#utility.yul\":19968:20099   */\n      tag_142\n      jump\t// in\n    tag_347:\n        /* \"#utility.yul\":19960:20099   */\n      swap1\n      pop\n        /* \"#utility.yul\":19687:20106   */\n      swap2\n      swap1\n      pop\n      jump\t// out\n        /* \"#utility.yul\":20112:20306   */\n    tag_73:\n        /* \"#utility.yul\":20152:20156   */\n      0x00\n        /* \"#utility.yul\":20172:20192   */\n      tag_349\n        /* \"#utility.yul\":20190:20191   */\n      dup3\n        /* \"#utility.yul\":20172:20192   */\n      tag_101\n      jump\t// in\n    tag_349:\n        /* \"#utility.yul\":20167:20192   */\n      swap2\n      pop\n        /* \"#utility.yul\":20206:20226   */\n      tag_350\n        /* \"#utility.yul\":20224:20225   */\n      dup4\n        /* \"#utility.yul\":20206:20226   */\n      tag_101\n      jump\t// in\n    tag_350:\n        /* \"#utility.yul\":20201:20226   */\n      swap3\n      pop\n        /* \"#utility.yul\":20250:20251   */\n      dup3\n        /* \"#utility.yul\":20247:20248   */\n      dup3\n        /* \"#utility.yul\":20243:20252   */\n      sub\n        /* \"#utility.yul\":20235:20252   */\n      swap1\n      pop\n        /* \"#utility.yul\":20274:20275   */\n      dup2\n        /* \"#utility.yul\":20268:20272   */\n      dup2\n        /* \"#utility.yul\":20265:20276   */\n      gt\n        /* \"#utility.yul\":20262:20299   */\n      iszero\n      tag_351\n      jumpi\n        /* \"#utility.yul\":20279:20297   */\n      tag_352\n      tag_134\n      jump\t// in\n    tag_352:\n        /* \"#utility.yul\":20262:20299   */\n    tag_351:\n        /* \"#utility.yul\":20112:20306   */\n      swap3\n      swap2\n      pop\n      pop\n      jump\t// out\n        /* \"#utility.yul\":20312:20503   */\n    tag_75:\n        /* \"#utility.yul\":20352:20355   */\n      0x00\n        /* \"#utility.yul\":20371:20391   */\n      tag_354\n        /* \"#utility.yul\":20389:20390   */\n      dup3\n        /* \"#utility.yul\":20371:20391   */\n      tag_101\n      jump\t// in\n    tag_354:\n        /* \"#utility.yul\":20366:20391   */\n      swap2\n      pop\n        /* \"#utility.yul\":20405:20425   */\n      tag_355\n        /* \"#utility.yul\":20423:20424   */\n      dup4\n        /* \"#utility.yul\":20405:20425   */\n      tag_101\n      jump\t// in\n    tag_355:\n        /* \"#utility.yul\":20400:20425   */\n      swap3\n      pop\n        /* \"#utility.yul\":20448:20449   */\n      dup3\n        /* \"#utility.yul\":20445:20446   */\n      dup3\n        /* \"#utility.yul\":20441:20450   */\n      add\n        /* \"#utility.yul\":20434:20450   */\n      swap1\n      pop\n        /* \"#utility.yul\":20469:20472   */\n      dup1\n        /* \"#utility.yul\":20466:20467   */\n      dup3\n        /* \"#utility.yul\":20463:20473   */\n      gt\n        /* \"#utility.yul\":20460:20496   */\n      iszero\n      tag_356\n      jumpi\n        /* \"#utility.yul\":20476:20494   */\n      tag_357\n      tag_134\n      jump\t// in\n    tag_357:\n        /* \"#utility.yul\":20460:20496   */\n    tag_356:\n        /* \"#utility.yul\":20312:20503   */\n      swap3\n      swap2\n      pop\n      pop\n      jump\t// out\n        /* \"#utility.yul\":20509:20679   */\n    tag_143:\n        /* \"#utility.yul\":20649:20671   */\n      0x6576656e7420646f6573206e6f74206578697374000000000000000000000000\n        /* \"#utility.yul\":20645:20646   */\n      0x00\n        /* \"#utility.yul\":20637:20643   */\n      dup3\n        /* \"#utility.yul\":20633:20647   */\n      add\n        /* \"#utility.yul\":20626:20672   */\n      mstore\n        /* \"#utility.yul\":20509:20679   */\n      pop\n      jump\t// out\n        /* \"#utility.yul\":20685:21051   */\n    tag_144:\n        /* \"#utility.yul\":20827:20830   */\n      0x00\n        /* \"#utility.yul\":20848:20915   */\n      tag_360\n        /* \"#utility.yul\":20912:20914   */\n      0x14\n        /* \"#utility.yul\":20907:20910   */\n      dup4\n        /* \"#utility.yul\":20848:20915   */\n      tag_108\n      jump\t// in\n    tag_360:\n        /* \"#utility.yul\":20841:20915   */\n      swap2\n      pop\n        /* \"#utility.yul\":20924:21017   */\n      tag_361\n        /* \"#utility.yul\":21013:21016   */\n      dup3\n        /* \"#utility.yul\":20924:21017   */\n      tag_143\n      jump\t// in\n    tag_361:\n        /* \"#utility.yul\":21042:21044   */\n      0x20\n        /* \"#utility.yul\":21037:21040   */\n      dup3\n        /* \"#utility.yul\":21033:21045   */\n      add\n        /* \"#utility.yul\":21026:21045   */\n      swap1\n      pop\n        /* \"#utility.yul\":20685:21051   */\n      swap2\n      swap1\n      pop\n      jump\t// out\n        /* \"#utility.yul\":21057:21476   */\n    tag_79:\n        /* \"#utility.yul\":21223:21227   */\n      0x00\n        /* \"#utility.yul\":21261:21263   */\n      0x20\n        /* \"#utility.yul\":21250:21259   */\n      dup3\n        /* \"#utility.yul\":21246:21264   */\n      add\n        /* \"#utility.yul\":21238:21264   */\n      swap1\n      pop\n        /* \"#utility.yul\":21310:21319   */\n      dup2\n        /* \"#utility.yul\":21304:21308   */\n      dup2\n        /* \"#utility.yul\":21300:21320   */\n      sub\n        /* \"#utility.yul\":21296:21297   */\n      0x00\n        /* \"#utility.yul\":21285:21294   */\n      dup4\n        /* \"#utility.yul\":21281:21298   */\n      add\n        /* \"#utility.yul\":21274:21321   */\n      mstore\n        /* \"#utility.yul\":21338:21469   */\n      tag_363\n        /* \"#utility.yul\":21464:21468   */\n      dup2\n        /* \"#utility.yul\":21338:21469   */\n      tag_144\n      jump\t// in\n    tag_363:\n        /* \"#utility.yul\":21330:21469   */\n      swap1\n      pop\n        /* \"#utility.yul\":21057:21476   */\n      swap2\n      swap1\n      pop\n      jump\t// out\n        /* \"#utility.yul\":21482:21657   */\n    tag_145:\n        /* \"#utility.yul\":21622:21649   */\n      0x6576656e742068617320616c7265616479206f63637572656400000000000000\n        /* \"#utility.yul\":21618:21619   */\n      0x00\n        /* \"#utility.yul\":21610:21616   */\n      dup3\n        /* \"#utility.yul\":21606:21620   */\n      add\n        /* \"#utility.yul\":21599:21650   */\n      mstore\n        /* \"#utility.yul\":21482:21657   */\n      pop\n      jump\t// out\n        /* \"#utility.yul\":21663:22029   */\n    tag_146:\n        /* \"#utility.yul\":21805:21808   */\n      0x00\n        /* \"#utility.yul\":21826:21893   */\n      tag_366\n        /* \"#utility.yul\":21890:21892   */\n      0x19\n        /* \"#utility.yul\":21885:21888   */\n      dup4\n        /* \"#utility.yul\":21826:21893   */\n      tag_108\n      jump\t// in\n    tag_366:\n        /* \"#utility.yul\":21819:21893   */\n      swap2\n      pop\n        /* \"#utility.yul\":21902:21995   */\n      tag_367\n        /* \"#utility.yul\":21991:21994   */\n      dup3\n        /* \"#utility.yul\":21902:21995   */\n      tag_145\n      jump\t// in\n    tag_367:\n        /* \"#utility.yul\":22020:22022   */\n      0x20\n        /* \"#utility.yul\":22015:22018   */\n      dup3\n        /* \"#utility.yul\":22011:22023   */\n      add\n        /* \"#utility.yul\":22004:22023   */\n      swap1\n      pop\n        /* \"#utility.yul\":21663:22029   */\n      swap2\n      swap1\n      pop\n      jump\t// out\n        /* \"#utility.yul\":22035:22454   */\n    tag_82:\n        /* \"#utility.yul\":22201:22205   */\n      0x00\n        /* \"#utility.yul\":22239:22241   */\n      0x20\n        /* \"#utility.yul\":22228:22237   */\n      dup3\n        /* \"#utility.yul\":22224:22242   */\n      add\n        /* \"#utility.yul\":22216:22242   */\n      swap1\n      pop\n        /* \"#utility.yul\":22288:22297   */\n      dup2\n        /* \"#utility.yul\":22282:22286   */\n      dup2\n        /* \"#utility.yul\":22278:22298   */\n      sub\n        /* \"#utility.yul\":22274:22275   */\n      0x00\n        /* \"#utility.yul\":22263:22272   */\n      dup4\n        /* \"#utility.yul\":22259:22276   */\n      add\n        /* \"#utility.yul\":22252:22299   */\n      mstore\n        /* \"#utility.yul\":22316:22447   */\n      tag_369\n        /* \"#utility.yul\":22442:22446   */\n      dup2\n        /* \"#utility.yul\":22316:22447   */\n      tag_146\n      jump\t// in\n    tag_369:\n        /* \"#utility.yul\":22308:22447   */\n      swap1\n      pop\n        /* \"#utility.yul\":22035:22454   */\n      swap2\n      swap1\n      pop\n      jump\t// out\n        /* \"#utility.yul\":22460:22640   */\n    tag_147:\n        /* \"#utility.yul\":22600:22632   */\n      0x796f7520646f206e6f74206861766520656e6f756768207469636b6574730000\n        /* \"#utility.yul\":22596:22597   */\n      0x00\n        /* \"#utility.yul\":22588:22594   */\n      dup3\n        /* \"#utility.yul\":22584:22598   */\n      add\n        /* \"#utility.yul\":22577:22633   */\n      mstore\n        /* \"#utility.yul\":22460:22640   */\n      pop\n      jump\t// out\n        /* \"#utility.yul\":22646:23012   */\n    tag_148:\n        /* \"#utility.yul\":22788:22791   */\n      0x00\n        /* \"#utility.yul\":22809:22876   */\n      tag_372\n        /* \"#utility.yul\":22873:22875   */\n      0x1e\n        /* \"#utility.yul\":22868:22871   */\n      dup4\n        /* \"#utility.yul\":22809:22876   */\n      tag_108\n      jump\t// in\n    tag_372:\n        /* \"#utility.yul\":22802:22876   */\n      swap2\n      pop\n        /* \"#utility.yul\":22885:22978   */\n      tag_373\n        /* \"#utility.yul\":22974:22977   */\n      dup3\n        /* \"#utility.yul\":22885:22978   */\n      tag_147\n      jump\t// in\n    tag_373:\n        /* \"#utility.yul\":23003:23005   */\n      0x20\n        /* \"#utility.yul\":22998:23001   */\n      dup3\n        /* \"#utility.yul\":22994:23006   */\n      add\n        /* \"#utility.yul\":22987:23006   */\n      swap1\n      pop\n        /* \"#utility.yul\":22646:23012   */\n      swap2\n      swap1\n      pop\n      jump\t// out\n        /* \"#utility.yul\":23018:23437   */\n    tag_85:\n        /* \"#utility.yul\":23184:23188   */\n      0x00\n        /* \"#utility.yul\":23222:23224   */\n      0x20\n        /* \"#utility.yul\":23211:23220   */\n      dup3\n        /* \"#utility.yul\":23207:23225   */\n      add\n        /* \"#utility.yul\":23199:23225   */\n      swap1\n      pop\n        /* \"#utility.yul\":23271:23280   */\n      dup2\n        /* \"#utility.yul\":23265:23269   */\n      dup2\n        /* \"#utility.yul\":23261:23281   */\n      sub\n        /* \"#utility.yul\":23257:23258   */\n      0x00\n        /* \"#utility.yul\":23246:23255   */\n      dup4\n        /* \"#utility.yul\":23242:23259   */\n      add\n        /* \"#utility.yul\":23235:23282   */\n      mstore\n        /* \"#utility.yul\":23299:23430   */\n      tag_375\n        /* \"#utility.yul\":23425:23429   */\n      dup2\n        /* \"#utility.yul\":23299:23430   */\n      tag_148\n      jump\t// in\n    tag_375:\n        /* \"#utility.yul\":23291:23430   */\n      swap1\n      pop\n        /* \"#utility.yul\":23018:23437   */\n      swap2\n      swap1\n      pop\n      jump\t// out\n\n    auxdata: 0xa2646970667358221220860d93f33ae90ecc6c5f16c7c1e8982ccbb639b40795c62619cb4b4e17c6222264736f6c634300081a0033\n}\n",
				"bytecode": {
					"linkReferences": {},
					"object": "6080604052348015600e575f80fd5b5061141c8061001c5f395ff3fe608060405260043610610054575f3560e01c80630374ab0b146100585780630b7914301461008057806361b8ce8c146100c1578063dae7a13c146100eb578063ef523f7114610127578063f086a09b14610143575b5f80fd5b348015610063575f80fd5b5061007e60048036038101906100799190610940565b61016b565b005b34801561008b575f80fd5b506100a660048036038101906100a191906109c0565b6102e6565b6040516100b896959493929190610a99565b60405180910390f35b3480156100cc575f80fd5b506100d56103c2565b6040516100e29190610aff565b60405180910390f35b3480156100f6575f80fd5b50610111600480360381019061010c9190610b42565b6103c8565b60405161011e9190610aff565b60405180910390f35b610141600480360381019061013c9190610b80565b6103e8565b005b34801561014e575f80fd5b5061016960048036038101906101649190610bbe565b6105be565b005b4283116101ad576040517f08c379a00000000000000000000000000000000000000000000000000000000081526004016101a490610c7e565b60405180910390fd5b5f81116101ef576040517f08c379a00000000000000000000000000000000000000000000000000000000081526004016101e690610d0c565b60405180910390fd5b6040518060c001604052803373ffffffffffffffffffffffffffffffffffffffff168152602001858152602001848152602001838152602001828152602001828152505f8060025481526020019081526020015f205f820151815f015f6101000a81548173ffffffffffffffffffffffffffffffffffffffff021916908373ffffffffffffffffffffffffffffffffffffffff160217905550602082015181600101908161029d9190610f24565b5060408201518160020155606082015181600301556080820151816004015560a0820151816005015590505060025f8154809291906102db90611020565b919050555050505050565b5f602052805f5260405f205f91509050805f015f9054906101000a900473ffffffffffffffffffffffffffffffffffffffff169080600101805461032990610d57565b80601f016020809104026020016040519081016040528092919081815260200182805461035590610d57565b80156103a05780601f10610377576101008083540402835291602001916103a0565b820191905f5260205f20905b81548152906001019060200180831161038357829003601f168201915b5050505050908060020154908060030154908060040154908060050154905086565b60025481565b6001602052815f5260405f20602052805f5260405f205f91509150505481565b5f805f8481526020019081526020015f20600201540361043d576040517f08c379a0000000000000000000000000000000000000000000000000000000008152600401610434906110b1565b60405180910390fd5b425f808481526020019081526020015f206002015411610492576040517f08c379a000000000000000000000000000000000000000000000000000000000815260040161048990611119565b60405180910390fd5b5f805f8481526020019081526020015f2090508181600301546104b59190611137565b34146104f6576040517f08c379a00000000000000000000000000000000000000000000000000000000081526004016104ed906111c2565b60405180910390fd5b818160050154101561053d576040517f08c379a00000000000000000000000000000000000000000000000000000000081526004016105349061122a565b60405180910390fd5b81816005015f8282546105509190611248565b925050819055508160015f3373ffffffffffffffffffffffffffffffffffffffff1673ffffffffffffffffffffffffffffffffffffffff1681526020019081526020015f205f8581526020019081526020015f205f8282546105b2919061127b565b92505081905550505050565b5f805f8581526020019081526020015f206002015403610613576040517f08c379a000000000000000000000000000000000000000000000000000000000815260040161060a906112f8565b60405180910390fd5b425f808581526020019081526020015f206002015411610668576040517f08c379a000000000000000000000000000000000000000000000000000000000815260040161065f90611360565b60405180910390fd5b8160015f3373ffffffffffffffffffffffffffffffffffffffff1673ffffffffffffffffffffffffffffffffffffffff1681526020019081526020015f205f8581526020019081526020015f205410156106f7576040517f08c379a00000000000000000000000000000000000000000000000000000000081526004016106ee906113c8565b60405180910390fd5b8160015f3373ffffffffffffffffffffffffffffffffffffffff1673ffffffffffffffffffffffffffffffffffffffff1681526020019081526020015f205f8581526020019081526020015f205f8282546107529190611248565b925050819055508160015f8373ffffffffffffffffffffffffffffffffffffffff1673ffffffffffffffffffffffffffffffffffffffff1681526020019081526020015f205f8581526020019081526020015f205f8282546107b4919061127b565b92505081905550505050565b5f604051905090565b5f80fd5b5f80fd5b5f80fd5b5f80fd5b5f601f19601f8301169050919050565b7f4e487b71000000000000000000000000000000000000000000000000000000005f52604160045260245ffd5b61081f826107d9565b810181811067ffffffffffffffff8211171561083e5761083d6107e9565b5b80604052505050565b5f6108506107c0565b905061085c8282610816565b919050565b5f67ffffffffffffffff82111561087b5761087a6107e9565b5b610884826107d9565b9050602081019050919050565b828183375f83830152505050565b5f6108b16108ac84610861565b610847565b9050828152602081018484840111156108cd576108cc6107d5565b5b6108d8848285610891565b509392505050565b5f82601f8301126108f4576108f36107d1565b5b813561090484826020860161089f565b91505092915050565b5f819050919050565b61091f8161090d565b8114610929575f80fd5b50565b5f8135905061093a81610916565b92915050565b5f805f8060808587031215610958576109576107c9565b5b5f85013567ffffffffffffffff811115610975576109746107cd565b5b610981878288016108e0565b94505060206109928782880161092c565b93505060406109a38782880161092c565b92505060606109b48782880161092c565b91505092959194509250565b5f602082840312156109d5576109d46107c9565b5b5f6109e28482850161092c565b91505092915050565b5f73ffffffffffffffffffffffffffffffffffffffff82169050919050565b5f610a14826109eb565b9050919050565b610a2481610a0a565b82525050565b5f81519050919050565b5f82825260208201905092915050565b8281835e5f83830152505050565b5f610a5c82610a2a565b610a668185610a34565b9350610a76818560208601610a44565b610a7f816107d9565b840191505092915050565b610a938161090d565b82525050565b5f60c082019050610aac5f830189610a1b565b8181036020830152610abe8188610a52565b9050610acd6040830187610a8a565b610ada6060830186610a8a565b610ae76080830185610a8a565b610af460a0830184610a8a565b979650505050505050565b5f602082019050610b125f830184610a8a565b92915050565b610b2181610a0a565b8114610b2b575f80fd5b50565b5f81359050610b3c81610b18565b92915050565b5f8060408385031215610b5857610b576107c9565b5b5f610b6585828601610b2e565b9250506020610b768582860161092c565b9150509250929050565b5f8060408385031215610b9657610b956107c9565b5b5f610ba38582860161092c565b9250506020610bb48582860161092c565b9150509250929050565b5f805f60608486031215610bd557610bd46107c9565b5b5f610be28682870161092c565b9350506020610bf38682870161092c565b9250506040610c0486828701610b2e565b9150509250925092565b7f596f752063616e206f7267616e697a65206576656e7420666f722066757475725f8201527f6520646174650000000000000000000000000000000000000000000000000000602082015250565b5f610c68602683610a34565b9150610c7382610c0e565b604082019050919050565b5f6020820190508181035f830152610c9581610c5c565b9050919050565b7f596f752063616e206f7267616e697365206576656e74206f6e6c7920696620795f8201527f6f7520637265617465206d6f7265207468616e2030207469636b657473000000602082015250565b5f610cf6603d83610a34565b9150610d0182610c9c565b604082019050919050565b5f6020820190508181035f830152610d2381610cea565b9050919050565b7f4e487b71000000000000000000000000000000000000000000000000000000005f52602260045260245ffd5b5f6002820490506001821680610d6e57607f821691505b602082108103610d8157610d80610d2a565b5b50919050565b5f819050815f5260205f209050919050565b5f6020601f8301049050919050565b5f82821b905092915050565b5f60088302610de37fffffffffffffffffffffffffffffffffffffffffffffffffffffffffffffffff82610da8565b610ded8683610da8565b95508019841693508086168417925050509392505050565b5f819050919050565b5f610e28610e23610e1e8461090d565b610e05565b61090d565b9050919050565b5f819050919050565b610e4183610e0e565b610e55610e4d82610e2f565b848454610db4565b825550505050565b5f90565b610e69610e5d565b610e74818484610e38565b505050565b5b81811015610e9757610e8c5f82610e61565b600181019050610e7a565b5050565b601f821115610edc57610ead81610d87565b610eb684610d99565b81016020851015610ec5578190505b610ed9610ed185610d99565b830182610e79565b50505b505050565b5f82821c905092915050565b5f610efc5f1984600802610ee1565b1980831691505092915050565b5f610f148383610eed565b9150826002028217905092915050565b610f2d82610a2a565b67ffffffffffffffff811115610f4657610f456107e9565b5b610f508254610d57565b610f5b828285610e9b565b5f60209050601f831160018114610f8c575f8415610f7a578287015190505b610f848582610f09565b865550610feb565b601f198416610f9a86610d87565b5f5b82811015610fc157848901518255600182019150602085019450602081019050610f9c565b86831015610fde5784890151610fda601f891682610eed565b8355505b6001600288020188555050505b505050505050565b7f4e487b71000000000000000000000000000000000000000000000000000000005f52601160045260245ffd5b5f61102a8261090d565b91507fffffffffffffffffffffffffffffffffffffffffffffffffffffffffffffffff820361105c5761105b610ff3565b5b600182019050919050565b7f4576656e7420646f6573206e6f742065786973740000000000000000000000005f82015250565b5f61109b601483610a34565b91506110a682611067565b602082019050919050565b5f6020820190508181035f8301526110c88161108f565b9050919050565b7f4576656e742068617320616c7265616479206f636375726564000000000000005f82015250565b5f611103601983610a34565b915061110e826110cf565b602082019050919050565b5f6020820190508181035f830152611130816110f7565b9050919050565b5f6111418261090d565b915061114c8361090d565b925082820261115a8161090d565b9150828204841483151761117157611170610ff3565b5b5092915050565b7f6574686572206973206e6f7420656e6f756768000000000000000000000000005f82015250565b5f6111ac601383610a34565b91506111b782611178565b602082019050919050565b5f6020820190508181035f8301526111d9816111a0565b9050919050565b7f4e6f7420656e6f756768207469636b65747300000000000000000000000000005f82015250565b5f611214601283610a34565b915061121f826111e0565b602082019050919050565b5f6020820190508181035f83015261124181611208565b9050919050565b5f6112528261090d565b915061125d8361090d565b925082820390508181111561127557611274610ff3565b5b92915050565b5f6112858261090d565b91506112908361090d565b92508282019050808211156112a8576112a7610ff3565b5b92915050565b7f6576656e7420646f6573206e6f742065786973740000000000000000000000005f82015250565b5f6112e2601483610a34565b91506112ed826112ae565b602082019050919050565b5f6020820190508181035f83015261130f816112d6565b9050919050565b7f6576656e742068617320616c7265616479206f636375726564000000000000005f82015250565b5f61134a601983610a34565b915061135582611316565b602082019050919050565b5f6020820190508181035f8301526113778161133e565b9050919050565b7f796f7520646f206e6f74206861766520656e6f756768207469636b65747300005f82015250565b5f6113b2601e83610a34565b91506113bd8261137e565b602082019050919050565b5f6020820190508181035f8301526113df816113a6565b905091905056fea2646970667358221220860d93f33ae90ecc6c5f16c7c1e8982ccbb639b40795c62619cb4b4e17c6222264736f6c634300081a0033",
					"opcodes": "PUSH1 0x80 PUSH1 0x40 MSTORE CALLVALUE DUP1 ISZERO PUSH1 0xE JUMPI PUSH0 DUP1 REVERT JUMPDEST POP PUSH2 0x141C DUP1 PUSH2 0x1C PUSH0 CODECOPY PUSH0 RETURN INVALID PUSH1 0x80 PUSH1 0x40 MSTORE PUSH1 0x4 CALLDATASIZE LT PUSH2 0x54 JUMPI PUSH0 CALLDATALOAD PUSH1 0xE0 SHR DUP1 PUSH4 0x374AB0B EQ PUSH2 0x58 JUMPI DUP1 PUSH4 0xB791430 EQ PUSH2 0x80 JUMPI DUP1 PUSH4 0x61B8CE8C EQ PUSH2 0xC1 JUMPI DUP1 PUSH4 0xDAE7A13C EQ PUSH2 0xEB JUMPI DUP1 PUSH4 0xEF523F71 EQ PUSH2 0x127 JUMPI DUP1 PUSH4 0xF086A09B EQ PUSH2 0x143 JUMPI JUMPDEST PUSH0 DUP1 REVERT JUMPDEST CALLVALUE DUP1 ISZERO PUSH2 0x63 JUMPI PUSH0 DUP1 REVERT JUMPDEST POP PUSH2 0x7E PUSH1 0x4 DUP1 CALLDATASIZE SUB DUP2 ADD SWAP1 PUSH2 0x79 SWAP2 SWAP1 PUSH2 0x940 JUMP JUMPDEST PUSH2 0x16B JUMP JUMPDEST STOP JUMPDEST CALLVALUE DUP1 ISZERO PUSH2 0x8B JUMPI PUSH0 DUP1 REVERT JUMPDEST POP PUSH2 0xA6 PUSH1 0x4 DUP1 CALLDATASIZE SUB DUP2 ADD SWAP1 PUSH2 0xA1 SWAP2 SWAP1 PUSH2 0x9C0 JUMP JUMPDEST PUSH2 0x2E6 JUMP JUMPDEST PUSH1 0x40 MLOAD PUSH2 0xB8 SWAP7 SWAP6 SWAP5 SWAP4 SWAP3 SWAP2 SWAP1 PUSH2 0xA99 JUMP JUMPDEST PUSH1 0x40 MLOAD DUP1 SWAP2 SUB SWAP1 RETURN JUMPDEST CALLVALUE DUP1 ISZERO PUSH2 0xCC JUMPI PUSH0 DUP1 REVERT JUMPDEST POP PUSH2 0xD5 PUSH2 0x3C2 JUMP JUMPDEST PUSH1 0x40 MLOAD PUSH2 0xE2 SWAP2 SWAP1 PUSH2 0xAFF JUMP JUMPDEST PUSH1 0x40 MLOAD DUP1 SWAP2 SUB SWAP1 RETURN JUMPDEST CALLVALUE DUP1 ISZERO PUSH2 0xF6 JUMPI PUSH0 DUP1 REVERT JUMPDEST POP PUSH2 0x111 PUSH1 0x4 DUP1 CALLDATASIZE SUB DUP2 ADD SWAP1 PUSH2 0x10C SWAP2 SWAP1 PUSH2 0xB42 JUMP JUMPDEST PUSH2 0x3C8 JUMP JUMPDEST PUSH1 0x40 MLOAD PUSH2 0x11E SWAP2 SWAP1 PUSH2 0xAFF JUMP JUMPDEST PUSH1 0x40 MLOAD DUP1 SWAP2 SUB SWAP1 RETURN JUMPDEST PUSH2 0x141 PUSH1 0x4 DUP1 CALLDATASIZE SUB DUP2 ADD SWAP1 PUSH2 0x13C SWAP2 SWAP1 PUSH2 0xB80 JUMP JUMPDEST PUSH2 0x3E8 JUMP JUMPDEST STOP JUMPDEST CALLVALUE DUP1 ISZERO PUSH2 0x14E JUMPI PUSH0 DUP1 REVERT JUMPDEST POP PUSH2 0x169 PUSH1 0x4 DUP1 CALLDATASIZE SUB DUP2 ADD SWAP1 PUSH2 0x164 SWAP2 SWAP1 PUSH2 0xBBE JUMP JUMPDEST PUSH2 0x5BE JUMP JUMPDEST STOP JUMPDEST TIMESTAMP DUP4 GT PUSH2 0x1AD JUMPI PUSH1 0x40 MLOAD PUSH32 0x8C379A000000000000000000000000000000000000000000000000000000000 DUP2 MSTORE PUSH1 0x4 ADD PUSH2 0x1A4 SWAP1 PUSH2 0xC7E JUMP JUMPDEST PUSH1 0x40 MLOAD DUP1 SWAP2 SUB SWAP1 REVERT JUMPDEST PUSH0 DUP2 GT PUSH2 0x1EF JUMPI PUSH1 0x40 MLOAD PUSH32 0x8C379A000000000000000000000000000000000000000000000000000000000 DUP2 MSTORE PUSH1 0x4 ADD PUSH2 0x1E6 SWAP1 PUSH2 0xD0C JUMP JUMPDEST PUSH1 0x40 MLOAD DUP1 SWAP2 SUB SWAP1 REVERT JUMPDEST PUSH1 0x40 MLOAD DUP1 PUSH1 0xC0 ADD PUSH1 0x40 MSTORE DUP1 CALLER PUSH20 0xFFFFFFFFFFFFFFFFFFFFFFFFFFFFFFFFFFFFFFFF AND DUP2 MSTORE PUSH1 0x20 ADD DUP6 DUP2 MSTORE PUSH1 0x20 ADD DUP5 DUP2 MSTORE PUSH1 0x20 ADD DUP4 DUP2 MSTORE PUSH1 0x20 ADD DUP3 DUP2 MSTORE PUSH1 0x20 ADD DUP3 DUP2 MSTORE POP PUSH0 DUP1 PUSH1 0x2 SLOAD DUP2 MSTORE PUSH1 0x20 ADD SWAP1 DUP2 MSTORE PUSH1 0x20 ADD PUSH0 KECCAK256 PUSH0 DUP3 ADD MLOAD DUP2 PUSH0 ADD PUSH0 PUSH2 0x100 EXP DUP2 SLOAD DUP2 PUSH20 0xFFFFFFFFFFFFFFFFFFFFFFFFFFFFFFFFFFFFFFFF MUL NOT AND SWAP1 DUP4 PUSH20 0xFFFFFFFFFFFFFFFFFFFFFFFFFFFFFFFFFFFFFFFF AND MUL OR SWAP1 SSTORE POP PUSH1 0x20 DUP3 ADD MLOAD DUP2 PUSH1 0x1 ADD SWAP1 DUP2 PUSH2 0x29D SWAP2 SWAP1 PUSH2 0xF24 JUMP JUMPDEST POP PUSH1 0x40 DUP3 ADD MLOAD DUP2 PUSH1 0x2 ADD SSTORE PUSH1 0x60 DUP3 ADD MLOAD DUP2 PUSH1 0x3 ADD SSTORE PUSH1 0x80 DUP3 ADD MLOAD DUP2 PUSH1 0x4 ADD SSTORE PUSH1 0xA0 DUP3 ADD MLOAD DUP2 PUSH1 0x5 ADD SSTORE SWAP1 POP POP PUSH1 0x2 PUSH0 DUP2 SLOAD DUP1 SWAP3 SWAP2 SWAP1 PUSH2 0x2DB SWAP1 PUSH2 0x1020 JUMP JUMPDEST SWAP2 SWAP1 POP SSTORE POP POP POP POP POP JUMP JUMPDEST PUSH0 PUSH1 0x20 MSTORE DUP1 PUSH0 MSTORE PUSH1 0x40 PUSH0 KECCAK256 PUSH0 SWAP2 POP SWAP1 POP DUP1 PUSH0 ADD PUSH0 SWAP1 SLOAD SWAP1 PUSH2 0x100 EXP SWAP1 DIV PUSH20 0xFFFFFFFFFFFFFFFFFFFFFFFFFFFFFFFFFFFFFFFF AND SWAP1 DUP1 PUSH1 0x1 ADD DUP1 SLOAD PUSH2 0x329 SWAP1 PUSH2 0xD57 JUMP JUMPDEST DUP1 PUSH1 0x1F ADD PUSH1 0x20 DUP1 SWAP2 DIV MUL PUSH1 0x20 ADD PUSH1 0x40 MLOAD SWAP1 DUP2 ADD PUSH1 0x40 MSTORE DUP1 SWAP3 SWAP2 SWAP1 DUP2 DUP2 MSTORE PUSH1 0x20 ADD DUP3 DUP1 SLOAD PUSH2 0x355 SWAP1 PUSH2 0xD57 JUMP JUMPDEST DUP1 ISZERO PUSH2 0x3A0 JUMPI DUP1 PUSH1 0x1F LT PUSH2 0x377 JUMPI PUSH2 0x100 DUP1 DUP4 SLOAD DIV MUL DUP4 MSTORE SWAP2 PUSH1 0x20 ADD SWAP2 PUSH2 0x3A0 JUMP JUMPDEST DUP3 ADD SWAP2 SWAP1 PUSH0 MSTORE PUSH1 0x20 PUSH0 KECCAK256 SWAP1 JUMPDEST DUP2 SLOAD DUP2 MSTORE SWAP1 PUSH1 0x1 ADD SWAP1 PUSH1 0x20 ADD DUP1 DUP4 GT PUSH2 0x383 JUMPI DUP3 SWAP1 SUB PUSH1 0x1F AND DUP3 ADD SWAP2 JUMPDEST POP POP POP POP POP SWAP1 DUP1 PUSH1 0x2 ADD SLOAD SWAP1 DUP1 PUSH1 0x3 ADD SLOAD SWAP1 DUP1 PUSH1 0x4 ADD SLOAD SWAP1 DUP1 PUSH1 0x5 ADD SLOAD SWAP1 POP DUP7 JUMP JUMPDEST PUSH1 0x2 SLOAD DUP2 JUMP JUMPDEST PUSH1 0x1 PUSH1 0x20 MSTORE DUP2 PUSH0 MSTORE PUSH1 0x40 PUSH0 KECCAK256 PUSH1 0x20 MSTORE DUP1 PUSH0 MSTORE PUSH1 0x40 PUSH0 KECCAK256 PUSH0 SWAP2 POP SWAP2 POP POP SLOAD DUP2 JUMP JUMPDEST PUSH0 DUP1 PUSH0 DUP5 DUP2 MSTORE PUSH1 0x20 ADD SWAP1 DUP2 MSTORE PUSH1 0x20 ADD PUSH0 KECCAK256 PUSH1 0x2 ADD SLOAD SUB PUSH2 0x43D JUMPI PUSH1 0x40 MLOAD PUSH32 0x8C379A000000000000000000000000000000000000000000000000000000000 DUP2 MSTORE PUSH1 0x4 ADD PUSH2 0x434 SWAP1 PUSH2 0x10B1 JUMP JUMPDEST PUSH1 0x40 MLOAD DUP1 SWAP2 SUB SWAP1 REVERT JUMPDEST TIMESTAMP PUSH0 DUP1 DUP5 DUP2 MSTORE PUSH1 0x20 ADD SWAP1 DUP2 MSTORE PUSH1 0x20 ADD PUSH0 KECCAK256 PUSH1 0x2 ADD SLOAD GT PUSH2 0x492 JUMPI PUSH1 0x40 MLOAD PUSH32 0x8C379A000000000000000000000000000000000000000000000000000000000 DUP2 MSTORE PUSH1 0x4 ADD PUSH2 0x489 SWAP1 PUSH2 0x1119 JUMP JUMPDEST PUSH1 0x40 MLOAD DUP1 SWAP2 SUB SWAP1 REVERT JUMPDEST PUSH0 DUP1 PUSH0 DUP5 DUP2 MSTORE PUSH1 0x20 ADD SWAP1 DUP2 MSTORE PUSH1 0x20 ADD PUSH0 KECCAK256 SWAP1 POP DUP2 DUP2 PUSH1 0x3 ADD SLOAD PUSH2 0x4B5 SWAP2 SWAP1 PUSH2 0x1137 JUMP JUMPDEST CALLVALUE EQ PUSH2 0x4F6 JUMPI PUSH1 0x40 MLOAD PUSH32 0x8C379A000000000000000000000000000000000000000000000000000000000 DUP2 MSTORE PUSH1 0x4 ADD PUSH2 0x4ED SWAP1 PUSH2 0x11C2 JUMP JUMPDEST PUSH1 0x40 MLOAD DUP1 SWAP2 SUB SWAP1 REVERT JUMPDEST DUP2 DUP2 PUSH1 0x5 ADD SLOAD LT ISZERO PUSH2 0x53D JUMPI PUSH1 0x40 MLOAD PUSH32 0x8C379A000000000000000000000000000000000000000000000000000000000 DUP2 MSTORE PUSH1 0x4 ADD PUSH2 0x534 SWAP1 PUSH2 0x122A JUMP JUMPDEST PUSH1 0x40 MLOAD DUP1 SWAP2 SUB SWAP1 REVERT JUMPDEST DUP2 DUP2 PUSH1 0x5 ADD PUSH0 DUP3 DUP3 SLOAD PUSH2 0x550 SWAP2 SWAP1 PUSH2 0x1248 JUMP JUMPDEST SWAP3 POP POP DUP2 SWAP1 SSTORE POP DUP2 PUSH1 0x1 PUSH0 CALLER PUSH20 0xFFFFFFFFFFFFFFFFFFFFFFFFFFFFFFFFFFFFFFFF AND PUSH20 0xFFFFFFFFFFFFFFFFFFFFFFFFFFFFFFFFFFFFFFFF AND DUP2 MSTORE PUSH1 0x20 ADD SWAP1 DUP2 MSTORE PUSH1 0x20 ADD PUSH0 KECCAK256 PUSH0 DUP6 DUP2 MSTORE PUSH1 0x20 ADD SWAP1 DUP2 MSTORE PUSH1 0x20 ADD PUSH0 KECCAK256 PUSH0 DUP3 DUP3 SLOAD PUSH2 0x5B2 SWAP2 SWAP1 PUSH2 0x127B JUMP JUMPDEST SWAP3 POP POP DUP2 SWAP1 SSTORE POP POP POP POP JUMP JUMPDEST PUSH0 DUP1 PUSH0 DUP6 DUP2 MSTORE PUSH1 0x20 ADD SWAP1 DUP2 MSTORE PUSH1 0x20 ADD PUSH0 KECCAK256 PUSH1 0x2 ADD SLOAD SUB PUSH2 0x613 JUMPI PUSH1 0x40 MLOAD PUSH32 0x8C379A000000000000000000000000000000000000000000000000000000000 DUP2 MSTORE PUSH1 0x4 ADD PUSH2 0x60A SWAP1 PUSH2 0x12F8 JUMP JUMPDEST PUSH1 0x40 MLOAD DUP1 SWAP2 SUB SWAP1 REVERT JUMPDEST TIMESTAMP PUSH0 DUP1 DUP6 DUP2 MSTORE PUSH1 0x20 ADD SWAP1 DUP2 MSTORE PUSH1 0x20 ADD PUSH0 KECCAK256 PUSH1 0x2 ADD SLOAD GT PUSH2 0x668 JUMPI PUSH1 0x40 MLOAD PUSH32 0x8C379A000000000000000000000000000000000000000000000000000000000 DUP2 MSTORE PUSH1 0x4 ADD PUSH2 0x65F SWAP1 PUSH2 0x1360 JUMP JUMPDEST PUSH1 0x40 MLOAD DUP1 SWAP2 SUB SWAP1 REVERT JUMPDEST DUP2 PUSH1 0x1 PUSH0 CALLER PUSH20 0xFFFFFFFFFFFFFFFFFFFFFFFFFFFFFFFFFFFFFFFF AND PUSH20 0xFFFFFFFFFFFFFFFFFFFFFFFFFFFFFFFFFFFFFFFF AND DUP2 MSTORE PUSH1 0x20 ADD SWAP1 DUP2 MSTORE PUSH1 0x20 ADD PUSH0 KECCAK256 PUSH0 DUP6 DUP2 MSTORE PUSH1 0x20 ADD SWAP1 DUP2 MSTORE PUSH1 0x20 ADD PUSH0 KECCAK256 SLOAD LT ISZERO PUSH2 0x6F7 JUMPI PUSH1 0x40 MLOAD PUSH32 0x8C379A000000000000000000000000000000000000000000000000000000000 DUP2 MSTORE PUSH1 0x4 ADD PUSH2 0x6EE SWAP1 PUSH2 0x13C8 JUMP JUMPDEST PUSH1 0x40 MLOAD DUP1 SWAP2 SUB SWAP1 REVERT JUMPDEST DUP2 PUSH1 0x1 PUSH0 CALLER PUSH20 0xFFFFFFFFFFFFFFFFFFFFFFFFFFFFFFFFFFFFFFFF AND PUSH20 0xFFFFFFFFFFFFFFFFFFFFFFFFFFFFFFFFFFFFFFFF AND DUP2 MSTORE PUSH1 0x20 ADD SWAP1 DUP2 MSTORE PUSH1 0x20 ADD PUSH0 KECCAK256 PUSH0 DUP6 DUP2 MSTORE PUSH1 0x20 ADD SWAP1 DUP2 MSTORE PUSH1 0x20 ADD PUSH0 KECCAK256 PUSH0 DUP3 DUP3 SLOAD PUSH2 0x752 SWAP2 SWAP1 PUSH2 0x1248 JUMP JUMPDEST SWAP3 POP POP DUP2 SWAP1 SSTORE POP DUP2 PUSH1 0x1 PUSH0 DUP4 PUSH20 0xFFFFFFFFFFFFFFFFFFFFFFFFFFFFFFFFFFFFFFFF AND PUSH20 0xFFFFFFFFFFFFFFFFFFFFFFFFFFFFFFFFFFFFFFFF AND DUP2 MSTORE PUSH1 0x20 ADD SWAP1 DUP2 MSTORE PUSH1 0x20 ADD PUSH0 KECCAK256 PUSH0 DUP6 DUP2 MSTORE PUSH1 0x20 ADD SWAP1 DUP2 MSTORE PUSH1 0x20 ADD PUSH0 KECCAK256 PUSH0 DUP3 DUP3 SLOAD PUSH2 0x7B4 SWAP2 SWAP1 PUSH2 0x127B JUMP JUMPDEST SWAP3 POP POP DUP2 SWAP1 SSTORE POP POP POP POP JUMP JUMPDEST PUSH0 PUSH1 0x40 MLOAD SWAP1 POP SWAP1 JUMP JUMPDEST PUSH0 DUP1 REVERT JUMPDEST PUSH0 DUP1 REVERT JUMPDEST PUSH0 DUP1 REVERT JUMPDEST PUSH0 DUP1 REVERT JUMPDEST PUSH0 PUSH1 0x1F NOT PUSH1 0x1F DUP4 ADD AND SWAP1 POP SWAP2 SWAP1 POP JUMP JUMPDEST PUSH32 0x4E487B7100000000000000000000000000000000000000000000000000000000 PUSH0 MSTORE PUSH1 0x41 PUSH1 0x4 MSTORE PUSH1 0x24 PUSH0 REVERT JUMPDEST PUSH2 0x81F DUP3 PUSH2 0x7D9 JUMP JUMPDEST DUP2 ADD DUP2 DUP2 LT PUSH8 0xFFFFFFFFFFFFFFFF DUP3 GT OR ISZERO PUSH2 0x83E JUMPI PUSH2 0x83D PUSH2 0x7E9 JUMP JUMPDEST JUMPDEST DUP1 PUSH1 0x40 MSTORE POP POP POP JUMP JUMPDEST PUSH0 PUSH2 0x850 PUSH2 0x7C0 JUMP JUMPDEST SWAP1 POP PUSH2 0x85C DUP3 DUP3 PUSH2 0x816 JUMP JUMPDEST SWAP2 SWAP1 POP JUMP JUMPDEST PUSH0 PUSH8 0xFFFFFFFFFFFFFFFF DUP3 GT ISZERO PUSH2 0x87B JUMPI PUSH2 0x87A PUSH2 0x7E9 JUMP JUMPDEST JUMPDEST PUSH2 0x884 DUP3 PUSH2 0x7D9 JUMP JUMPDEST SWAP1 POP PUSH1 0x20 DUP2 ADD SWAP1 POP SWAP2 SWAP1 POP JUMP JUMPDEST DUP3 DUP2 DUP4 CALLDATACOPY PUSH0 DUP4 DUP4 ADD MSTORE POP POP POP JUMP JUMPDEST PUSH0 PUSH2 0x8B1 PUSH2 0x8AC DUP5 PUSH2 0x861 JUMP JUMPDEST PUSH2 0x847 JUMP JUMPDEST SWAP1 POP DUP3 DUP2 MSTORE PUSH1 0x20 DUP2 ADD DUP5 DUP5 DUP5 ADD GT ISZERO PUSH2 0x8CD JUMPI PUSH2 0x8CC PUSH2 0x7D5 JUMP JUMPDEST JUMPDEST PUSH2 0x8D8 DUP5 DUP3 DUP6 PUSH2 0x891 JUMP JUMPDEST POP SWAP4 SWAP3 POP POP POP JUMP JUMPDEST PUSH0 DUP3 PUSH1 0x1F DUP4 ADD SLT PUSH2 0x8F4 JUMPI PUSH2 0x8F3 PUSH2 0x7D1 JUMP JUMPDEST JUMPDEST DUP2 CALLDATALOAD PUSH2 0x904 DUP5 DUP3 PUSH1 0x20 DUP7 ADD PUSH2 0x89F JUMP JUMPDEST SWAP2 POP POP SWAP3 SWAP2 POP POP JUMP JUMPDEST PUSH0 DUP2 SWAP1 POP SWAP2 SWAP1 POP JUMP JUMPDEST PUSH2 0x91F DUP2 PUSH2 0x90D JUMP JUMPDEST DUP2 EQ PUSH2 0x929 JUMPI PUSH0 DUP1 REVERT JUMPDEST POP JUMP JUMPDEST PUSH0 DUP2 CALLDATALOAD SWAP1 POP PUSH2 0x93A DUP2 PUSH2 0x916 JUMP JUMPDEST SWAP3 SWAP2 POP POP JUMP JUMPDEST PUSH0 DUP1 PUSH0 DUP1 PUSH1 0x80 DUP6 DUP8 SUB SLT ISZERO PUSH2 0x958 JUMPI PUSH2 0x957 PUSH2 0x7C9 JUMP JUMPDEST JUMPDEST PUSH0 DUP6 ADD CALLDATALOAD PUSH8 0xFFFFFFFFFFFFFFFF DUP2 GT ISZERO PUSH2 0x975 JUMPI PUSH2 0x974 PUSH2 0x7CD JUMP JUMPDEST JUMPDEST PUSH2 0x981 DUP8 DUP3 DUP9 ADD PUSH2 0x8E0 JUMP JUMPDEST SWAP5 POP POP PUSH1 0x20 PUSH2 0x992 DUP8 DUP3 DUP9 ADD PUSH2 0x92C JUMP JUMPDEST SWAP4 POP POP PUSH1 0x40 PUSH2 0x9A3 DUP8 DUP3 DUP9 ADD PUSH2 0x92C JUMP JUMPDEST SWAP3 POP POP PUSH1 0x60 PUSH2 0x9B4 DUP8 DUP3 DUP9 ADD PUSH2 0x92C JUMP JUMPDEST SWAP2 POP POP SWAP3 SWAP6 SWAP2 SWAP5 POP SWAP3 POP JUMP JUMPDEST PUSH0 PUSH1 0x20 DUP3 DUP5 SUB SLT ISZERO PUSH2 0x9D5 JUMPI PUSH2 0x9D4 PUSH2 0x7C9 JUMP JUMPDEST JUMPDEST PUSH0 PUSH2 0x9E2 DUP5 DUP3 DUP6 ADD PUSH2 0x92C JUMP JUMPDEST SWAP2 POP POP SWAP3 SWAP2 POP POP JUMP JUMPDEST PUSH0 PUSH20 0xFFFFFFFFFFFFFFFFFFFFFFFFFFFFFFFFFFFFFFFF DUP3 AND SWAP1 POP SWAP2 SWAP1 POP JUMP JUMPDEST PUSH0 PUSH2 0xA14 DUP3 PUSH2 0x9EB JUMP JUMPDEST SWAP1 POP SWAP2 SWAP1 POP JUMP JUMPDEST PUSH2 0xA24 DUP2 PUSH2 0xA0A JUMP JUMPDEST DUP3 MSTORE POP POP JUMP JUMPDEST PUSH0 DUP2 MLOAD SWAP1 POP SWAP2 SWAP1 POP JUMP JUMPDEST PUSH0 DUP3 DUP3 MSTORE PUSH1 0x20 DUP3 ADD SWAP1 POP SWAP3 SWAP2 POP POP JUMP JUMPDEST DUP3 DUP2 DUP4 MCOPY PUSH0 DUP4 DUP4 ADD MSTORE POP POP POP JUMP JUMPDEST PUSH0 PUSH2 0xA5C DUP3 PUSH2 0xA2A JUMP JUMPDEST PUSH2 0xA66 DUP2 DUP6 PUSH2 0xA34 JUMP JUMPDEST SWAP4 POP PUSH2 0xA76 DUP2 DUP6 PUSH1 0x20 DUP7 ADD PUSH2 0xA44 JUMP JUMPDEST PUSH2 0xA7F DUP2 PUSH2 0x7D9 JUMP JUMPDEST DUP5 ADD SWAP2 POP POP SWAP3 SWAP2 POP POP JUMP JUMPDEST PUSH2 0xA93 DUP2 PUSH2 0x90D JUMP JUMPDEST DUP3 MSTORE POP POP JUMP JUMPDEST PUSH0 PUSH1 0xC0 DUP3 ADD SWAP1 POP PUSH2 0xAAC PUSH0 DUP4 ADD DUP10 PUSH2 0xA1B JUMP JUMPDEST DUP2 DUP2 SUB PUSH1 0x20 DUP4 ADD MSTORE PUSH2 0xABE DUP2 DUP9 PUSH2 0xA52 JUMP JUMPDEST SWAP1 POP PUSH2 0xACD PUSH1 0x40 DUP4 ADD DUP8 PUSH2 0xA8A JUMP JUMPDEST PUSH2 0xADA PUSH1 0x60 DUP4 ADD DUP7 PUSH2 0xA8A JUMP JUMPDEST PUSH2 0xAE7 PUSH1 0x80 DUP4 ADD DUP6 PUSH2 0xA8A JUMP JUMPDEST PUSH2 0xAF4 PUSH1 0xA0 DUP4 ADD DUP5 PUSH2 0xA8A JUMP JUMPDEST SWAP8 SWAP7 POP POP POP POP POP POP POP JUMP JUMPDEST PUSH0 PUSH1 0x20 DUP3 ADD SWAP1 POP PUSH2 0xB12 PUSH0 DUP4 ADD DUP5 PUSH2 0xA8A JUMP JUMPDEST SWAP3 SWAP2 POP POP JUMP JUMPDEST PUSH2 0xB21 DUP2 PUSH2 0xA0A JUMP JUMPDEST DUP2 EQ PUSH2 0xB2B JUMPI PUSH0 DUP1 REVERT JUMPDEST POP JUMP JUMPDEST PUSH0 DUP2 CALLDATALOAD SWAP1 POP PUSH2 0xB3C DUP2 PUSH2 0xB18 JUMP JUMPDEST SWAP3 SWAP2 POP POP JUMP JUMPDEST PUSH0 DUP1 PUSH1 0x40 DUP4 DUP6 SUB SLT ISZERO PUSH2 0xB58 JUMPI PUSH2 0xB57 PUSH2 0x7C9 JUMP JUMPDEST JUMPDEST PUSH0 PUSH2 0xB65 DUP6 DUP3 DUP7 ADD PUSH2 0xB2E JUMP JUMPDEST SWAP3 POP POP PUSH1 0x20 PUSH2 0xB76 DUP6 DUP3 DUP7 ADD PUSH2 0x92C JUMP JUMPDEST SWAP2 POP POP SWAP3 POP SWAP3 SWAP1 POP JUMP JUMPDEST PUSH0 DUP1 PUSH1 0x40 DUP4 DUP6 SUB SLT ISZERO PUSH2 0xB96 JUMPI PUSH2 0xB95 PUSH2 0x7C9 JUMP JUMPDEST JUMPDEST PUSH0 PUSH2 0xBA3 DUP6 DUP3 DUP7 ADD PUSH2 0x92C JUMP JUMPDEST SWAP3 POP POP PUSH1 0x20 PUSH2 0xBB4 DUP6 DUP3 DUP7 ADD PUSH2 0x92C JUMP JUMPDEST SWAP2 POP POP SWAP3 POP SWAP3 SWAP1 POP JUMP JUMPDEST PUSH0 DUP1 PUSH0 PUSH1 0x60 DUP5 DUP7 SUB SLT ISZERO PUSH2 0xBD5 JUMPI PUSH2 0xBD4 PUSH2 0x7C9 JUMP JUMPDEST JUMPDEST PUSH0 PUSH2 0xBE2 DUP7 DUP3 DUP8 ADD PUSH2 0x92C JUMP JUMPDEST SWAP4 POP POP PUSH1 0x20 PUSH2 0xBF3 DUP7 DUP3 DUP8 ADD PUSH2 0x92C JUMP JUMPDEST SWAP3 POP POP PUSH1 0x40 PUSH2 0xC04 DUP7 DUP3 DUP8 ADD PUSH2 0xB2E JUMP JUMPDEST SWAP2 POP POP SWAP3 POP SWAP3 POP SWAP3 JUMP JUMPDEST PUSH32 0x596F752063616E206F7267616E697A65206576656E7420666F72206675747572 PUSH0 DUP3 ADD MSTORE PUSH32 0x6520646174650000000000000000000000000000000000000000000000000000 PUSH1 0x20 DUP3 ADD MSTORE POP JUMP JUMPDEST PUSH0 PUSH2 0xC68 PUSH1 0x26 DUP4 PUSH2 0xA34 JUMP JUMPDEST SWAP2 POP PUSH2 0xC73 DUP3 PUSH2 0xC0E JUMP JUMPDEST PUSH1 0x40 DUP3 ADD SWAP1 POP SWAP2 SWAP1 POP JUMP JUMPDEST PUSH0 PUSH1 0x20 DUP3 ADD SWAP1 POP DUP2 DUP2 SUB PUSH0 DUP4 ADD MSTORE PUSH2 0xC95 DUP2 PUSH2 0xC5C JUMP JUMPDEST SWAP1 POP SWAP2 SWAP1 POP JUMP JUMPDEST PUSH32 0x596F752063616E206F7267616E697365206576656E74206F6E6C792069662079 PUSH0 DUP3 ADD MSTORE PUSH32 0x6F7520637265617465206D6F7265207468616E2030207469636B657473000000 PUSH1 0x20 DUP3 ADD MSTORE POP JUMP JUMPDEST PUSH0 PUSH2 0xCF6 PUSH1 0x3D DUP4 PUSH2 0xA34 JUMP JUMPDEST SWAP2 POP PUSH2 0xD01 DUP3 PUSH2 0xC9C JUMP JUMPDEST PUSH1 0x40 DUP3 ADD SWAP1 POP SWAP2 SWAP1 POP JUMP JUMPDEST PUSH0 PUSH1 0x20 DUP3 ADD SWAP1 POP DUP2 DUP2 SUB PUSH0 DUP4 ADD MSTORE PUSH2 0xD23 DUP2 PUSH2 0xCEA JUMP JUMPDEST SWAP1 POP SWAP2 SWAP1 POP JUMP JUMPDEST PUSH32 0x4E487B7100000000000000000000000000000000000000000000000000000000 PUSH0 MSTORE PUSH1 0x22 PUSH1 0x4 MSTORE PUSH1 0x24 PUSH0 REVERT JUMPDEST PUSH0 PUSH1 0x2 DUP3 DIV SWAP1 POP PUSH1 0x1 DUP3 AND DUP1 PUSH2 0xD6E JUMPI PUSH1 0x7F DUP3 AND SWAP2 POP JUMPDEST PUSH1 0x20 DUP3 LT DUP2 SUB PUSH2 0xD81 JUMPI PUSH2 0xD80 PUSH2 0xD2A JUMP JUMPDEST JUMPDEST POP SWAP2 SWAP1 POP JUMP JUMPDEST PUSH0 DUP2 SWAP1 POP DUP2 PUSH0 MSTORE PUSH1 0x20 PUSH0 KECCAK256 SWAP1 POP SWAP2 SWAP1 POP JUMP JUMPDEST PUSH0 PUSH1 0x20 PUSH1 0x1F DUP4 ADD DIV SWAP1 POP SWAP2 SWAP1 POP JUMP JUMPDEST PUSH0 DUP3 DUP3 SHL SWAP1 POP SWAP3 SWAP2 POP POP JUMP JUMPDEST PUSH0 PUSH1 0x8 DUP4 MUL PUSH2 0xDE3 PUSH32 0xFFFFFFFFFFFFFFFFFFFFFFFFFFFFFFFFFFFFFFFFFFFFFFFFFFFFFFFFFFFFFFFF DUP3 PUSH2 0xDA8 JUMP JUMPDEST PUSH2 0xDED DUP7 DUP4 PUSH2 0xDA8 JUMP JUMPDEST SWAP6 POP DUP1 NOT DUP5 AND SWAP4 POP DUP1 DUP7 AND DUP5 OR SWAP3 POP POP POP SWAP4 SWAP3 POP POP POP JUMP JUMPDEST PUSH0 DUP2 SWAP1 POP SWAP2 SWAP1 POP JUMP JUMPDEST PUSH0 PUSH2 0xE28 PUSH2 0xE23 PUSH2 0xE1E DUP5 PUSH2 0x90D JUMP JUMPDEST PUSH2 0xE05 JUMP JUMPDEST PUSH2 0x90D JUMP JUMPDEST SWAP1 POP SWAP2 SWAP1 POP JUMP JUMPDEST PUSH0 DUP2 SWAP1 POP SWAP2 SWAP1 POP JUMP JUMPDEST PUSH2 0xE41 DUP4 PUSH2 0xE0E JUMP JUMPDEST PUSH2 0xE55 PUSH2 0xE4D DUP3 PUSH2 0xE2F JUMP JUMPDEST DUP5 DUP5 SLOAD PUSH2 0xDB4 JUMP JUMPDEST DUP3 SSTORE POP POP POP POP JUMP JUMPDEST PUSH0 SWAP1 JUMP JUMPDEST PUSH2 0xE69 PUSH2 0xE5D JUMP JUMPDEST PUSH2 0xE74 DUP2 DUP5 DUP5 PUSH2 0xE38 JUMP JUMPDEST POP POP POP JUMP JUMPDEST JUMPDEST DUP2 DUP2 LT ISZERO PUSH2 0xE97 JUMPI PUSH2 0xE8C PUSH0 DUP3 PUSH2 0xE61 JUMP JUMPDEST PUSH1 0x1 DUP2 ADD SWAP1 POP PUSH2 0xE7A JUMP JUMPDEST POP POP JUMP JUMPDEST PUSH1 0x1F DUP3 GT ISZERO PUSH2 0xEDC JUMPI PUSH2 0xEAD DUP2 PUSH2 0xD87 JUMP JUMPDEST PUSH2 0xEB6 DUP5 PUSH2 0xD99 JUMP JUMPDEST DUP2 ADD PUSH1 0x20 DUP6 LT ISZERO PUSH2 0xEC5 JUMPI DUP2 SWAP1 POP JUMPDEST PUSH2 0xED9 PUSH2 0xED1 DUP6 PUSH2 0xD99 JUMP JUMPDEST DUP4 ADD DUP3 PUSH2 0xE79 JUMP JUMPDEST POP POP JUMPDEST POP POP POP JUMP JUMPDEST PUSH0 DUP3 DUP3 SHR SWAP1 POP SWAP3 SWAP2 POP POP JUMP JUMPDEST PUSH0 PUSH2 0xEFC PUSH0 NOT DUP5 PUSH1 0x8 MUL PUSH2 0xEE1 JUMP JUMPDEST NOT DUP1 DUP4 AND SWAP2 POP POP SWAP3 SWAP2 POP POP JUMP JUMPDEST PUSH0 PUSH2 0xF14 DUP4 DUP4 PUSH2 0xEED JUMP JUMPDEST SWAP2 POP DUP3 PUSH1 0x2 MUL DUP3 OR SWAP1 POP SWAP3 SWAP2 POP POP JUMP JUMPDEST PUSH2 0xF2D DUP3 PUSH2 0xA2A JUMP JUMPDEST PUSH8 0xFFFFFFFFFFFFFFFF DUP2 GT ISZERO PUSH2 0xF46 JUMPI PUSH2 0xF45 PUSH2 0x7E9 JUMP JUMPDEST JUMPDEST PUSH2 0xF50 DUP3 SLOAD PUSH2 0xD57 JUMP JUMPDEST PUSH2 0xF5B DUP3 DUP3 DUP6 PUSH2 0xE9B JUMP JUMPDEST PUSH0 PUSH1 0x20 SWAP1 POP PUSH1 0x1F DUP4 GT PUSH1 0x1 DUP2 EQ PUSH2 0xF8C JUMPI PUSH0 DUP5 ISZERO PUSH2 0xF7A JUMPI DUP3 DUP8 ADD MLOAD SWAP1 POP JUMPDEST PUSH2 0xF84 DUP6 DUP3 PUSH2 0xF09 JUMP JUMPDEST DUP7 SSTORE POP PUSH2 0xFEB JUMP JUMPDEST PUSH1 0x1F NOT DUP5 AND PUSH2 0xF9A DUP7 PUSH2 0xD87 JUMP JUMPDEST PUSH0 JUMPDEST DUP3 DUP2 LT ISZERO PUSH2 0xFC1 JUMPI DUP5 DUP10 ADD MLOAD DUP3 SSTORE PUSH1 0x1 DUP3 ADD SWAP2 POP PUSH1 0x20 DUP6 ADD SWAP5 POP PUSH1 0x20 DUP2 ADD SWAP1 POP PUSH2 0xF9C JUMP JUMPDEST DUP7 DUP4 LT ISZERO PUSH2 0xFDE JUMPI DUP5 DUP10 ADD MLOAD PUSH2 0xFDA PUSH1 0x1F DUP10 AND DUP3 PUSH2 0xEED JUMP JUMPDEST DUP4 SSTORE POP JUMPDEST PUSH1 0x1 PUSH1 0x2 DUP9 MUL ADD DUP9 SSTORE POP POP POP JUMPDEST POP POP POP POP POP POP JUMP JUMPDEST PUSH32 0x4E487B7100000000000000000000000000000000000000000000000000000000 PUSH0 MSTORE PUSH1 0x11 PUSH1 0x4 MSTORE PUSH1 0x24 PUSH0 REVERT JUMPDEST PUSH0 PUSH2 0x102A DUP3 PUSH2 0x90D JUMP JUMPDEST SWAP2 POP PUSH32 0xFFFFFFFFFFFFFFFFFFFFFFFFFFFFFFFFFFFFFFFFFFFFFFFFFFFFFFFFFFFFFFFF DUP3 SUB PUSH2 0x105C JUMPI PUSH2 0x105B PUSH2 0xFF3 JUMP JUMPDEST JUMPDEST PUSH1 0x1 DUP3 ADD SWAP1 POP SWAP2 SWAP1 POP JUMP JUMPDEST PUSH32 0x4576656E7420646F6573206E6F74206578697374000000000000000000000000 PUSH0 DUP3 ADD MSTORE POP JUMP JUMPDEST PUSH0 PUSH2 0x109B PUSH1 0x14 DUP4 PUSH2 0xA34 JUMP JUMPDEST SWAP2 POP PUSH2 0x10A6 DUP3 PUSH2 0x1067 JUMP JUMPDEST PUSH1 0x20 DUP3 ADD SWAP1 POP SWAP2 SWAP1 POP JUMP JUMPDEST PUSH0 PUSH1 0x20 DUP3 ADD SWAP1 POP DUP2 DUP2 SUB PUSH0 DUP4 ADD MSTORE PUSH2 0x10C8 DUP2 PUSH2 0x108F JUMP JUMPDEST SWAP1 POP SWAP2 SWAP1 POP JUMP JUMPDEST PUSH32 0x4576656E742068617320616C7265616479206F63637572656400000000000000 PUSH0 DUP3 ADD MSTORE POP JUMP JUMPDEST PUSH0 PUSH2 0x1103 PUSH1 0x19 DUP4 PUSH2 0xA34 JUMP JUMPDEST SWAP2 POP PUSH2 0x110E DUP3 PUSH2 0x10CF JUMP JUMPDEST PUSH1 0x20 DUP3 ADD SWAP1 POP SWAP2 SWAP1 POP JUMP JUMPDEST PUSH0 PUSH1 0x20 DUP3 ADD SWAP1 POP DUP2 DUP2 SUB PUSH0 DUP4 ADD MSTORE PUSH2 0x1130 DUP2 PUSH2 0x10F7 JUMP JUMPDEST SWAP1 POP SWAP2 SWAP1 POP JUMP JUMPDEST PUSH0 PUSH2 0x1141 DUP3 PUSH2 0x90D JUMP JUMPDEST SWAP2 POP PUSH2 0x114C DUP4 PUSH2 0x90D JUMP JUMPDEST SWAP3 POP DUP3 DUP3 MUL PUSH2 0x115A DUP2 PUSH2 0x90D JUMP JUMPDEST SWAP2 POP DUP3 DUP3 DIV DUP5 EQ DUP4 ISZERO OR PUSH2 0x1171 JUMPI PUSH2 0x1170 PUSH2 0xFF3 JUMP JUMPDEST JUMPDEST POP SWAP3 SWAP2 POP POP JUMP JUMPDEST PUSH32 0x6574686572206973206E6F7420656E6F75676800000000000000000000000000 PUSH0 DUP3 ADD MSTORE POP JUMP JUMPDEST PUSH0 PUSH2 0x11AC PUSH1 0x13 DUP4 PUSH2 0xA34 JUMP JUMPDEST SWAP2 POP PUSH2 0x11B7 DUP3 PUSH2 0x1178 JUMP JUMPDEST PUSH1 0x20 DUP3 ADD SWAP1 POP SWAP2 SWAP1 POP JUMP JUMPDEST PUSH0 PUSH1 0x20 DUP3 ADD SWAP1 POP DUP2 DUP2 SUB PUSH0 DUP4 ADD MSTORE PUSH2 0x11D9 DUP2 PUSH2 0x11A0 JUMP JUMPDEST SWAP1 POP SWAP2 SWAP1 POP JUMP JUMPDEST PUSH32 0x4E6F7420656E6F756768207469636B6574730000000000000000000000000000 PUSH0 DUP3 ADD MSTORE POP JUMP JUMPDEST PUSH0 PUSH2 0x1214 PUSH1 0x12 DUP4 PUSH2 0xA34 JUMP JUMPDEST SWAP2 POP PUSH2 0x121F DUP3 PUSH2 0x11E0 JUMP JUMPDEST PUSH1 0x20 DUP3 ADD SWAP1 POP SWAP2 SWAP1 POP JUMP JUMPDEST PUSH0 PUSH1 0x20 DUP3 ADD SWAP1 POP DUP2 DUP2 SUB PUSH0 DUP4 ADD MSTORE PUSH2 0x1241 DUP2 PUSH2 0x1208 JUMP JUMPDEST SWAP1 POP SWAP2 SWAP1 POP JUMP JUMPDEST PUSH0 PUSH2 0x1252 DUP3 PUSH2 0x90D JUMP JUMPDEST SWAP2 POP PUSH2 0x125D DUP4 PUSH2 0x90D JUMP JUMPDEST SWAP3 POP DUP3 DUP3 SUB SWAP1 POP DUP2 DUP2 GT ISZERO PUSH2 0x1275 JUMPI PUSH2 0x1274 PUSH2 0xFF3 JUMP JUMPDEST JUMPDEST SWAP3 SWAP2 POP POP JUMP JUMPDEST PUSH0 PUSH2 0x1285 DUP3 PUSH2 0x90D JUMP JUMPDEST SWAP2 POP PUSH2 0x1290 DUP4 PUSH2 0x90D JUMP JUMPDEST SWAP3 POP DUP3 DUP3 ADD SWAP1 POP DUP1 DUP3 GT ISZERO PUSH2 0x12A8 JUMPI PUSH2 0x12A7 PUSH2 0xFF3 JUMP JUMPDEST JUMPDEST SWAP3 SWAP2 POP POP JUMP JUMPDEST PUSH32 0x6576656E7420646F6573206E6F74206578697374000000000000000000000000 PUSH0 DUP3 ADD MSTORE POP JUMP JUMPDEST PUSH0 PUSH2 0x12E2 PUSH1 0x14 DUP4 PUSH2 0xA34 JUMP JUMPDEST SWAP2 POP PUSH2 0x12ED DUP3 PUSH2 0x12AE JUMP JUMPDEST PUSH1 0x20 DUP3 ADD SWAP1 POP SWAP2 SWAP1 POP JUMP JUMPDEST PUSH0 PUSH1 0x20 DUP3 ADD SWAP1 POP DUP2 DUP2 SUB PUSH0 DUP4 ADD MSTORE PUSH2 0x130F DUP2 PUSH2 0x12D6 JUMP JUMPDEST SWAP1 POP SWAP2 SWAP1 POP JUMP JUMPDEST PUSH32 0x6576656E742068617320616C7265616479206F63637572656400000000000000 PUSH0 DUP3 ADD MSTORE POP JUMP JUMPDEST PUSH0 PUSH2 0x134A PUSH1 0x19 DUP4 PUSH2 0xA34 JUMP JUMPDEST SWAP2 POP PUSH2 0x1355 DUP3 PUSH2 0x1316 JUMP JUMPDEST PUSH1 0x20 DUP3 ADD SWAP1 POP SWAP2 SWAP1 POP JUMP JUMPDEST PUSH0 PUSH1 0x20 DUP3 ADD SWAP1 POP DUP2 DUP2 SUB PUSH0 DUP4 ADD MSTORE PUSH2 0x1377 DUP2 PUSH2 0x133E JUMP JUMPDEST SWAP1 POP SWAP2 SWAP1 POP JUMP JUMPDEST PUSH32 0x796F7520646F206E6F74206861766520656E6F756768207469636B6574730000 PUSH0 DUP3 ADD MSTORE POP JUMP JUMPDEST PUSH0 PUSH2 0x13B2 PUSH1 0x1E DUP4 PUSH2 0xA34 JUMP JUMPDEST SWAP2 POP PUSH2 0x13BD DUP3 PUSH2 0x137E JUMP JUMPDEST PUSH1 0x20 DUP3 ADD SWAP1 POP SWAP2 SWAP1 POP JUMP JUMPDEST PUSH0 PUSH1 0x20 DUP3 ADD SWAP1 POP DUP2 DUP2 SUB PUSH0 DUP4 ADD MSTORE PUSH2 0x13DF DUP2 PUSH2 0x13A6 JUMP JUMPDEST SWAP1 POP SWAP2 SWAP1 POP JUMP INVALID LOG2 PUSH5 0x6970667358 0x22 SLT KECCAK256 DUP7 0xD SWAP4 RETURN GASPRICE 0xE9 0xE 0xCC PUSH13 0x5F16C7C1E8982CCBB639B40795 0xC6 0x26 NOT 0xCB 0x4B 0x4E OR 0xC6 0x22 0x22 PUSH5 0x736F6C6343 STOP ADDMOD BYTE STOP CALLER "
				},
				"gasEstimates": {
					"creation": {
						"codeDepositCost": "1029600",
						"executionCost": "1065",
						"totalCost": "1030665"
					},
					"external": {
						"ButTicket(uint256,uint256)": "infinite",
						"createEvent(string,uint256,uint256,uint256)": "infinite",
						"events(uint256)": "infinite",
						"nextId()": "2447",
						"tickets(address,uint256)": "infinite",
						"transferTicket(uint256,uint256,address)": "infinite"
					}
				},
				"methodIdentifiers": {
					"ButTicket(uint256,uint256)": "ef523f71",
					"createEvent(string,uint256,uint256,uint256)": "0374ab0b",
					"events(uint256)": "0b791430",
					"nextId()": "61b8ce8c",
					"tickets(address,uint256)": "dae7a13c",
					"transferTicket(uint256,uint256,address)": "f086a09b"
				}
			},
			"storageLayout": {
				"storage": [
					{
						"astId": 19,
						"contract": "MSE804-Blockchain/3_Ballot.sol:EventOrganizer",
						"label": "events",
						"offset": 0,
						"slot": "0",
						"type": "t_mapping(t_uint256,t_struct(Event)14_storage)"
					},
					{
						"astId": 25,
						"contract": "MSE804-Blockchain/3_Ballot.sol:EventOrganizer",
						"label": "tickets",
						"offset": 0,
						"slot": "1",
						"type": "t_mapping(t_address,t_mapping(t_uint256,t_uint256))"
					},
					{
						"astId": 27,
						"contract": "MSE804-Blockchain/3_Ballot.sol:EventOrganizer",
						"label": "nextId",
						"offset": 0,
						"slot": "2",
						"type": "t_uint256"
					}
				],
				"types": {
					"t_address": {
						"encoding": "inplace",
						"label": "address",
						"numberOfBytes": "20"
					},
					"t_mapping(t_address,t_mapping(t_uint256,t_uint256))": {
						"encoding": "mapping",
						"key": "t_address",
						"label": "mapping(address => mapping(uint256 => uint256))",
						"numberOfBytes": "32",
						"value": "t_mapping(t_uint256,t_uint256)"
					},
					"t_mapping(t_uint256,t_struct(Event)14_storage)": {
						"encoding": "mapping",
						"key": "t_uint256",
						"label": "mapping(uint256 => struct EventOrganizer.Event)",
						"numberOfBytes": "32",
						"value": "t_struct(Event)14_storage"
					},
					"t_mapping(t_uint256,t_uint256)": {
						"encoding": "mapping",
						"key": "t_uint256",
						"label": "mapping(uint256 => uint256)",
						"numberOfBytes": "32",
						"value": "t_uint256"
					},
					"t_string_storage": {
						"encoding": "bytes",
						"label": "string",
						"numberOfBytes": "32"
					},
					"t_struct(Event)14_storage": {
						"encoding": "inplace",
						"label": "struct EventOrganizer.Event",
						"members": [
							{
								"astId": 3,
								"contract": "MSE804-Blockchain/3_Ballot.sol:EventOrganizer",
								"label": "organizar",
								"offset": 0,
								"slot": "0",
								"type": "t_address"
							},
							{
								"astId": 5,
								"contract": "MSE804-Blockchain/3_Ballot.sol:EventOrganizer",
								"label": "name",
								"offset": 0,
								"slot": "1",
								"type": "t_string_storage"
							},
							{
								"astId": 7,
								"contract": "MSE804-Blockchain/3_Ballot.sol:EventOrganizer",
								"label": "date",
								"offset": 0,
								"slot": "2",
								"type": "t_uint256"
							},
							{
								"astId": 9,
								"contract": "MSE804-Blockchain/3_Ballot.sol:EventOrganizer",
								"label": "price",
								"offset": 0,
								"slot": "3",
								"type": "t_uint256"
							},
							{
								"astId": 11,
								"contract": "MSE804-Blockchain/3_Ballot.sol:EventOrganizer",
								"label": "ticketCount",
								"offset": 0,
								"slot": "4",
								"type": "t_uint256"
							},
							{
								"astId": 13,
								"contract": "MSE804-Blockchain/3_Ballot.sol:EventOrganizer",
								"label": "ticketRemain",
								"offset": 0,
								"slot": "5",
								"type": "t_uint256"
							}
						],
						"numberOfBytes": "192"
					},
					"t_uint256": {
						"encoding": "inplace",
						"label": "uint256",
						"numberOfBytes": "32"
					}
				}
			},
			"userdoc": {
				"kind": "user",
				"methods": {},
				"version": 1
			}
		}
	}
}