{
	"MSE804-Blockchain/bank_acct_contract.sol": {
		"SavingsAccount": {
			"abi": [
				{
					"inputs": [],
					"name": "calculateInterest",
					"outputs": [
						{
							"internalType": "uint256",
							"name": "",
							"type": "uint256"
						}
					],
					"stateMutability": "view",
					"type": "function"
				},
				{
					"inputs": [],
					"name": "deposit",
					"outputs": [],
					"stateMutability": "payable",
					"type": "function"
				},
				{
					"inputs": [],
					"name": "getBalance",
					"outputs": [
						{
							"internalType": "uint256",
							"name": "",
							"type": "uint256"
						}
					],
					"stateMutability": "view",
					"type": "function"
				},
				{
					"inputs": [],
					"name": "interestRate",
					"outputs": [
						{
							"internalType": "uint256",
							"name": "",
							"type": "uint256"
						}
					],
					"stateMutability": "view",
					"type": "function"
				}
			],
			"devdoc": {
				"kind": "dev",
				"methods": {},
				"version": 1
			},
			"evm": {
				"assembly": "    /* \"MSE804-Blockchain/bank_acct_contract.sol\":971:1543  contract SavingsAccount is BankAccount {... */\n  mstore(0x40, 0x80)\n    /* \"MSE804-Blockchain/bank_acct_contract.sol\":1047:1048  5 */\n  0x05\n    /* \"MSE804-Blockchain/bank_acct_contract.sol\":1017:1048  uint256 public interestRate = 5 */\n  0x01\n  sstore\n    /* \"MSE804-Blockchain/bank_acct_contract.sol\":971:1543  contract SavingsAccount is BankAccount {... */\n  callvalue\n  dup1\n  iszero\n  tag_1\n  jumpi\n  0x00\n  dup1\n  revert\ntag_1:\n  pop\n  dataSize(sub_0)\n  dup1\n  dataOffset(sub_0)\n  0x00\n  codecopy\n  0x00\n  return\nstop\n\nsub_0: assembly {\n        /* \"MSE804-Blockchain/bank_acct_contract.sol\":971:1543  contract SavingsAccount is BankAccount {... */\n      mstore(0x40, 0x80)\n      jumpi(tag_1, lt(calldatasize, 0x04))\n      shr(0xe0, calldataload(0x00))\n      dup1\n      0x12065fe0\n      eq\n      tag_2\n      jumpi\n      dup1\n      0x7c3a00fd\n      eq\n      tag_3\n      jumpi\n      dup1\n      0xd0e30db0\n      eq\n      tag_4\n      jumpi\n      dup1\n      0xeb0c4955\n      eq\n      tag_5\n      jumpi\n    tag_1:\n      0x00\n      dup1\n      revert\n        /* \"MSE804-Blockchain/bank_acct_contract.sol\":545:715  function getBalance() public view returns (uint256) {... */\n    tag_2:\n      callvalue\n      dup1\n      iszero\n      tag_6\n      jumpi\n      0x00\n      dup1\n      revert\n    tag_6:\n      pop\n      tag_7\n      tag_8\n      jump\t// in\n    tag_7:\n      mload(0x40)\n      tag_9\n      swap2\n      swap1\n      tag_10\n      jump\t// in\n    tag_9:\n      mload(0x40)\n      dup1\n      swap2\n      sub\n      swap1\n      return\n        /* \"MSE804-Blockchain/bank_acct_contract.sol\":1017:1048  uint256 public interestRate = 5 */\n    tag_3:\n      callvalue\n      dup1\n      iszero\n      tag_11\n      jumpi\n      0x00\n      dup1\n      revert\n    tag_11:\n      pop\n      tag_12\n      tag_13\n      jump\t// in\n    tag_12:\n      mload(0x40)\n      tag_14\n      swap2\n      swap1\n      tag_10\n      jump\t// in\n    tag_14:\n      mload(0x40)\n      dup1\n      swap2\n      sub\n      swap1\n      return\n        /* \"MSE804-Blockchain/bank_acct_contract.sol\":317:474  function deposit() public payable {... */\n    tag_4:\n      tag_15\n      tag_16\n      jump\t// in\n    tag_15:\n      stop\n        /* \"MSE804-Blockchain/bank_acct_contract.sol\":1177:1540  function calculateInterest() public view returns (uint256) {... */\n    tag_5:\n      callvalue\n      dup1\n      iszero\n      tag_17\n      jumpi\n      0x00\n      dup1\n      revert\n    tag_17:\n      pop\n      tag_18\n      tag_19\n      jump\t// in\n    tag_18:\n      mload(0x40)\n      tag_20\n      swap2\n      swap1\n      tag_10\n      jump\t// in\n    tag_20:\n      mload(0x40)\n      dup1\n      swap2\n      sub\n      swap1\n      return\n        /* \"MSE804-Blockchain/bank_acct_contract.sol\":545:715  function getBalance() public view returns (uint256) {... */\n    tag_8:\n        /* \"MSE804-Blockchain/bank_acct_contract.sol\":588:595  uint256 */\n      0x00\n        /* \"MSE804-Blockchain/bank_acct_contract.sol\":687:695  balances */\n      dup1\n        /* \"MSE804-Blockchain/bank_acct_contract.sol\":687:707  balances[msg.sender] */\n      0x00\n        /* \"MSE804-Blockchain/bank_acct_contract.sol\":696:706  msg.sender */\n      caller\n        /* \"MSE804-Blockchain/bank_acct_contract.sol\":687:707  balances[msg.sender] */\n      0xffffffffffffffffffffffffffffffffffffffff\n      and\n      0xffffffffffffffffffffffffffffffffffffffff\n      and\n      dup2\n      mstore\n      0x20\n      add\n      swap1\n      dup2\n      mstore\n      0x20\n      add\n      0x00\n      keccak256\n      sload\n        /* \"MSE804-Blockchain/bank_acct_contract.sol\":680:707  return balances[msg.sender] */\n      swap1\n      pop\n        /* \"MSE804-Blockchain/bank_acct_contract.sol\":545:715  function getBalance() public view returns (uint256) {... */\n      swap1\n      jump\t// out\n        /* \"MSE804-Blockchain/bank_acct_contract.sol\":1017:1048  uint256 public interestRate = 5 */\n    tag_13:\n      sload(0x01)\n      dup2\n      jump\t// out\n        /* \"MSE804-Blockchain/bank_acct_contract.sol\":317:474  function deposit() public payable {... */\n    tag_16:\n        /* \"MSE804-Blockchain/bank_acct_contract.sol\":457:466  msg.value */\n      callvalue\n        /* \"MSE804-Blockchain/bank_acct_contract.sol\":433:441  balances */\n      0x00\n        /* \"MSE804-Blockchain/bank_acct_contract.sol\":433:453  balances[msg.sender] */\n      dup1\n        /* \"MSE804-Blockchain/bank_acct_contract.sol\":442:452  msg.sender */\n      caller\n        /* \"MSE804-Blockchain/bank_acct_contract.sol\":433:453  balances[msg.sender] */\n      0xffffffffffffffffffffffffffffffffffffffff\n      and\n      0xffffffffffffffffffffffffffffffffffffffff\n      and\n      dup2\n      mstore\n      0x20\n      add\n      swap1\n      dup2\n      mstore\n      0x20\n      add\n      0x00\n      keccak256\n      0x00\n        /* \"MSE804-Blockchain/bank_acct_contract.sol\":433:466  balances[msg.sender] += msg.value */\n      dup3\n      dup3\n      sload\n      tag_23\n      swap2\n      swap1\n      tag_24\n      jump\t// in\n    tag_23:\n      swap3\n      pop\n      pop\n      dup2\n      swap1\n      sstore\n      pop\n        /* \"MSE804-Blockchain/bank_acct_contract.sol\":317:474  function deposit() public payable {... */\n      jump\t// out\n        /* \"MSE804-Blockchain/bank_acct_contract.sol\":1177:1540  function calculateInterest() public view returns (uint256) {... */\n    tag_19:\n        /* \"MSE804-Blockchain/bank_acct_contract.sol\":1227:1234  uint256 */\n      0x00\n        /* \"MSE804-Blockchain/bank_acct_contract.sol\":1328:1343  uint256 balance */\n      dup1\n        /* \"MSE804-Blockchain/bank_acct_contract.sol\":1346:1377  _getInternalBalance(msg.sender) */\n      tag_26\n        /* \"MSE804-Blockchain/bank_acct_contract.sol\":1366:1376  msg.sender */\n      caller\n        /* \"MSE804-Blockchain/bank_acct_contract.sol\":1346:1365  _getInternalBalance */\n      tag_27\n        /* \"MSE804-Blockchain/bank_acct_contract.sol\":1346:1377  _getInternalBalance(msg.sender) */\n      jump\t// in\n    tag_26:\n        /* \"MSE804-Blockchain/bank_acct_contract.sol\":1328:1377  uint256 balance = _getInternalBalance(msg.sender) */\n      swap1\n      pop\n        /* \"MSE804-Blockchain/bank_acct_contract.sol\":1454:1470  uint256 interest */\n      0x00\n        /* \"MSE804-Blockchain/bank_acct_contract.sol\":1500:1503  100 */\n      0x64\n        /* \"MSE804-Blockchain/bank_acct_contract.sol\":1484:1496  interestRate */\n      sload(0x01)\n        /* \"MSE804-Blockchain/bank_acct_contract.sol\":1474:1481  balance */\n      dup4\n        /* \"MSE804-Blockchain/bank_acct_contract.sol\":1474:1496  balance * interestRate */\n      tag_28\n      swap2\n      swap1\n      tag_29\n      jump\t// in\n    tag_28:\n        /* \"MSE804-Blockchain/bank_acct_contract.sol\":1473:1503  (balance * interestRate) / 100 */\n      tag_30\n      swap2\n      swap1\n      tag_31\n      jump\t// in\n    tag_30:\n        /* \"MSE804-Blockchain/bank_acct_contract.sol\":1454:1503  uint256 interest = (balance * interestRate) / 100 */\n      swap1\n      pop\n        /* \"MSE804-Blockchain/bank_acct_contract.sol\":1524:1532  interest */\n      dup1\n        /* \"MSE804-Blockchain/bank_acct_contract.sol\":1517:1532  return interest */\n      swap3\n      pop\n      pop\n      pop\n        /* \"MSE804-Blockchain/bank_acct_contract.sol\":1177:1540  function calculateInterest() public view returns (uint256) {... */\n      swap1\n      jump\t// out\n        /* \"MSE804-Blockchain/bank_acct_contract.sol\":796:911  function _getInternalBalance(address user) internal view returns (uint256) {... */\n    tag_27:\n        /* \"MSE804-Blockchain/bank_acct_contract.sol\":862:869  uint256 */\n      0x00\n        /* \"MSE804-Blockchain/bank_acct_contract.sol\":889:897  balances */\n      dup1\n        /* \"MSE804-Blockchain/bank_acct_contract.sol\":889:903  balances[user] */\n      0x00\n        /* \"MSE804-Blockchain/bank_acct_contract.sol\":898:902  user */\n      dup4\n        /* \"MSE804-Blockchain/bank_acct_contract.sol\":889:903  balances[user] */\n      0xffffffffffffffffffffffffffffffffffffffff\n      and\n      0xffffffffffffffffffffffffffffffffffffffff\n      and\n      dup2\n      mstore\n      0x20\n      add\n      swap1\n      dup2\n      mstore\n      0x20\n      add\n      0x00\n      keccak256\n      sload\n        /* \"MSE804-Blockchain/bank_acct_contract.sol\":882:903  return balances[user] */\n      swap1\n      pop\n        /* \"MSE804-Blockchain/bank_acct_contract.sol\":796:911  function _getInternalBalance(address user) internal view returns (uint256) {... */\n      swap2\n      swap1\n      pop\n      jump\t// out\n        /* \"#utility.yul\":7:84   */\n    tag_33:\n        /* \"#utility.yul\":44:51   */\n      0x00\n        /* \"#utility.yul\":73:78   */\n      dup2\n        /* \"#utility.yul\":62:78   */\n      swap1\n      pop\n        /* \"#utility.yul\":7:84   */\n      swap2\n      swap1\n      pop\n      jump\t// out\n        /* \"#utility.yul\":90:208   */\n    tag_34:\n        /* \"#utility.yul\":177:201   */\n      tag_40\n        /* \"#utility.yul\":195:200   */\n      dup2\n        /* \"#utility.yul\":177:201   */\n      tag_33\n      jump\t// in\n    tag_40:\n        /* \"#utility.yul\":172:175   */\n      dup3\n        /* \"#utility.yul\":165:202   */\n      mstore\n        /* \"#utility.yul\":90:208   */\n      pop\n      pop\n      jump\t// out\n        /* \"#utility.yul\":214:436   */\n    tag_10:\n        /* \"#utility.yul\":307:311   */\n      0x00\n        /* \"#utility.yul\":345:347   */\n      0x20\n        /* \"#utility.yul\":334:343   */\n      dup3\n        /* \"#utility.yul\":330:348   */\n      add\n        /* \"#utility.yul\":322:348   */\n      swap1\n      pop\n        /* \"#utility.yul\":358:429   */\n      tag_42\n        /* \"#utility.yul\":426:427   */\n      0x00\n        /* \"#utility.yul\":415:424   */\n      dup4\n        /* \"#utility.yul\":411:428   */\n      add\n        /* \"#utility.yul\":402:408   */\n      dup5\n        /* \"#utility.yul\":358:429   */\n      tag_34\n      jump\t// in\n    tag_42:\n        /* \"#utility.yul\":214:436   */\n      swap3\n      swap2\n      pop\n      pop\n      jump\t// out\n        /* \"#utility.yul\":442:622   */\n    tag_35:\n        /* \"#utility.yul\":490:567   */\n      0x4e487b7100000000000000000000000000000000000000000000000000000000\n        /* \"#utility.yul\":487:488   */\n      0x00\n        /* \"#utility.yul\":480:568   */\n      mstore\n        /* \"#utility.yul\":587:591   */\n      0x11\n        /* \"#utility.yul\":584:585   */\n      0x04\n        /* \"#utility.yul\":577:592   */\n      mstore\n        /* \"#utility.yul\":611:615   */\n      0x24\n        /* \"#utility.yul\":608:609   */\n      0x00\n        /* \"#utility.yul\":601:616   */\n      revert\n        /* \"#utility.yul\":628:819   */\n    tag_24:\n        /* \"#utility.yul\":668:671   */\n      0x00\n        /* \"#utility.yul\":687:707   */\n      tag_45\n        /* \"#utility.yul\":705:706   */\n      dup3\n        /* \"#utility.yul\":687:707   */\n      tag_33\n      jump\t// in\n    tag_45:\n        /* \"#utility.yul\":682:707   */\n      swap2\n      pop\n        /* \"#utility.yul\":721:741   */\n      tag_46\n        /* \"#utility.yul\":739:740   */\n      dup4\n        /* \"#utility.yul\":721:741   */\n      tag_33\n      jump\t// in\n    tag_46:\n        /* \"#utility.yul\":716:741   */\n      swap3\n      pop\n        /* \"#utility.yul\":764:765   */\n      dup3\n        /* \"#utility.yul\":761:762   */\n      dup3\n        /* \"#utility.yul\":757:766   */\n      add\n        /* \"#utility.yul\":750:766   */\n      swap1\n      pop\n        /* \"#utility.yul\":785:788   */\n      dup1\n        /* \"#utility.yul\":782:783   */\n      dup3\n        /* \"#utility.yul\":779:789   */\n      gt\n        /* \"#utility.yul\":776:812   */\n      iszero\n      tag_47\n      jumpi\n        /* \"#utility.yul\":792:810   */\n      tag_48\n      tag_35\n      jump\t// in\n    tag_48:\n        /* \"#utility.yul\":776:812   */\n    tag_47:\n        /* \"#utility.yul\":628:819   */\n      swap3\n      swap2\n      pop\n      pop\n      jump\t// out\n        /* \"#utility.yul\":825:1235   */\n    tag_29:\n        /* \"#utility.yul\":865:872   */\n      0x00\n        /* \"#utility.yul\":888:908   */\n      tag_50\n        /* \"#utility.yul\":906:907   */\n      dup3\n        /* \"#utility.yul\":888:908   */\n      tag_33\n      jump\t// in\n    tag_50:\n        /* \"#utility.yul\":883:908   */\n      swap2\n      pop\n        /* \"#utility.yul\":922:942   */\n      tag_51\n        /* \"#utility.yul\":940:941   */\n      dup4\n        /* \"#utility.yul\":922:942   */\n      tag_33\n      jump\t// in\n    tag_51:\n        /* \"#utility.yul\":917:942   */\n      swap3\n      pop\n        /* \"#utility.yul\":977:978   */\n      dup3\n        /* \"#utility.yul\":974:975   */\n      dup3\n        /* \"#utility.yul\":970:979   */\n      mul\n        /* \"#utility.yul\":999:1029   */\n      tag_52\n        /* \"#utility.yul\":1017:1028   */\n      dup2\n        /* \"#utility.yul\":999:1029   */\n      tag_33\n      jump\t// in\n    tag_52:\n        /* \"#utility.yul\":988:1029   */\n      swap2\n      pop\n        /* \"#utility.yul\":1178:1179   */\n      dup3\n        /* \"#utility.yul\":1169:1176   */\n      dup3\n        /* \"#utility.yul\":1165:1180   */\n      div\n        /* \"#utility.yul\":1162:1163   */\n      dup5\n        /* \"#utility.yul\":1159:1181   */\n      eq\n        /* \"#utility.yul\":1139:1140   */\n      dup4\n        /* \"#utility.yul\":1132:1141   */\n      iszero\n        /* \"#utility.yul\":1112:1195   */\n      or\n        /* \"#utility.yul\":1089:1228   */\n      tag_53\n      jumpi\n        /* \"#utility.yul\":1208:1226   */\n      tag_54\n      tag_35\n      jump\t// in\n    tag_54:\n        /* \"#utility.yul\":1089:1228   */\n    tag_53:\n        /* \"#utility.yul\":873:1235   */\n      pop\n        /* \"#utility.yul\":825:1235   */\n      swap3\n      swap2\n      pop\n      pop\n      jump\t// out\n        /* \"#utility.yul\":1241:1421   */\n    tag_36:\n        /* \"#utility.yul\":1289:1366   */\n      0x4e487b7100000000000000000000000000000000000000000000000000000000\n        /* \"#utility.yul\":1286:1287   */\n      0x00\n        /* \"#utility.yul\":1279:1367   */\n      mstore\n        /* \"#utility.yul\":1386:1390   */\n      0x12\n        /* \"#utility.yul\":1383:1384   */\n      0x04\n        /* \"#utility.yul\":1376:1391   */\n      mstore\n        /* \"#utility.yul\":1410:1414   */\n      0x24\n        /* \"#utility.yul\":1407:1408   */\n      0x00\n        /* \"#utility.yul\":1400:1415   */\n      revert\n        /* \"#utility.yul\":1427:1612   */\n    tag_31:\n        /* \"#utility.yul\":1467:1468   */\n      0x00\n        /* \"#utility.yul\":1484:1504   */\n      tag_57\n        /* \"#utility.yul\":1502:1503   */\n      dup3\n        /* \"#utility.yul\":1484:1504   */\n      tag_33\n      jump\t// in\n    tag_57:\n        /* \"#utility.yul\":1479:1504   */\n      swap2\n      pop\n        /* \"#utility.yul\":1518:1538   */\n      tag_58\n        /* \"#utility.yul\":1536:1537   */\n      dup4\n        /* \"#utility.yul\":1518:1538   */\n      tag_33\n      jump\t// in\n    tag_58:\n        /* \"#utility.yul\":1513:1538   */\n      swap3\n      pop\n        /* \"#utility.yul\":1557:1558   */\n      dup3\n        /* \"#utility.yul\":1547:1582   */\n      tag_59\n      jumpi\n        /* \"#utility.yul\":1562:1580   */\n      tag_60\n      tag_36\n      jump\t// in\n    tag_60:\n        /* \"#utility.yul\":1547:1582   */\n    tag_59:\n        /* \"#utility.yul\":1604:1605   */\n      dup3\n        /* \"#utility.yul\":1601:1602   */\n      dup3\n        /* \"#utility.yul\":1597:1606   */\n      div\n        /* \"#utility.yul\":1592:1606   */\n      swap1\n      pop\n        /* \"#utility.yul\":1427:1612   */\n      swap3\n      swap2\n      pop\n      pop\n      jump\t// out\n\n    auxdata: 0xa26469706673582212200bc60e404bdd3aaddfd6dd8e2051389341f599f92b7d4a5e87a129864463b64364736f6c634300081a0033\n}\n",
				"bytecode": {
					"linkReferences": {},
					"object": "608060405260056001553480156013575f80fd5b50610343806100215f395ff3fe60806040526004361061003e575f3560e01c806312065fe0146100425780637c3a00fd1461006c578063d0e30db014610096578063eb0c4955146100a0575b5f80fd5b34801561004d575f80fd5b506100566100ca565b60405161006391906101f6565b60405180910390f35b348015610077575f80fd5b5061008061010d565b60405161008d91906101f6565b60405180910390f35b61009e610113565b005b3480156100ab575f80fd5b506100b4610167565b6040516100c191906101f6565b60405180910390f35b5f805f3373ffffffffffffffffffffffffffffffffffffffff1673ffffffffffffffffffffffffffffffffffffffff1681526020019081526020015f2054905090565b60015481565b345f803373ffffffffffffffffffffffffffffffffffffffff1673ffffffffffffffffffffffffffffffffffffffff1681526020019081526020015f205f82825461015e919061023c565b92505081905550565b5f8061017233610199565b90505f606460015483610185919061026f565b61018f91906102dd565b9050809250505090565b5f805f8373ffffffffffffffffffffffffffffffffffffffff1673ffffffffffffffffffffffffffffffffffffffff1681526020019081526020015f20549050919050565b5f819050919050565b6101f0816101de565b82525050565b5f6020820190506102095f8301846101e7565b92915050565b7f4e487b71000000000000000000000000000000000000000000000000000000005f52601160045260245ffd5b5f610246826101de565b9150610251836101de565b92508282019050808211156102695761026861020f565b5b92915050565b5f610279826101de565b9150610284836101de565b9250828202610292816101de565b915082820484148315176102a9576102a861020f565b5b5092915050565b7f4e487b71000000000000000000000000000000000000000000000000000000005f52601260045260245ffd5b5f6102e7826101de565b91506102f2836101de565b925082610302576103016102b0565b5b82820490509291505056fea26469706673582212200bc60e404bdd3aaddfd6dd8e2051389341f599f92b7d4a5e87a129864463b64364736f6c634300081a0033",
					"opcodes": "PUSH1 0x80 PUSH1 0x40 MSTORE PUSH1 0x5 PUSH1 0x1 SSTORE CALLVALUE DUP1 ISZERO PUSH1 0x13 JUMPI PUSH0 DUP1 REVERT JUMPDEST POP PUSH2 0x343 DUP1 PUSH2 0x21 PUSH0 CODECOPY PUSH0 RETURN INVALID PUSH1 0x80 PUSH1 0x40 MSTORE PUSH1 0x4 CALLDATASIZE LT PUSH2 0x3E JUMPI PUSH0 CALLDATALOAD PUSH1 0xE0 SHR DUP1 PUSH4 0x12065FE0 EQ PUSH2 0x42 JUMPI DUP1 PUSH4 0x7C3A00FD EQ PUSH2 0x6C JUMPI DUP1 PUSH4 0xD0E30DB0 EQ PUSH2 0x96 JUMPI DUP1 PUSH4 0xEB0C4955 EQ PUSH2 0xA0 JUMPI JUMPDEST PUSH0 DUP1 REVERT JUMPDEST CALLVALUE DUP1 ISZERO PUSH2 0x4D JUMPI PUSH0 DUP1 REVERT JUMPDEST POP PUSH2 0x56 PUSH2 0xCA JUMP JUMPDEST PUSH1 0x40 MLOAD PUSH2 0x63 SWAP2 SWAP1 PUSH2 0x1F6 JUMP JUMPDEST PUSH1 0x40 MLOAD DUP1 SWAP2 SUB SWAP1 RETURN JUMPDEST CALLVALUE DUP1 ISZERO PUSH2 0x77 JUMPI PUSH0 DUP1 REVERT JUMPDEST POP PUSH2 0x80 PUSH2 0x10D JUMP JUMPDEST PUSH1 0x40 MLOAD PUSH2 0x8D SWAP2 SWAP1 PUSH2 0x1F6 JUMP JUMPDEST PUSH1 0x40 MLOAD DUP1 SWAP2 SUB SWAP1 RETURN JUMPDEST PUSH2 0x9E PUSH2 0x113 JUMP JUMPDEST STOP JUMPDEST CALLVALUE DUP1 ISZERO PUSH2 0xAB JUMPI PUSH0 DUP1 REVERT JUMPDEST POP PUSH2 0xB4 PUSH2 0x167 JUMP JUMPDEST PUSH1 0x40 MLOAD PUSH2 0xC1 SWAP2 SWAP1 PUSH2 0x1F6 JUMP JUMPDEST PUSH1 0x40 MLOAD DUP1 SWAP2 SUB SWAP1 RETURN JUMPDEST PUSH0 DUP1 PUSH0 CALLER PUSH20 0xFFFFFFFFFFFFFFFFFFFFFFFFFFFFFFFFFFFFFFFF AND PUSH20 0xFFFFFFFFFFFFFFFFFFFFFFFFFFFFFFFFFFFFFFFF AND DUP2 MSTORE PUSH1 0x20 ADD SWAP1 DUP2 MSTORE PUSH1 0x20 ADD PUSH0 KECCAK256 SLOAD SWAP1 POP SWAP1 JUMP JUMPDEST PUSH1 0x1 SLOAD DUP2 JUMP JUMPDEST CALLVALUE PUSH0 DUP1 CALLER PUSH20 0xFFFFFFFFFFFFFFFFFFFFFFFFFFFFFFFFFFFFFFFF AND PUSH20 0xFFFFFFFFFFFFFFFFFFFFFFFFFFFFFFFFFFFFFFFF AND DUP2 MSTORE PUSH1 0x20 ADD SWAP1 DUP2 MSTORE PUSH1 0x20 ADD PUSH0 KECCAK256 PUSH0 DUP3 DUP3 SLOAD PUSH2 0x15E SWAP2 SWAP1 PUSH2 0x23C JUMP JUMPDEST SWAP3 POP POP DUP2 SWAP1 SSTORE POP JUMP JUMPDEST PUSH0 DUP1 PUSH2 0x172 CALLER PUSH2 0x199 JUMP JUMPDEST SWAP1 POP PUSH0 PUSH1 0x64 PUSH1 0x1 SLOAD DUP4 PUSH2 0x185 SWAP2 SWAP1 PUSH2 0x26F JUMP JUMPDEST PUSH2 0x18F SWAP2 SWAP1 PUSH2 0x2DD JUMP JUMPDEST SWAP1 POP DUP1 SWAP3 POP POP POP SWAP1 JUMP JUMPDEST PUSH0 DUP1 PUSH0 DUP4 PUSH20 0xFFFFFFFFFFFFFFFFFFFFFFFFFFFFFFFFFFFFFFFF AND PUSH20 0xFFFFFFFFFFFFFFFFFFFFFFFFFFFFFFFFFFFFFFFF AND DUP2 MSTORE PUSH1 0x20 ADD SWAP1 DUP2 MSTORE PUSH1 0x20 ADD PUSH0 KECCAK256 SLOAD SWAP1 POP SWAP2 SWAP1 POP JUMP JUMPDEST PUSH0 DUP2 SWAP1 POP SWAP2 SWAP1 POP JUMP JUMPDEST PUSH2 0x1F0 DUP2 PUSH2 0x1DE JUMP JUMPDEST DUP3 MSTORE POP POP JUMP JUMPDEST PUSH0 PUSH1 0x20 DUP3 ADD SWAP1 POP PUSH2 0x209 PUSH0 DUP4 ADD DUP5 PUSH2 0x1E7 JUMP JUMPDEST SWAP3 SWAP2 POP POP JUMP JUMPDEST PUSH32 0x4E487B7100000000000000000000000000000000000000000000000000000000 PUSH0 MSTORE PUSH1 0x11 PUSH1 0x4 MSTORE PUSH1 0x24 PUSH0 REVERT JUMPDEST PUSH0 PUSH2 0x246 DUP3 PUSH2 0x1DE JUMP JUMPDEST SWAP2 POP PUSH2 0x251 DUP4 PUSH2 0x1DE JUMP JUMPDEST SWAP3 POP DUP3 DUP3 ADD SWAP1 POP DUP1 DUP3 GT ISZERO PUSH2 0x269 JUMPI PUSH2 0x268 PUSH2 0x20F JUMP JUMPDEST JUMPDEST SWAP3 SWAP2 POP POP JUMP JUMPDEST PUSH0 PUSH2 0x279 DUP3 PUSH2 0x1DE JUMP JUMPDEST SWAP2 POP PUSH2 0x284 DUP4 PUSH2 0x1DE JUMP JUMPDEST SWAP3 POP DUP3 DUP3 MUL PUSH2 0x292 DUP2 PUSH2 0x1DE JUMP JUMPDEST SWAP2 POP DUP3 DUP3 DIV DUP5 EQ DUP4 ISZERO OR PUSH2 0x2A9 JUMPI PUSH2 0x2A8 PUSH2 0x20F JUMP JUMPDEST JUMPDEST POP SWAP3 SWAP2 POP POP JUMP JUMPDEST PUSH32 0x4E487B7100000000000000000000000000000000000000000000000000000000 PUSH0 MSTORE PUSH1 0x12 PUSH1 0x4 MSTORE PUSH1 0x24 PUSH0 REVERT JUMPDEST PUSH0 PUSH2 0x2E7 DUP3 PUSH2 0x1DE JUMP JUMPDEST SWAP2 POP PUSH2 0x2F2 DUP4 PUSH2 0x1DE JUMP JUMPDEST SWAP3 POP DUP3 PUSH2 0x302 JUMPI PUSH2 0x301 PUSH2 0x2B0 JUMP JUMPDEST JUMPDEST DUP3 DUP3 DIV SWAP1 POP SWAP3 SWAP2 POP POP JUMP INVALID LOG2 PUSH5 0x6970667358 0x22 SLT KECCAK256 SIGNEXTEND 0xC6 0xE BLOCKHASH 0x4B 0xDD GASPRICE 0xAD 0xDF 0xD6 0xDD DUP15 KECCAK256 MLOAD CODESIZE SWAP4 COINBASE CREATE2 SWAP10 0xF9 0x2B PUSH30 0x4A5E87A129864463B64364736F6C634300081A0033000000000000000000 "
				},
				"gasEstimates": {
					"creation": {
						"codeDepositCost": "167000",
						"executionCost": "22318",
						"totalCost": "189318"
					},
					"external": {
						"calculateInterest()": "infinite",
						"deposit()": "infinite",
						"getBalance()": "2497",
						"interestRate()": "2425"
					}
				},
				"methodIdentifiers": {
					"calculateInterest()": "eb0c4955",
					"deposit()": "d0e30db0",
					"getBalance()": "12065fe0",
					"interestRate()": "7c3a00fd"
				}
			},
			"storageLayout": {
				"storage": [
					{
						"astId": 5,
						"contract": "MSE804-Blockchain/bank_acct_contract.sol:SavingsAccount",
						"label": "balances",
						"offset": 0,
						"slot": "0",
						"type": "t_mapping(t_address,t_uint256)"
					},
					{
						"astId": 46,
						"contract": "MSE804-Blockchain/bank_acct_contract.sol:SavingsAccount",
						"label": "interestRate",
						"offset": 0,
						"slot": "1",
						"type": "t_uint256"
					}
				],
				"types": {
					"t_address": {
						"encoding": "inplace",
						"label": "address",
						"numberOfBytes": "20"
					},
					"t_mapping(t_address,t_uint256)": {
						"encoding": "mapping",
						"key": "t_address",
						"label": "mapping(address => uint256)",
						"numberOfBytes": "32",
						"value": "t_uint256"
					},
					"t_uint256": {
						"encoding": "inplace",
						"label": "uint256",
						"numberOfBytes": "32"
					}
				}
			},
			"userdoc": {
				"kind": "user",
				"methods": {},
				"version": 1
			}
		}
	}
}